{
  "_format": "hh-sol-artifact-1",
  "contractName": "TransferTest2",
  "sourceName": "contracts/Test/ContractAccount2.sol",
  "abi": [
    {
      "inputs": [
        {
          "internalType": "address",
          "name": "_ex",
          "type": "address"
        }
      ],
      "stateMutability": "nonpayable",
      "type": "constructor"
    },
    {
      "inputs": [
        {
          "internalType": "bytes32",
          "name": "_order",
          "type": "bytes32"
        }
      ],
      "name": "bid",
      "outputs": [],
      "stateMutability": "payable",
      "type": "function"
    },
    {
      "inputs": [],
      "name": "ex",
      "outputs": [
        {
          "internalType": "contract NFTEX",
          "name": "",
          "type": "address"
        }
      ],
      "stateMutability": "view",
      "type": "function"
    },
    {
      "inputs": [],
      "name": "owner",
      "outputs": [
        {
          "internalType": "address",
          "name": "",
          "type": "address"
        }
      ],
      "stateMutability": "view",
      "type": "function"
    },
    {
      "stateMutability": "payable",
      "type": "receive"
    }
  ],
  "bytecode": "0x608060405234801561001057600080fd5b506040516105dc3803806105dc833981810160405281019061003291906100ce565b806000806101000a81548173ffffffffffffffffffffffffffffffffffffffff021916908373ffffffffffffffffffffffffffffffffffffffff16021790555033600160006101000a81548173ffffffffffffffffffffffffffffffffffffffff021916908373ffffffffffffffffffffffffffffffffffffffff16021790555050610140565b6000815190506100c881610129565b92915050565b6000602082840312156100e057600080fd5b60006100ee848285016100b9565b91505092915050565b600061010282610109565b9050919050565b600073ffffffffffffffffffffffffffffffffffffffff82169050919050565b610132816100f7565b811461013d57600080fd5b50565b61048d8061014f6000396000f3fe6080604052600436106100385760003560e01c80638da5cb5b146100ad578063957bb1e0146100d8578063e1c34549146100f4576100a8565b366100a857600160009054906101000a900473ffffffffffffffffffffffffffffffffffffffff1673ffffffffffffffffffffffffffffffffffffffff166108fc349081150290604051600060405180830381858888f193505050501580156100a5573d6000803e3d6000fd5b50005b600080fd5b3480156100b957600080fd5b506100c261011f565b6040516100cf9190610346565b60405180910390f35b6100f260048036038101906100ed91906102a8565b610145565b005b34801561010057600080fd5b5061010961026f565b604051610116919061037c565b60405180910390f35b600160009054906101000a900473ffffffffffffffffffffffffffffffffffffffff1681565b60008060009054906101000a900473ffffffffffffffffffffffffffffffffffffffff1673ffffffffffffffffffffffffffffffffffffffff1634836040516024016101919190610361565b6040516020818303038152906040527f957bb1e0000000000000000000000000000000000000000000000000000000007bffffffffffffffffffffffffffffffffffffffffffffffffffffffff19166020820180517bffffffffffffffffffffffffffffffffffffffffffffffffffffffff838183161783525050505060405161021b919061032f565b60006040518083038185875af1925050503d8060008114610258576040519150601f19603f3d011682016040523d82523d6000602084013e61025d565b606091505b505090508061026b57600080fd5b5050565b60008054906101000a900473ffffffffffffffffffffffffffffffffffffffff1681565b6000813590506102a281610440565b92915050565b6000602082840312156102ba57600080fd5b60006102c884828501610293565b91505092915050565b6102da816103ad565b82525050565b6102e9816103bf565b82525050565b60006102fa82610397565b61030481856103a2565b935061031481856020860161040d565b80840191505092915050565b610329816103e9565b82525050565b600061033b82846102ef565b915081905092915050565b600060208201905061035b60008301846102d1565b92915050565b600060208201905061037660008301846102e0565b92915050565b60006020820190506103916000830184610320565b92915050565b600081519050919050565b600081905092915050565b60006103b8826103c9565b9050919050565b6000819050919050565b600073ffffffffffffffffffffffffffffffffffffffff82169050919050565b60006103f4826103fb565b9050919050565b6000610406826103c9565b9050919050565b60005b8381101561042b578082015181840152602081019050610410565b8381111561043a576000848401525b50505050565b610449816103bf565b811461045457600080fd5b5056fea264697066735822122035622c69a17362a365567d652a2b08a147d034885ed091deff47943b0f061aaf64736f6c63430008030033",
  "linkReferences": {},
  "deployedLinkReferences": {}
}