{
  "_format": "hh-sol-artifact-1",
  "contractName": "TransferTest2",
  "sourceName": "contracts/Test/ContractAccount2.sol",
  "abi": [
    {
      "inputs": [
        {
          "internalType": "address",
          "name": "_ex",
          "type": "address"
        }
      ],
      "stateMutability": "nonpayable",
      "type": "constructor"
    },
    {
      "inputs": [
        {
          "internalType": "bytes32",
          "name": "_order",
          "type": "bytes32"
        }
      ],
      "name": "bid",
      "outputs": [],
      "stateMutability": "payable",
      "type": "function"
    },
    {
      "inputs": [
        {
          "internalType": "bytes32",
          "name": "c__0x5a1b66d5",
          "type": "bytes32"
        }
      ],
      "name": "c_0x5a1b66d5",
      "outputs": [],
      "stateMutability": "pure",
      "type": "function"
    },
    {
      "inputs": [],
      "name": "ex",
      "outputs": [
        {
          "internalType": "contract NFTEX",
          "name": "",
          "type": "address"
        }
      ],
      "stateMutability": "view",
      "type": "function"
    },
    {
      "inputs": [],
      "name": "owner",
      "outputs": [
        {
          "internalType": "address",
          "name": "",
          "type": "address"
        }
      ],
      "stateMutability": "view",
      "type": "function"
    },
    {
      "stateMutability": "payable",
      "type": "receive"
    }
  ],
  "bytecode": "0x608060405234801561001057600080fd5b50604051610870380380610870833981810160405281019061003291906101cb565b6100647f704a86aa969f131f4c14cf2270eff2cd61a93eeab2c6a8903a756c7ed5c53fda60001b6101b360201b60201c565b6100967f41462c3efbd55ead95b8be0dbd45b6b44d3aff376a130bc6b37f402a7d06337a60001b6101b360201b60201c565b6100c87fafc52b77c86754922ce7b0268d984b0632341ee2639b97f5438dfaba87d7888d60001b6101b360201b60201c565b806000806101000a81548173ffffffffffffffffffffffffffffffffffffffff021916908373ffffffffffffffffffffffffffffffffffffffff16021790555061013a7f26b0c6c981df36f100873c5ebe4f49e40694f61e0aa28526d04a758bf252949e60001b6101b360201b60201c565b61016c7f779496e745a267d3d850763e9cec4399d89b3c363017e65f86e3ed9039832d7960001b6101b360201b60201c565b33600160006101000a81548173ffffffffffffffffffffffffffffffffffffffff021916908373ffffffffffffffffffffffffffffffffffffffff1602179055505061023d565b50565b6000815190506101c581610226565b92915050565b6000602082840312156101dd57600080fd5b60006101eb848285016101b6565b91505092915050565b60006101ff82610206565b9050919050565b600073ffffffffffffffffffffffffffffffffffffffff82169050919050565b61022f816101f4565b811461023a57600080fd5b50565b6106248061024c6000396000f3fe6080604052600436106100435760003560e01c80638da5cb5b146100e4578063957bb1e01461010f578063a258ea371461012b578063e1c3454914610154576100df565b366100df576100747f38080088b821b653180dfb539e790d5a1fbf4889dcefae4fd9b8a50f42b4524960001b61017f565b600160009054906101000a900473ffffffffffffffffffffffffffffffffffffffff1673ffffffffffffffffffffffffffffffffffffffff166108fc349081150290604051600060405180830381858888f193505050501580156100dc573d6000803e3d6000fd5b50005b600080fd5b3480156100f057600080fd5b506100f9610182565b60405161010691906104dd565b60405180910390f35b6101296004803603810190610124919061043f565b6101a8565b005b34801561013757600080fd5b50610152600480360381019061014d919061043f565b61017f565b005b34801561016057600080fd5b50610169610406565b6040516101769190610513565b60405180910390f35b50565b600160009054906101000a900473ffffffffffffffffffffffffffffffffffffffff1681565b6101d47f1399f94386aabf7b0afc6ff5b1b59d86ada79bb9207e6c916800df42155594c960001b61017f565b6102007fd44e848f9ea1c34a282eb28e1148c32a34828c76d3a999e0a5421f679182385260001b61017f565b61022c7f327bb6def58c4649a03bcaa283ae102f66162a0aae1b9f7072b60402bf6231bf60001b61017f565b60008060009054906101000a900473ffffffffffffffffffffffffffffffffffffffff1673ffffffffffffffffffffffffffffffffffffffff16348360405160240161027891906104f8565b6040516020818303038152906040527f957bb1e0000000000000000000000000000000000000000000000000000000007bffffffffffffffffffffffffffffffffffffffffffffffffffffffff19166020820180517bffffffffffffffffffffffffffffffffffffffffffffffffffffffff838183161783525050505060405161030291906104c6565b60006040518083038185875af1925050503d806000811461033f576040519150601f19603f3d011682016040523d82523d6000602084013e610344565b606091505b505090506103747f1fce2cb4c19a62e0304ef6236e8f42ed20964da649b6c5b7c3d3a3649736b95e60001b61017f565b6103a07f6701d5e4be937e1588caed1d94d263ff99869c6fec54a4396d37b7b7fcb21c0c60001b61017f565b6103cc7f1ef30b15f331d8dd7c8f6c1739d5b74555b71706967a89cf1f0a2ff47f0d17d060001b61017f565b806103d657600080fd5b6104027f3911244693c7ee4f592bff11d0276af4be531e7dd5ca3ad6cfeab21f5cf102bc60001b61017f565b5050565b60008054906101000a900473ffffffffffffffffffffffffffffffffffffffff1681565b600081359050610439816105d7565b92915050565b60006020828403121561045157600080fd5b600061045f8482850161042a565b91505092915050565b61047181610544565b82525050565b61048081610556565b82525050565b60006104918261052e565b61049b8185610539565b93506104ab8185602086016105a4565b80840191505092915050565b6104c081610580565b82525050565b60006104d28284610486565b915081905092915050565b60006020820190506104f26000830184610468565b92915050565b600060208201905061050d6000830184610477565b92915050565b600060208201905061052860008301846104b7565b92915050565b600081519050919050565b600081905092915050565b600061054f82610560565b9050919050565b6000819050919050565b600073ffffffffffffffffffffffffffffffffffffffff82169050919050565b600061058b82610592565b9050919050565b600061059d82610560565b9050919050565b60005b838110156105c25780820151818401526020810190506105a7565b838111156105d1576000848401525b50505050565b6105e081610556565b81146105eb57600080fd5b5056fea26469706673582212200bc203ef1052a9525c5fdb2d944cc81747652ba8de6e20f442c59111cf0ae39f64736f6c63430008030033",
  "linkReferences": {},
  "deployedLinkReferences": {}
}