{
  "_format": "hh-sol-artifact-1",
  "contractName": "NFTEX",
  "sourceName": "contracts/NFTEX.sol",
  "abi": [
    {
      "inputs": [
        {
          "internalType": "uint16",
          "name": "_feePercent",
          "type": "uint16"
        }
      ],
      "stateMutability": "nonpayable",
      "type": "constructor"
    },
    {
      "anonymous": false,
      "inputs": [
        {
          "indexed": true,
          "internalType": "contract IERC721",
          "name": "token",
          "type": "address"
        },
        {
          "indexed": false,
          "internalType": "uint256",
          "name": "id",
          "type": "uint256"
        },
        {
          "indexed": true,
          "internalType": "bytes32",
          "name": "hash",
          "type": "bytes32"
        },
        {
          "indexed": false,
          "internalType": "address",
          "name": "bidder",
          "type": "address"
        },
        {
          "indexed": false,
          "internalType": "uint256",
          "name": "bidPrice",
          "type": "uint256"
        }
      ],
      "name": "Bid",
      "type": "event"
    },
    {
      "anonymous": false,
      "inputs": [
        {
          "indexed": true,
          "internalType": "contract IERC721",
          "name": "token",
          "type": "address"
        },
        {
          "indexed": false,
          "internalType": "uint256",
          "name": "id",
          "type": "uint256"
        },
        {
          "indexed": true,
          "internalType": "bytes32",
          "name": "hash",
          "type": "bytes32"
        },
        {
          "indexed": false,
          "internalType": "address",
          "name": "seller",
          "type": "address"
        }
      ],
      "name": "CancelOrder",
      "type": "event"
    },
    {
      "anonymous": false,
      "inputs": [
        {
          "indexed": true,
          "internalType": "contract IERC721",
          "name": "token",
          "type": "address"
        },
        {
          "indexed": false,
          "internalType": "uint256",
          "name": "id",
          "type": "uint256"
        },
        {
          "indexed": true,
          "internalType": "bytes32",
          "name": "hash",
          "type": "bytes32"
        },
        {
          "indexed": false,
          "internalType": "address",
          "name": "seller",
          "type": "address"
        },
        {
          "indexed": false,
          "internalType": "address",
          "name": "taker",
          "type": "address"
        },
        {
          "indexed": false,
          "internalType": "uint256",
          "name": "price",
          "type": "uint256"
        }
      ],
      "name": "Claim",
      "type": "event"
    },
    {
      "anonymous": false,
      "inputs": [
        {
          "indexed": true,
          "internalType": "contract IERC721",
          "name": "token",
          "type": "address"
        },
        {
          "indexed": false,
          "internalType": "uint256",
          "name": "id",
          "type": "uint256"
        },
        {
          "indexed": true,
          "internalType": "bytes32",
          "name": "hash",
          "type": "bytes32"
        },
        {
          "indexed": false,
          "internalType": "address",
          "name": "seller",
          "type": "address"
        }
      ],
      "name": "MakeOrder",
      "type": "event"
    },
    {
      "anonymous": false,
      "inputs": [
        {
          "indexed": true,
          "internalType": "address",
          "name": "previousOwner",
          "type": "address"
        },
        {
          "indexed": true,
          "internalType": "address",
          "name": "newOwner",
          "type": "address"
        }
      ],
      "name": "OwnershipTransferred",
      "type": "event"
    },
    {
      "inputs": [
        {
          "internalType": "contract IERC721",
          "name": "_token",
          "type": "address"
        },
        {
          "internalType": "uint256",
          "name": "_id",
          "type": "uint256"
        },
        {
          "internalType": "address",
          "name": "_seller",
          "type": "address"
        }
      ],
      "name": "_hash",
      "outputs": [
        {
          "internalType": "bytes32",
          "name": "",
          "type": "bytes32"
        }
      ],
      "stateMutability": "view",
      "type": "function"
    },
    {
      "inputs": [
        {
          "internalType": "bytes32",
          "name": "_order",
          "type": "bytes32"
        }
      ],
      "name": "bid",
      "outputs": [],
      "stateMutability": "payable",
      "type": "function"
    },
    {
      "inputs": [
        {
          "internalType": "bytes32",
          "name": "_order",
          "type": "bytes32"
        }
      ],
      "name": "buyItNow",
      "outputs": [],
      "stateMutability": "payable",
      "type": "function"
    },
    {
      "inputs": [
        {
          "internalType": "bytes32",
          "name": "_order",
          "type": "bytes32"
        }
      ],
      "name": "cancelOrder",
      "outputs": [],
      "stateMutability": "nonpayable",
      "type": "function"
    },
    {
      "inputs": [
        {
          "internalType": "bytes32",
          "name": "_order",
          "type": "bytes32"
        }
      ],
      "name": "claim",
      "outputs": [],
      "stateMutability": "nonpayable",
      "type": "function"
    },
    {
      "inputs": [
        {
          "internalType": "contract IERC721",
          "name": "_token",
          "type": "address"
        },
        {
          "internalType": "uint256",
          "name": "_id",
          "type": "uint256"
        },
        {
          "internalType": "uint256",
          "name": "_startPrice",
          "type": "uint256"
        },
        {
          "internalType": "uint256",
          "name": "_endPrice",
          "type": "uint256"
        },
        {
          "internalType": "uint256",
          "name": "_endBlock",
          "type": "uint256"
        }
      ],
      "name": "dutchAuction",
      "outputs": [],
      "stateMutability": "nonpayable",
      "type": "function"
    },
    {
      "inputs": [
        {
          "internalType": "contract IERC721",
          "name": "_token",
          "type": "address"
        },
        {
          "internalType": "uint256",
          "name": "_id",
          "type": "uint256"
        },
        {
          "internalType": "uint256",
          "name": "_startPrice",
          "type": "uint256"
        },
        {
          "internalType": "uint256",
          "name": "_endBlock",
          "type": "uint256"
        }
      ],
      "name": "englishAuction",
      "outputs": [],
      "stateMutability": "nonpayable",
      "type": "function"
    },
    {
      "inputs": [],
      "name": "feeAddress",
      "outputs": [
        {
          "internalType": "address",
          "name": "",
          "type": "address"
        }
      ],
      "stateMutability": "view",
      "type": "function"
    },
    {
      "inputs": [],
      "name": "feePercent",
      "outputs": [
        {
          "internalType": "uint16",
          "name": "",
          "type": "uint16"
        }
      ],
      "stateMutability": "view",
      "type": "function"
    },
    {
      "inputs": [
        {
          "internalType": "contract IERC721",
          "name": "_token",
          "type": "address"
        },
        {
          "internalType": "uint256",
          "name": "_id",
          "type": "uint256"
        },
        {
          "internalType": "uint256",
          "name": "_price",
          "type": "uint256"
        },
        {
          "internalType": "uint256",
          "name": "_endBlock",
          "type": "uint256"
        }
      ],
      "name": "fixedPrice",
      "outputs": [],
      "stateMutability": "nonpayable",
      "type": "function"
    },
    {
      "inputs": [
        {
          "internalType": "bytes32",
          "name": "_order",
          "type": "bytes32"
        }
      ],
      "name": "getCurrentPrice",
      "outputs": [
        {
          "internalType": "uint256",
          "name": "",
          "type": "uint256"
        }
      ],
      "stateMutability": "view",
      "type": "function"
    },
    {
      "inputs": [
        {
          "internalType": "address",
          "name": "",
          "type": "address"
        },
        {
          "internalType": "address",
          "name": "",
          "type": "address"
        },
        {
          "internalType": "uint256",
          "name": "",
          "type": "uint256"
        },
        {
          "internalType": "bytes",
          "name": "",
          "type": "bytes"
        }
      ],
      "name": "onERC721Received",
      "outputs": [
        {
          "internalType": "bytes4",
          "name": "",
          "type": "bytes4"
        }
      ],
      "stateMutability": "nonpayable",
      "type": "function"
    },
    {
      "inputs": [
        {
          "internalType": "address",
          "name": "",
          "type": "address"
        },
        {
          "internalType": "uint256",
          "name": "",
          "type": "uint256"
        }
      ],
      "name": "orderIdBySeller",
      "outputs": [
        {
          "internalType": "bytes32",
          "name": "",
          "type": "bytes32"
        }
      ],
      "stateMutability": "view",
      "type": "function"
    },
    {
      "inputs": [
        {
          "internalType": "contract IERC721",
          "name": "",
          "type": "address"
        },
        {
          "internalType": "uint256",
          "name": "",
          "type": "uint256"
        },
        {
          "internalType": "uint256",
          "name": "",
          "type": "uint256"
        }
      ],
      "name": "orderIdByToken",
      "outputs": [
        {
          "internalType": "bytes32",
          "name": "",
          "type": "bytes32"
        }
      ],
      "stateMutability": "view",
      "type": "function"
    },
    {
      "inputs": [
        {
          "internalType": "bytes32",
          "name": "",
          "type": "bytes32"
        }
      ],
      "name": "orderInfo",
      "outputs": [
        {
          "internalType": "uint8",
          "name": "orderType",
          "type": "uint8"
        },
        {
          "internalType": "address",
          "name": "seller",
          "type": "address"
        },
        {
          "internalType": "contract IERC721",
          "name": "token",
          "type": "address"
        },
        {
          "internalType": "uint256",
          "name": "tokenId",
          "type": "uint256"
        },
        {
          "internalType": "uint256",
          "name": "startPrice",
          "type": "uint256"
        },
        {
          "internalType": "uint256",
          "name": "endPrice",
          "type": "uint256"
        },
        {
          "internalType": "uint256",
          "name": "startBlock",
          "type": "uint256"
        },
        {
          "internalType": "uint256",
          "name": "endBlock",
          "type": "uint256"
        },
        {
          "internalType": "uint256",
          "name": "lastBidPrice",
          "type": "uint256"
        },
        {
          "internalType": "address",
          "name": "lastBidder",
          "type": "address"
        },
        {
          "internalType": "bool",
          "name": "isSold",
          "type": "bool"
        }
      ],
      "stateMutability": "view",
      "type": "function"
    },
    {
      "inputs": [],
      "name": "owner",
      "outputs": [
        {
          "internalType": "address",
          "name": "",
          "type": "address"
        }
      ],
      "stateMutability": "view",
      "type": "function"
    },
    {
      "inputs": [],
      "name": "renounceOwnership",
      "outputs": [],
      "stateMutability": "nonpayable",
      "type": "function"
    },
    {
      "inputs": [
        {
          "internalType": "address",
          "name": "_seller",
          "type": "address"
        }
      ],
      "name": "sellerOrderLength",
      "outputs": [
        {
          "internalType": "uint256",
          "name": "",
          "type": "uint256"
        }
      ],
      "stateMutability": "view",
      "type": "function"
    },
    {
      "inputs": [
        {
          "internalType": "address",
          "name": "_feeAddress",
          "type": "address"
        }
      ],
      "name": "setFeeAddress",
      "outputs": [],
      "stateMutability": "nonpayable",
      "type": "function"
    },
    {
      "inputs": [
        {
          "internalType": "contract IERC721",
          "name": "_token",
          "type": "address"
        },
        {
          "internalType": "uint256",
          "name": "_id",
          "type": "uint256"
        }
      ],
      "name": "tokenOrderLength",
      "outputs": [
        {
          "internalType": "uint256",
          "name": "",
          "type": "uint256"
        }
      ],
      "stateMutability": "view",
      "type": "function"
    },
    {
      "inputs": [
        {
          "internalType": "address",
          "name": "newOwner",
          "type": "address"
        }
      ],
      "name": "transferOwnership",
      "outputs": [],
      "stateMutability": "nonpayable",
      "type": "function"
    },
    {
      "inputs": [
        {
          "internalType": "uint16",
          "name": "_percent",
          "type": "uint16"
        }
      ],
      "name": "updateFeePercent",
      "outputs": [],
      "stateMutability": "nonpayable",
      "type": "function"
    }
  ],
  "bytecode": "0x60806040523480156200001157600080fd5b506040516200344b3803806200344b8339818101604052810190620000379190620001b7565b6000620000496200019860201b60201c565b9050806000806101000a81548173ffffffffffffffffffffffffffffffffffffffff021916908373ffffffffffffffffffffffffffffffffffffffff1602179055508073ffffffffffffffffffffffffffffffffffffffff16600073ffffffffffffffffffffffffffffffffffffffff167f8be0079c531659141344cd1fd0a4f28419497f9722a3daafe3b4186f6b6457e060405160405180910390a3506127108161ffff16111562000133576040517f08c379a00000000000000000000000000000000000000000000000000000000081526004016200012a9062000225565b60405180910390fd5b33600460006101000a81548173ffffffffffffffffffffffffffffffffffffffff021916908373ffffffffffffffffffffffffffffffffffffffff16021790555080600460146101000a81548161ffff021916908361ffff1602179055505062000280565b600033905090565b600081519050620001b18162000266565b92915050565b600060208284031215620001ca57600080fd5b6000620001da84828501620001a0565b91505092915050565b6000620001f2601d8362000247565b91507f696e7075742076616c7565206973206d6f7265207468616e20313030250000006000830152602082019050919050565b600060208201905081810360008301526200024081620001e3565b9050919050565b600082825260208201905092915050565b600061ffff82169050919050565b620002718162000258565b81146200027d57600080fd5b50565b6131bb80620002906000396000f3fe6080604052600436106101355760003560e01c80638035eb5c116100ab578063957bb1e01161006f578063957bb1e014610447578063a04a86bd14610463578063bd66528a1461048c578063f2fde38b146104b5578063f4dae74c146104de578063f9ab2e581461050757610135565b80638035eb5c146103715780638705fcd41461039a5780638aae982a146103c35780638ba39adb146104005780638da5cb5b1461041c57610135565b8063238e203f116100fd578063238e203f14610257578063275e086c1461029e57806341275358146102db578063715018a6146103065780637489ec231461031d5780637fd6f15c1461034657610135565b806308745c981461013a578063093dff7d14610177578063150b7a02146101a0578063161e444e146101dd57806319daa1081461021a575b600080fd5b34801561014657600080fd5b50610161600480360381019061015c919061211e565b610544565b60405161016e91906129de565b60405180910390f35b34801561018357600080fd5b5061019e600480360381019061019991906122c0565b610575565b005b3480156101ac57600080fd5b506101c760048036038101906101c291906120a3565b6105cd565b6040516101d491906129f9565b60405180910390f35b3480156101e957600080fd5b5061020460048036038101906101ff919061215a565b6105e1565b6040516102119190612c6f565b60405180910390f35b34801561022657600080fd5b50610241600480360381019061023c9190612183565b6106cb565b60405161024e9190612c6f565b60405180910390f35b34801561026357600080fd5b5061027e6004803603810190610279919061215a565b610729565b6040516102959b9a99989796959493929190612d2f565b60405180910390f35b3480156102aa57600080fd5b506102c560048036038101906102c0919061220e565b6107fd565b6040516102d291906129de565b60405180910390f35b3480156102e757600080fd5b506102f061083b565b6040516102fd919061298c565b60405180910390f35b34801561031257600080fd5b5061031b610861565b005b34801561032957600080fd5b50610344600480360381019061033f919061215a565b61099b565b005b34801561035257600080fd5b5061035b610be5565b6040516103689190612c54565b60405180910390f35b34801561037d57600080fd5b506103986004803603810190610393919061225d565b610bf9565b005b3480156103a657600080fd5b506103c160048036038101906103bc919061207a565b610c0f565b005b3480156103cf57600080fd5b506103ea60048036038101906103e5919061207a565b610ccf565b6040516103f79190612c6f565b60405180910390f35b61041a6004803603810190610415919061215a565b610d1b565b005b34801561042857600080fd5b506104316110d0565b60405161043e919061298c565b60405180910390f35b610461600480360381019061045c919061215a565b6110f9565b005b34801561046f57600080fd5b5061048a60048036038101906104859190612337565b611482565b005b34801561049857600080fd5b506104b360048036038101906104ae919061215a565b611567565b005b3480156104c157600080fd5b506104dc60048036038101906104d7919061207a565b611901565b005b3480156104ea57600080fd5b506105056004803603810190610500919061225d565b611aaa565b005b34801561051357600080fd5b5061052e600480360381019061052991906121bf565b611ac0565b60405161053b91906129de565b60405180910390f35b6002602052816000526040600020818154811061056057600080fd5b90600052602060002001600091509150505481565b8183116105b7576040517f08c379a00000000000000000000000000000000000000000000000000000000081526004016105ae90612bd4565b60405180910390fd5b6105c660018686868686611af8565b5050505050565b600063150b7a0260e01b9050949350505050565b60008060036000848152602001908152602001600020905060008160000160009054906101000a900460ff16905060008160ff161415610629578160030154925050506106c6565b60028160ff16141561065c576000826007015490506000811461064c5780610652565b82600301545b93505050506106c6565b60008260030154905060008360050154905060008185600601546106809190612f38565b8560040154846106909190612f38565b61069a9190612ead565b90508082436106a99190612f38565b6106b39190612ede565b836106be9190612f38565b955050505050505b919050565b6000600160008473ffffffffffffffffffffffffffffffffffffffff1673ffffffffffffffffffffffffffffffffffffffff168152602001908152602001600020600083815260200190815260200160002080549050905092915050565b60036020528060005260406000206000915090508060000160009054906101000a900460ff16908060000160019054906101000a900473ffffffffffffffffffffffffffffffffffffffff16908060010160009054906101000a900473ffffffffffffffffffffffffffffffffffffffff16908060020154908060030154908060040154908060050154908060060154908060070154908060080160009054906101000a900473ffffffffffffffffffffffffffffffffffffffff16908060080160149054906101000a900460ff1690508b565b6001602052826000526040600020602052816000526040600020818154811061082557600080fd5b9060005260206000200160009250925050505481565b600460009054906101000a900473ffffffffffffffffffffffffffffffffffffffff1681565b610869611ef0565b73ffffffffffffffffffffffffffffffffffffffff166108876110d0565b73ffffffffffffffffffffffffffffffffffffffff16146108dd576040517f08c379a00000000000000000000000000000000000000000000000000000000081526004016108d490612b54565b60405180910390fd5b600073ffffffffffffffffffffffffffffffffffffffff1660008054906101000a900473ffffffffffffffffffffffffffffffffffffffff1673ffffffffffffffffffffffffffffffffffffffff167f8be0079c531659141344cd1fd0a4f28419497f9722a3daafe3b4186f6b6457e060405160405180910390a360008060006101000a81548173ffffffffffffffffffffffffffffffffffffffff021916908373ffffffffffffffffffffffffffffffffffffffff160217905550565b60006003600083815260200190815260200160002090503373ffffffffffffffffffffffffffffffffffffffff168160000160019054906101000a900473ffffffffffffffffffffffffffffffffffffffff1673ffffffffffffffffffffffffffffffffffffffff1614610a44576040517f08c379a0000000000000000000000000000000000000000000000000000000008152600401610a3b90612bf4565b60405180910390fd5b6000816007015414610a8b576040517f08c379a0000000000000000000000000000000000000000000000000000000008152600401610a8290612af4565b60405180910390fd5b600015158160080160149054906101000a900460ff16151514610ae3576040517f08c379a0000000000000000000000000000000000000000000000000000000008152600401610ada90612c14565b60405180910390fd5b60008160010160009054906101000a900473ffffffffffffffffffffffffffffffffffffffff169050600082600201549050600083600601819055508173ffffffffffffffffffffffffffffffffffffffff166342842e0e3033846040518463ffffffff1660e01b8152600401610b5c939291906129a7565b600060405180830381600087803b158015610b7657600080fd5b505af1158015610b8a573d6000803e3d6000fd5b50505050838273ffffffffffffffffffffffffffffffffffffffff167f856ac238bc6f4bb0c966003f34f148bf0ef3b60f266e451474de23ff78196c8b8333604051610bd7929190612c8a565b60405180910390a350505050565b600460149054906101000a900461ffff1681565b610c096000858585600086611af8565b50505050565b610c17611ef0565b73ffffffffffffffffffffffffffffffffffffffff16610c356110d0565b73ffffffffffffffffffffffffffffffffffffffff1614610c8b576040517f08c379a0000000000000000000000000000000000000000000000000000000008152600401610c8290612b54565b60405180910390fd5b80600460006101000a81548173ffffffffffffffffffffffffffffffffffffffff021916908373ffffffffffffffffffffffffffffffffffffffff16021790555050565b6000600260008373ffffffffffffffffffffffffffffffffffffffff1673ffffffffffffffffffffffffffffffffffffffff168152602001908152602001600020805490509050919050565b60006003600083815260200190815260200160002090506000816006015490506000811415610d7f576040517f08c379a0000000000000000000000000000000000000000000000000000000008152600401610d7690612bb4565b60405180910390fd5b438111610dc1576040517f08c379a0000000000000000000000000000000000000000000000000000000008152600401610db890612c34565b60405180910390fd5b60028260000160009054906101000a900460ff1660ff1610610e18576040517f08c379a0000000000000000000000000000000000000000000000000000000008152600401610e0f90612b14565b60405180910390fd5b600015158260080160149054906101000a900460ff16151514610e70576040517f08c379a0000000000000000000000000000000000000000000000000000000008152600401610e6790612c14565b60405180910390fd5b6000610e7b846105e1565b905080341015610ec0576040517f08c379a0000000000000000000000000000000000000000000000000000000008152600401610eb790612ab4565b60405180910390fd5b60018360080160146101000a81548160ff0219169083151502179055506000612710600460149054906101000a900461ffff1661ffff1683610f029190612ede565b610f0c9190612ead565b9050610f478460000160019054906101000a900473ffffffffffffffffffffffffffffffffffffffff168284610f429190612f38565b611ef8565b610f73600460009054906101000a900473ffffffffffffffffffffffffffffffffffffffff1682611ef8565b81341115610f9157610f90338334610f8b9190612f38565b611ef8565b5b8360010160009054906101000a900473ffffffffffffffffffffffffffffffffffffffff1673ffffffffffffffffffffffffffffffffffffffff166342842e0e303387600201546040518463ffffffff1660e01b8152600401610ff6939291906129a7565b600060405180830381600087803b15801561101057600080fd5b505af1158015611024573d6000803e3d6000fd5b50505050848460010160009054906101000a900473ffffffffffffffffffffffffffffffffffffffff1673ffffffffffffffffffffffffffffffffffffffff167f37a6d1163573be2522695f96cbee3037bf297187c0378e8903ac1ae0192f699f86600201548760000160019054906101000a900473ffffffffffffffffffffffffffffffffffffffff1633876040516110c19493929190612cb3565b60405180910390a35050505050565b60008060009054906101000a900473ffffffffffffffffffffffffffffffffffffffff16905090565b600060036000838152602001908152602001600020905060008160060154905060008260070154905060008360080160009054906101000a900473ffffffffffffffffffffffffffffffffffffffff16905060028460000160009054906101000a900460ff1660ff16146111a2576040517f08c379a000000000000000000000000000000000000000000000000000000000815260040161119990612a14565b60405180910390fd5b60008314156111e6576040517f08c379a00000000000000000000000000000000000000000000000000000000081526004016111dd90612bb4565b60405180910390fd5b82431115611229576040517f08c379a000000000000000000000000000000000000000000000000000000000815260040161122090612c34565b60405180910390fd5b3373ffffffffffffffffffffffffffffffffffffffff168460000160019054906101000a900473ffffffffffffffffffffffffffffffffffffffff1673ffffffffffffffffffffffffffffffffffffffff1614156112bc576040517f08c379a00000000000000000000000000000000000000000000000000000000081526004016112b390612b34565b60405180910390fd5b60008214611323576014826112d19190612ead565b826112dc9190612e57565b34101561131e576040517f08c379a000000000000000000000000000000000000000000000000000000000815260040161131590612a94565b60405180910390fd5b611377565b836003015434101580156113375750600034115b611376576040517f08c379a000000000000000000000000000000000000000000000000000000000815260040161136d90612a94565b60405180910390fd5b5b6014836113849190612f38565b4311156113a1576014836113989190612e57565b84600601819055505b338460080160006101000a81548173ffffffffffffffffffffffffffffffffffffffff021916908373ffffffffffffffffffffffffffffffffffffffff16021790555034846007018190555060008214611400576113ff8183611ef8565b5b848460010160009054906101000a900473ffffffffffffffffffffffffffffffffffffffff1673ffffffffffffffffffffffffffffffffffffffff167f7f99059564a74b5d2e3fbf994dec403ab0af5688c9a4e86ca2a933688eaf223b8660020154333460405161147393929190612cf8565b60405180910390a35050505050565b61148a611ef0565b73ffffffffffffffffffffffffffffffffffffffff166114a86110d0565b73ffffffffffffffffffffffffffffffffffffffff16146114fe576040517f08c379a00000000000000000000000000000000000000000000000000000000081526004016114f590612b54565b60405180910390fd5b6127108161ffff161115611547576040517f08c379a000000000000000000000000000000000000000000000000000000000815260040161153e90612b74565b60405180910390fd5b80600460146101000a81548161ffff021916908361ffff16021790555050565b600060036000838152602001908152602001600020905060008160000160019054906101000a900473ffffffffffffffffffffffffffffffffffffffff16905060008260080160009054906101000a900473ffffffffffffffffffffffffffffffffffffffff169050600015158360080160149054906101000a900460ff16151514611628576040517f08c379a000000000000000000000000000000000000000000000000000000000815260040161161f90612c14565b60405180910390fd5b3373ffffffffffffffffffffffffffffffffffffffff168273ffffffffffffffffffffffffffffffffffffffff16148061168d57503373ffffffffffffffffffffffffffffffffffffffff168173ffffffffffffffffffffffffffffffffffffffff16145b6116cc576040517f08c379a00000000000000000000000000000000000000000000000000000000081526004016116c390612bf4565b60405180910390fd5b60028360000160009054906101000a900460ff1660ff1614611723576040517f08c379a000000000000000000000000000000000000000000000000000000000815260040161171a90612b94565b60405180910390fd5b82600601544311611769576040517f08c379a000000000000000000000000000000000000000000000000000000000815260040161176090612ad4565b60405180910390fd5b60008360010160009054906101000a900473ffffffffffffffffffffffffffffffffffffffff1690506000846002015490506000856007015490506000612710600460149054906101000a900461ffff1661ffff16836117c99190612ede565b6117d39190612ead565b905060018760080160146101000a81548160ff0219169083151502179055506118078682846118029190612f38565b611ef8565b611833600460009054906101000a900473ffffffffffffffffffffffffffffffffffffffff1682611ef8565b8373ffffffffffffffffffffffffffffffffffffffff166342842e0e3087866040518463ffffffff1660e01b8152600401611870939291906129a7565b600060405180830381600087803b15801561188a57600080fd5b505af115801561189e573d6000803e3d6000fd5b50505050878473ffffffffffffffffffffffffffffffffffffffff167f37a6d1163573be2522695f96cbee3037bf297187c0378e8903ac1ae0192f699f858989876040516118ef9493929190612cb3565b60405180910390a35050505050505050565b611909611ef0565b73ffffffffffffffffffffffffffffffffffffffff166119276110d0565b73ffffffffffffffffffffffffffffffffffffffff161461197d576040517f08c379a000000000000000000000000000000000000000000000000000000000815260040161197490612b54565b60405180910390fd5b600073ffffffffffffffffffffffffffffffffffffffff168173ffffffffffffffffffffffffffffffffffffffff1614156119ed576040517f08c379a00000000000000000000000000000000000000000000000000000000081526004016119e490612a54565b60405180910390fd5b8073ffffffffffffffffffffffffffffffffffffffff1660008054906101000a900473ffffffffffffffffffffffffffffffffffffffff1673ffffffffffffffffffffffffffffffffffffffff167f8be0079c531659141344cd1fd0a4f28419497f9722a3daafe3b4186f6b6457e060405160405180910390a3806000806101000a81548173ffffffffffffffffffffffffffffffffffffffff021916908373ffffffffffffffffffffffffffffffffffffffff16021790555050565b611aba6002858585600086611af8565b50505050565b600043848484604051602001611ad9949392919061293e565b6040516020818303038152906040528051906020012090509392505050565b438111611b3a576040517f08c379a0000000000000000000000000000000000000000000000000000000008152600401611b3190612a34565b60405180910390fd5b6000611b47868633611ac0565b90506040518061016001604052808860ff1681526020013373ffffffffffffffffffffffffffffffffffffffff1681526020018773ffffffffffffffffffffffffffffffffffffffff16815260200186815260200185815260200184815260200143815260200183815260200160008152602001600073ffffffffffffffffffffffffffffffffffffffff168152602001600015158152506003600083815260200190815260200160002060008201518160000160006101000a81548160ff021916908360ff16021790555060208201518160000160016101000a81548173ffffffffffffffffffffffffffffffffffffffff021916908373ffffffffffffffffffffffffffffffffffffffff16021790555060408201518160010160006101000a81548173ffffffffffffffffffffffffffffffffffffffff021916908373ffffffffffffffffffffffffffffffffffffffff160217905550606082015181600201556080820151816003015560a0820151816004015560c0820151816005015560e0820151816006015561010082015181600701556101208201518160080160006101000a81548173ffffffffffffffffffffffffffffffffffffffff021916908373ffffffffffffffffffffffffffffffffffffffff1602179055506101408201518160080160146101000a81548160ff021916908315150217905550905050600160008773ffffffffffffffffffffffffffffffffffffffff1673ffffffffffffffffffffffffffffffffffffffff1681526020019081526020016000206000868152602001908152602001600020819080600181540180825580915050600190039060005260206000200160009091909190915055600260003373ffffffffffffffffffffffffffffffffffffffff1673ffffffffffffffffffffffffffffffffffffffff1681526020019081526020016000208190806001815401808255809150506001900390600052602060002001600090919091909150558573ffffffffffffffffffffffffffffffffffffffff166342842e0e3330886040518463ffffffff1660e01b8152600401611e64939291906129a7565b600060405180830381600087803b158015611e7e57600080fd5b505af1158015611e92573d6000803e3d6000fd5b50505050808673ffffffffffffffffffffffffffffffffffffffff167f165b17602125a20b222f9736f06d776e39507d7dc60ddef32ccc23ea2f1b50e58733604051611edf929190612c8a565b60405180910390a350505050505050565b600033905090565b60008273ffffffffffffffffffffffffffffffffffffffff1682604051611f1e90612929565b60006040518083038185875af1925050503d8060008114611f5b576040519150601f19603f3d011682016040523d82523d6000602084013e611f60565b606091505b5050905080611fa4576040517f08c379a0000000000000000000000000000000000000000000000000000000008152600401611f9b90612a74565b60405180910390fd5b505050565b6000611fbc611fb784612e0b565b612dda565b905082815260208101848484011115611fd457600080fd5b611fdf84828561303b565b509392505050565b600081359050611ff681613112565b92915050565b60008135905061200b81613129565b92915050565b600082601f83011261202257600080fd5b8135612032848260208601611fa9565b91505092915050565b60008135905061204a81613140565b92915050565b60008135905061205f81613157565b92915050565b6000813590506120748161316e565b92915050565b60006020828403121561208c57600080fd5b600061209a84828501611fe7565b91505092915050565b600080600080608085870312156120b957600080fd5b60006120c787828801611fe7565b94505060206120d887828801611fe7565b93505060406120e987828801612065565b925050606085013567ffffffffffffffff81111561210657600080fd5b61211287828801612011565b91505092959194509250565b6000806040838503121561213157600080fd5b600061213f85828601611fe7565b925050602061215085828601612065565b9150509250929050565b60006020828403121561216c57600080fd5b600061217a84828501611ffc565b91505092915050565b6000806040838503121561219657600080fd5b60006121a48582860161203b565b92505060206121b585828601612065565b9150509250929050565b6000806000606084860312156121d457600080fd5b60006121e28682870161203b565b93505060206121f386828701612065565b925050604061220486828701611fe7565b9150509250925092565b60008060006060848603121561222357600080fd5b60006122318682870161203b565b935050602061224286828701612065565b925050604061225386828701612065565b9150509250925092565b6000806000806080858703121561227357600080fd5b60006122818782880161203b565b945050602061229287828801612065565b93505060406122a387828801612065565b92505060606122b487828801612065565b91505092959194509250565b600080600080600060a086880312156122d857600080fd5b60006122e68882890161203b565b95505060206122f788828901612065565b945050604061230888828901612065565b935050606061231988828901612065565b925050608061232a88828901612065565b9150509295509295909350565b60006020828403121561234957600080fd5b600061235784828501612050565b91505092915050565b61236981612f6c565b82525050565b61238061237b82612f6c565b61304a565b82525050565b61238f81612f7e565b82525050565b61239e81612f8a565b82525050565b6123ad81612f94565b82525050565b6123bc81613017565b82525050565b6123d36123ce82613017565b61304a565b82525050565b60006123e6601883612e46565b91507f6f6e6c7920666f7220456e676c6973682041756374696f6e00000000000000006000830152602082019050919050565b6000612426601f83612e46565b91507f4475726174696f6e206d757374206265206d6f7265207468616e207a65726f006000830152602082019050919050565b6000612466602683612e46565b91507f4f776e61626c653a206e6577206f776e657220697320746865207a65726f206160008301527f64647265737300000000000000000000000000000000000000000000000000006020830152604082019050919050565b60006124cc600f83612e46565b91507f5472616e73666572206661696c656400000000000000000000000000000000006000830152602082019050919050565b600061250c600d83612e46565b91507f6c6f7720707269636520626964000000000000000000000000000000000000006000830152602082019050919050565b600061254c600b83612e46565b91507f7072696365206572726f720000000000000000000000000000000000000000006000830152602082019050919050565b600061258c600783612e46565b91507f4e6f7420796574000000000000000000000000000000000000000000000000006000830152602082019050919050565b60006125cc600d83612e46565b91507f42696464696e67206578697374000000000000000000000000000000000000006000830152602082019050919050565b600061260c601683612e46565b91507f49742773206120456e676c6973682041756374696f6e000000000000000000006000830152602082019050919050565b600061264c601983612e46565b91507f43616e206e6f742062696420746f20796f7572206f72646572000000000000006000830152602082019050919050565b600061268c602083612e46565b91507f4f776e61626c653a2063616c6c6572206973206e6f7420746865206f776e65726000830152602082019050919050565b60006126cc601d83612e46565b91507f696e7075742076616c7565206973206d6f7265207468616e20313030250000006000830152602082019050919050565b600061270c602483612e46565b91507f546869732066756e6374696f6e20697320666f7220456e676c6973682041756360008301527f74696f6e000000000000000000000000000000000000000000000000000000006020830152604082019050919050565b6000612772600e83612e46565b91507f43616e63656c6564206f726465720000000000000000000000000000000000006000830152602082019050919050565b60006127b2602a83612e46565b91507f456e642070726963652073686f756c64206265206c6f776572207468616e207360008301527f74617274207072696365000000000000000000000000000000000000000000006020830152604082019050919050565b6000612818600083612e3b565b9150600082019050919050565b6000612832600d83612e46565b91507f4163636573732064656e696564000000000000000000000000000000000000006000830152602082019050919050565b6000612872600c83612e46565b91507f416c726561647920736f6c6400000000000000000000000000000000000000006000830152602082019050919050565b60006128b2600983612e46565b91507f49742773206f76657200000000000000000000000000000000000000000000006000830152602082019050919050565b6128ee81612fd2565b82525050565b6128fd81613000565b82525050565b61291461290f82613000565b61306e565b82525050565b6129238161300a565b82525050565b60006129348261280b565b9150819050919050565b600061294a8287612903565b60208201915061295a82866123c2565b60148201915061296a8285612903565b60208201915061297a828461236f565b60148201915081905095945050505050565b60006020820190506129a16000830184612360565b92915050565b60006060820190506129bc6000830186612360565b6129c96020830185612360565b6129d660408301846128f4565b949350505050565b60006020820190506129f36000830184612395565b92915050565b6000602082019050612a0e60008301846123a4565b92915050565b60006020820190508181036000830152612a2d816123d9565b9050919050565b60006020820190508181036000830152612a4d81612419565b9050919050565b60006020820190508181036000830152612a6d81612459565b9050919050565b60006020820190508181036000830152612a8d816124bf565b9050919050565b60006020820190508181036000830152612aad816124ff565b9050919050565b60006020820190508181036000830152612acd8161253f565b9050919050565b60006020820190508181036000830152612aed8161257f565b9050919050565b60006020820190508181036000830152612b0d816125bf565b9050919050565b60006020820190508181036000830152612b2d816125ff565b9050919050565b60006020820190508181036000830152612b4d8161263f565b9050919050565b60006020820190508181036000830152612b6d8161267f565b9050919050565b60006020820190508181036000830152612b8d816126bf565b9050919050565b60006020820190508181036000830152612bad816126ff565b9050919050565b60006020820190508181036000830152612bcd81612765565b9050919050565b60006020820190508181036000830152612bed816127a5565b9050919050565b60006020820190508181036000830152612c0d81612825565b9050919050565b60006020820190508181036000830152612c2d81612865565b9050919050565b60006020820190508181036000830152612c4d816128a5565b9050919050565b6000602082019050612c6960008301846128e5565b92915050565b6000602082019050612c8460008301846128f4565b92915050565b6000604082019050612c9f60008301856128f4565b612cac6020830184612360565b9392505050565b6000608082019050612cc860008301876128f4565b612cd56020830186612360565b612ce26040830185612360565b612cef60608301846128f4565b95945050505050565b6000606082019050612d0d60008301866128f4565b612d1a6020830185612360565b612d2760408301846128f4565b949350505050565b600061016082019050612d45600083018e61291a565b612d52602083018d612360565b612d5f604083018c6123b3565b612d6c606083018b6128f4565b612d79608083018a6128f4565b612d8660a08301896128f4565b612d9360c08301886128f4565b612da060e08301876128f4565b612dae6101008301866128f4565b612dbc610120830185612360565b612dca610140830184612386565b9c9b505050505050505050505050565b6000604051905081810181811067ffffffffffffffff82111715612e0157612e006130d6565b5b8060405250919050565b600067ffffffffffffffff821115612e2657612e256130d6565b5b601f19601f8301169050602081019050919050565b600081905092915050565b600082825260208201905092915050565b6000612e6282613000565b9150612e6d83613000565b9250827fffffffffffffffffffffffffffffffffffffffffffffffffffffffffffffffff03821115612ea257612ea1613078565b5b828201905092915050565b6000612eb882613000565b9150612ec383613000565b925082612ed357612ed26130a7565b5b828204905092915050565b6000612ee982613000565b9150612ef483613000565b9250817fffffffffffffffffffffffffffffffffffffffffffffffffffffffffffffffff0483118215151615612f2d57612f2c613078565b5b828202905092915050565b6000612f4382613000565b9150612f4e83613000565b925082821015612f6157612f60613078565b5b828203905092915050565b6000612f7782612fe0565b9050919050565b60008115159050919050565b6000819050919050565b60007fffffffff0000000000000000000000000000000000000000000000000000000082169050919050565b6000612fcb82612f6c565b9050919050565b600061ffff82169050919050565b600073ffffffffffffffffffffffffffffffffffffffff82169050919050565b6000819050919050565b600060ff82169050919050565b600061302282613029565b9050919050565b600061303482612fe0565b9050919050565b82818337600083830152505050565b60006130558261305c565b9050919050565b600061306782613105565b9050919050565b6000819050919050565b7f4e487b7100000000000000000000000000000000000000000000000000000000600052601160045260246000fd5b7f4e487b7100000000000000000000000000000000000000000000000000000000600052601260045260246000fd5b7f4e487b7100000000000000000000000000000000000000000000000000000000600052604160045260246000fd5b60008160601b9050919050565b61311b81612f6c565b811461312657600080fd5b50565b61313281612f8a565b811461313d57600080fd5b50565b61314981612fc0565b811461315457600080fd5b50565b61316081612fd2565b811461316b57600080fd5b50565b61317781613000565b811461318257600080fd5b5056fea2646970667358221220818f382fbbe9295c7130bc602d6317db73afa58c36aa30c4a4ad0f4862b198b464736f6c63430008000033",
  "linkReferences": {},
  "deployedLinkReferences": {}
}