{
  "_format": "hh-sol-artifact-1",
  "contractName": "NFTEX",
  "sourceName": "contracts/NFTEX.sol",
  "abi": [
    {
      "inputs": [
        {
          "internalType": "uint16",
          "name": "_feePercent",
          "type": "uint16"
        }
      ],
      "stateMutability": "nonpayable",
      "type": "constructor"
    },
    {
      "anonymous": false,
      "inputs": [
        {
          "indexed": true,
          "internalType": "contract IERC721",
          "name": "token",
          "type": "address"
        },
        {
          "indexed": false,
          "internalType": "uint256",
          "name": "id",
          "type": "uint256"
        },
        {
          "indexed": true,
          "internalType": "bytes32",
          "name": "hash",
          "type": "bytes32"
        },
        {
          "indexed": false,
          "internalType": "address",
          "name": "bidder",
          "type": "address"
        },
        {
          "indexed": false,
          "internalType": "uint256",
          "name": "bidPrice",
          "type": "uint256"
        }
      ],
      "name": "Bid",
      "type": "event"
    },
    {
      "anonymous": false,
      "inputs": [
        {
          "indexed": true,
          "internalType": "contract IERC721",
          "name": "token",
          "type": "address"
        },
        {
          "indexed": false,
          "internalType": "uint256",
          "name": "id",
          "type": "uint256"
        },
        {
          "indexed": true,
          "internalType": "bytes32",
          "name": "hash",
          "type": "bytes32"
        },
        {
          "indexed": false,
          "internalType": "address",
          "name": "seller",
          "type": "address"
        }
      ],
      "name": "CancelOrder",
      "type": "event"
    },
    {
      "anonymous": false,
      "inputs": [
        {
          "indexed": true,
          "internalType": "contract IERC721",
          "name": "token",
          "type": "address"
        },
        {
          "indexed": false,
          "internalType": "uint256",
          "name": "id",
          "type": "uint256"
        },
        {
          "indexed": true,
          "internalType": "bytes32",
          "name": "hash",
          "type": "bytes32"
        },
        {
          "indexed": false,
          "internalType": "address",
          "name": "seller",
          "type": "address"
        },
        {
          "indexed": false,
          "internalType": "address",
          "name": "taker",
          "type": "address"
        },
        {
          "indexed": false,
          "internalType": "uint256",
          "name": "price",
          "type": "uint256"
        }
      ],
      "name": "Claim",
      "type": "event"
    },
    {
      "anonymous": false,
      "inputs": [
        {
          "indexed": true,
          "internalType": "contract IERC721",
          "name": "token",
          "type": "address"
        },
        {
          "indexed": false,
          "internalType": "uint256",
          "name": "id",
          "type": "uint256"
        },
        {
          "indexed": true,
          "internalType": "bytes32",
          "name": "hash",
          "type": "bytes32"
        },
        {
          "indexed": false,
          "internalType": "address",
          "name": "seller",
          "type": "address"
        }
      ],
      "name": "MakeOrder",
      "type": "event"
    },
    {
      "anonymous": false,
      "inputs": [
        {
          "indexed": true,
          "internalType": "address",
          "name": "previousOwner",
          "type": "address"
        },
        {
          "indexed": true,
          "internalType": "address",
          "name": "newOwner",
          "type": "address"
        }
      ],
      "name": "OwnershipTransferred",
      "type": "event"
    },
    {
      "inputs": [
        {
          "internalType": "bytes32",
          "name": "_order",
          "type": "bytes32"
        }
      ],
      "name": "bid",
      "outputs": [],
      "stateMutability": "payable",
      "type": "function"
    },
    {
      "inputs": [
        {
          "internalType": "bytes32",
          "name": "_order",
          "type": "bytes32"
        }
      ],
      "name": "buyItNow",
      "outputs": [],
      "stateMutability": "payable",
      "type": "function"
    },
    {
      "inputs": [
        {
          "internalType": "bytes32",
          "name": "_order",
          "type": "bytes32"
        }
      ],
      "name": "cancelOrder",
      "outputs": [],
      "stateMutability": "nonpayable",
      "type": "function"
    },
    {
      "inputs": [
        {
          "internalType": "bytes32",
          "name": "_order",
          "type": "bytes32"
        }
      ],
      "name": "claim",
      "outputs": [],
      "stateMutability": "nonpayable",
      "type": "function"
    },
    {
      "inputs": [
        {
          "internalType": "contract IERC721",
          "name": "_token",
          "type": "address"
        },
        {
          "internalType": "uint256",
          "name": "_id",
          "type": "uint256"
        },
        {
          "internalType": "uint256",
          "name": "_startPrice",
          "type": "uint256"
        },
        {
          "internalType": "uint256",
          "name": "_endPrice",
          "type": "uint256"
        },
        {
          "internalType": "uint256",
          "name": "_endBlock",
          "type": "uint256"
        }
      ],
      "name": "dutchAuction",
      "outputs": [],
      "stateMutability": "nonpayable",
      "type": "function"
    },
    {
      "inputs": [
        {
          "internalType": "contract IERC721",
          "name": "_token",
          "type": "address"
        },
        {
          "internalType": "uint256",
          "name": "_id",
          "type": "uint256"
        },
        {
          "internalType": "uint256",
          "name": "_startPrice",
          "type": "uint256"
        },
        {
          "internalType": "uint256",
          "name": "_endBlock",
          "type": "uint256"
        }
      ],
      "name": "englishAuction",
      "outputs": [],
      "stateMutability": "nonpayable",
      "type": "function"
    },
    {
      "inputs": [],
      "name": "feeAddress",
      "outputs": [
        {
          "internalType": "address",
          "name": "",
          "type": "address"
        }
      ],
      "stateMutability": "view",
      "type": "function"
    },
    {
      "inputs": [],
      "name": "feePercent",
      "outputs": [
        {
          "internalType": "uint16",
          "name": "",
          "type": "uint16"
        }
      ],
      "stateMutability": "view",
      "type": "function"
    },
    {
      "inputs": [
        {
          "internalType": "contract IERC721",
          "name": "_token",
          "type": "address"
        },
        {
          "internalType": "uint256",
          "name": "_id",
          "type": "uint256"
        },
        {
          "internalType": "uint256",
          "name": "_price",
          "type": "uint256"
        },
        {
          "internalType": "uint256",
          "name": "_endBlock",
          "type": "uint256"
        }
      ],
      "name": "fixedPrice",
      "outputs": [],
      "stateMutability": "nonpayable",
      "type": "function"
    },
    {
      "inputs": [
        {
          "internalType": "bytes32",
          "name": "_order",
          "type": "bytes32"
        }
      ],
      "name": "getCurrentPrice",
      "outputs": [
        {
          "internalType": "uint256",
          "name": "",
          "type": "uint256"
        }
      ],
      "stateMutability": "view",
      "type": "function"
    },
    {
      "inputs": [
        {
          "internalType": "address",
          "name": "",
          "type": "address"
        },
        {
          "internalType": "address",
          "name": "",
          "type": "address"
        },
        {
          "internalType": "uint256",
          "name": "",
          "type": "uint256"
        },
        {
          "internalType": "bytes",
          "name": "",
          "type": "bytes"
        }
      ],
      "name": "onERC721Received",
      "outputs": [
        {
          "internalType": "bytes4",
          "name": "",
          "type": "bytes4"
        }
      ],
      "stateMutability": "nonpayable",
      "type": "function"
    },
    {
      "inputs": [
        {
          "internalType": "address",
          "name": "",
          "type": "address"
        },
        {
          "internalType": "uint256",
          "name": "",
          "type": "uint256"
        }
      ],
      "name": "orderIdBySeller",
      "outputs": [
        {
          "internalType": "bytes32",
          "name": "",
          "type": "bytes32"
        }
      ],
      "stateMutability": "view",
      "type": "function"
    },
    {
      "inputs": [
        {
          "internalType": "contract IERC721",
          "name": "",
          "type": "address"
        },
        {
          "internalType": "uint256",
          "name": "",
          "type": "uint256"
        },
        {
          "internalType": "uint256",
          "name": "",
          "type": "uint256"
        }
      ],
      "name": "orderIdByToken",
      "outputs": [
        {
          "internalType": "bytes32",
          "name": "",
          "type": "bytes32"
        }
      ],
      "stateMutability": "view",
      "type": "function"
    },
    {
      "inputs": [
        {
          "internalType": "bytes32",
          "name": "",
          "type": "bytes32"
        }
      ],
      "name": "orderInfo",
      "outputs": [
        {
          "internalType": "uint8",
          "name": "orderType",
          "type": "uint8"
        },
        {
          "internalType": "address",
          "name": "seller",
          "type": "address"
        },
        {
          "internalType": "contract IERC721",
          "name": "token",
          "type": "address"
        },
        {
          "internalType": "uint256",
          "name": "tokenId",
          "type": "uint256"
        },
        {
          "internalType": "uint256",
          "name": "startPrice",
          "type": "uint256"
        },
        {
          "internalType": "uint256",
          "name": "endPrice",
          "type": "uint256"
        },
        {
          "internalType": "uint256",
          "name": "startBlock",
          "type": "uint256"
        },
        {
          "internalType": "uint256",
          "name": "endBlock",
          "type": "uint256"
        },
        {
          "internalType": "uint256",
          "name": "lastBidPrice",
          "type": "uint256"
        },
        {
          "internalType": "address",
          "name": "lastBidder",
          "type": "address"
        },
        {
          "internalType": "bool",
          "name": "isSold",
          "type": "bool"
        }
      ],
      "stateMutability": "view",
      "type": "function"
    },
    {
      "inputs": [],
      "name": "owner",
      "outputs": [
        {
          "internalType": "address",
          "name": "",
          "type": "address"
        }
      ],
      "stateMutability": "view",
      "type": "function"
    },
    {
      "inputs": [],
      "name": "renounceOwnership",
      "outputs": [],
      "stateMutability": "nonpayable",
      "type": "function"
    },
    {
      "inputs": [
        {
          "internalType": "address",
          "name": "_seller",
          "type": "address"
        }
      ],
      "name": "sellerOrderLength",
      "outputs": [
        {
          "internalType": "uint256",
          "name": "",
          "type": "uint256"
        }
      ],
      "stateMutability": "view",
      "type": "function"
    },
    {
      "inputs": [
        {
          "internalType": "address",
          "name": "_feeAddress",
          "type": "address"
        }
      ],
      "name": "setFeeAddress",
      "outputs": [],
      "stateMutability": "nonpayable",
      "type": "function"
    },
    {
      "inputs": [
        {
          "internalType": "contract IERC721",
          "name": "_token",
          "type": "address"
        },
        {
          "internalType": "uint256",
          "name": "_id",
          "type": "uint256"
        }
      ],
      "name": "tokenOrderLength",
      "outputs": [
        {
          "internalType": "uint256",
          "name": "",
          "type": "uint256"
        }
      ],
      "stateMutability": "view",
      "type": "function"
    },
    {
      "inputs": [
        {
          "internalType": "address",
          "name": "newOwner",
          "type": "address"
        }
      ],
      "name": "transferOwnership",
      "outputs": [],
      "stateMutability": "nonpayable",
      "type": "function"
    },
    {
      "inputs": [
        {
          "internalType": "uint16",
          "name": "_percent",
          "type": "uint16"
        }
      ],
      "name": "updateFeePercent",
      "outputs": [],
      "stateMutability": "nonpayable",
      "type": "function"
    }
  ],
  "bytecode": "0x60806040523480156200001157600080fd5b5060405162003482380380620034828339818101604052810190620000379190620001b7565b6000620000496200019860201b60201c565b9050806000806101000a81548173ffffffffffffffffffffffffffffffffffffffff021916908373ffffffffffffffffffffffffffffffffffffffff1602179055508073ffffffffffffffffffffffffffffffffffffffff16600073ffffffffffffffffffffffffffffffffffffffff167f8be0079c531659141344cd1fd0a4f28419497f9722a3daafe3b4186f6b6457e060405160405180910390a3506127108161ffff16111562000133576040517f08c379a00000000000000000000000000000000000000000000000000000000081526004016200012a906200020a565b60405180910390fd5b33600460006101000a81548173ffffffffffffffffffffffffffffffffffffffff021916908373ffffffffffffffffffffffffffffffffffffffff16021790555080600460146101000a81548161ffff021916908361ffff160217905550506200028e565b600033905090565b600081519050620001b18162000274565b92915050565b600060208284031215620001ca57600080fd5b6000620001da84828501620001a0565b91505092915050565b6000620001f2601d836200022c565b9150620001ff826200024b565b602082019050919050565b600060208201905081810360008301526200022581620001e3565b9050919050565b600082825260208201905092915050565b600061ffff82169050919050565b7f696e7075742076616c7565206973206d6f7265207468616e2031303025000000600082015250565b6200027f816200023d565b81146200028b57600080fd5b50565b6131e4806200029e6000396000f3fe60806040526004361061012a5760003560e01c80637fd6f15c116100ab5780638da5cb5b1161006f5780638da5cb5b14610411578063957bb1e01461043c578063a04a86bd14610458578063bd66528a14610481578063f2fde38b146104aa578063f4dae74c146104d35761012a565b80637fd6f15c1461033b5780638035eb5c146103665780638705fcd41461038f5780638aae982a146103b85780638ba39adb146103f55761012a565b8063238e203f116100f2578063238e203f1461024c578063275e086c1461029357806341275358146102d0578063715018a6146102fb5780637489ec23146103125761012a565b806308745c981461012f578063093dff7d1461016c578063150b7a0214610195578063161e444e146101d257806319daa1081461020f575b600080fd5b34801561013b57600080fd5b506101566004803603810190610151919061212d565b6104fc565b60405161016391906126d0565b60405180910390f35b34801561017857600080fd5b50610193600480360381019061018e9190612280565b61052d565b005b3480156101a157600080fd5b506101bc60048036038101906101b791906120b2565b610585565b6040516101c991906126eb565b60405180910390f35b3480156101de57600080fd5b506101f960048036038101906101f49190612169565b610599565b6040516102069190612941565b60405180910390f35b34801561021b57600080fd5b5061023660048036038101906102319190612192565b610683565b6040516102439190612941565b60405180910390f35b34801561025857600080fd5b50610273600480360381019061026e9190612169565b6106e1565b60405161028a9b9a99989796959493929190612a01565b60405180910390f35b34801561029f57600080fd5b506102ba60048036038101906102b591906121ce565b6107b5565b6040516102c791906126d0565b60405180910390f35b3480156102dc57600080fd5b506102e56107f3565b6040516102f2919061267e565b60405180910390f35b34801561030757600080fd5b50610310610819565b005b34801561031e57600080fd5b5061033960048036038101906103349190612169565b610953565b005b34801561034757600080fd5b50610350610b9d565b60405161035d9190612926565b60405180910390f35b34801561037257600080fd5b5061038d6004803603810190610388919061221d565b610bb1565b005b34801561039b57600080fd5b506103b660048036038101906103b19190612089565b610bc7565b005b3480156103c457600080fd5b506103df60048036038101906103da9190612089565b610c87565b6040516103ec9190612941565b60405180910390f35b61040f600480360381019061040a9190612169565b610cd3565b005b34801561041d57600080fd5b5061042661110c565b604051610433919061267e565b60405180910390f35b61045660048036038101906104519190612169565b611135565b005b34801561046457600080fd5b5061047f600480360381019061047a91906122f7565b6114ea565b005b34801561048d57600080fd5b506104a860048036038101906104a39190612169565b6115cf565b005b3480156104b657600080fd5b506104d160048036038101906104cc9190612089565b6119c1565b005b3480156104df57600080fd5b506104fa60048036038101906104f5919061221d565b611b6a565b005b6002602052816000526040600020818154811061051857600080fd5b90600052602060002001600091509150505481565b81831161056f576040517f08c379a0000000000000000000000000000000000000000000000000000000008152600401610566906128a6565b60405180910390fd5b61057e60018686868686611b80565b5050505050565b600063150b7a0260e01b9050949350505050565b60008060036000848152602001908152602001600020905060008160000160009054906101000a900460ff16905060008160ff1614156105e15781600301549250505061067e565b60028160ff1614156106145760008260070154905060008114610604578061060a565b82600301545b935050505061067e565b60008260030154905060008360050154905060008185600601546106389190612bf4565b8560040154846106489190612bf4565b6106529190612b69565b90508082436106619190612bf4565b61066b9190612b9a565b836106769190612bf4565b955050505050505b919050565b6000600160008473ffffffffffffffffffffffffffffffffffffffff1673ffffffffffffffffffffffffffffffffffffffff168152602001908152602001600020600083815260200190815260200160002080549050905092915050565b60036020528060005260406000206000915090508060000160009054906101000a900460ff16908060000160019054906101000a900473ffffffffffffffffffffffffffffffffffffffff16908060010160009054906101000a900473ffffffffffffffffffffffffffffffffffffffff16908060020154908060030154908060040154908060050154908060060154908060070154908060080160009054906101000a900473ffffffffffffffffffffffffffffffffffffffff16908060080160149054906101000a900460ff1690508b565b600160205282600052604060002060205281600052604060002081815481106107dd57600080fd5b9060005260206000200160009250925050505481565b600460009054906101000a900473ffffffffffffffffffffffffffffffffffffffff1681565b610821611f78565b73ffffffffffffffffffffffffffffffffffffffff1661083f61110c565b73ffffffffffffffffffffffffffffffffffffffff1614610895576040517f08c379a000000000000000000000000000000000000000000000000000000000815260040161088c90612826565b60405180910390fd5b600073ffffffffffffffffffffffffffffffffffffffff1660008054906101000a900473ffffffffffffffffffffffffffffffffffffffff1673ffffffffffffffffffffffffffffffffffffffff167f8be0079c531659141344cd1fd0a4f28419497f9722a3daafe3b4186f6b6457e060405160405180910390a360008060006101000a81548173ffffffffffffffffffffffffffffffffffffffff021916908373ffffffffffffffffffffffffffffffffffffffff160217905550565b60006003600083815260200190815260200160002090503373ffffffffffffffffffffffffffffffffffffffff168160000160019054906101000a900473ffffffffffffffffffffffffffffffffffffffff1673ffffffffffffffffffffffffffffffffffffffff16146109fc576040517f08c379a00000000000000000000000000000000000000000000000000000000081526004016109f3906128c6565b60405180910390fd5b6000816007015414610a43576040517f08c379a0000000000000000000000000000000000000000000000000000000008152600401610a3a906127c6565b60405180910390fd5b600015158160080160149054906101000a900460ff16151514610a9b576040517f08c379a0000000000000000000000000000000000000000000000000000000008152600401610a92906128e6565b60405180910390fd5b60008160010160009054906101000a900473ffffffffffffffffffffffffffffffffffffffff169050600082600201549050600083600601819055508173ffffffffffffffffffffffffffffffffffffffff166342842e0e3033846040518463ffffffff1660e01b8152600401610b1493929190612699565b600060405180830381600087803b158015610b2e57600080fd5b505af1158015610b42573d6000803e3d6000fd5b50505050838273ffffffffffffffffffffffffffffffffffffffff167f856ac238bc6f4bb0c966003f34f148bf0ef3b60f266e451474de23ff78196c8b8333604051610b8f92919061295c565b60405180910390a350505050565b600460149054906101000a900461ffff1681565b610bc16000858585600086611b80565b50505050565b610bcf611f78565b73ffffffffffffffffffffffffffffffffffffffff16610bed61110c565b73ffffffffffffffffffffffffffffffffffffffff1614610c43576040517f08c379a0000000000000000000000000000000000000000000000000000000008152600401610c3a90612826565b60405180910390fd5b80600460006101000a81548173ffffffffffffffffffffffffffffffffffffffff021916908373ffffffffffffffffffffffffffffffffffffffff16021790555050565b6000600260008373ffffffffffffffffffffffffffffffffffffffff1673ffffffffffffffffffffffffffffffffffffffff168152602001908152602001600020805490509050919050565b60006003600083815260200190815260200160002090506000816006015490506000811415610d37576040517f08c379a0000000000000000000000000000000000000000000000000000000008152600401610d2e90612886565b60405180910390fd5b438111610d79576040517f08c379a0000000000000000000000000000000000000000000000000000000008152600401610d7090612906565b60405180910390fd5b60028260000160009054906101000a900460ff1660ff1610610dd0576040517f08c379a0000000000000000000000000000000000000000000000000000000008152600401610dc7906127e6565b60405180910390fd5b600015158260080160149054906101000a900460ff16151514610e28576040517f08c379a0000000000000000000000000000000000000000000000000000000008152600401610e1f906128e6565b60405180910390fd5b6000610e3384610599565b905080341015610e78576040517f08c379a0000000000000000000000000000000000000000000000000000000008152600401610e6f90612786565b60405180910390fd5b60018360080160146101000a81548160ff0219169083151502179055506000612710600460149054906101000a900461ffff1661ffff1683610eba9190612b9a565b610ec49190612b69565b90508360000160019054906101000a900473ffffffffffffffffffffffffffffffffffffffff1673ffffffffffffffffffffffffffffffffffffffff166108fc8284610f109190612bf4565b9081150290604051600060405180830381858888f1935050505050600460009054906101000a900473ffffffffffffffffffffffffffffffffffffffff1673ffffffffffffffffffffffffffffffffffffffff166108fc829081150290604051600060405180830381858888f193505050505081341115610fcd573373ffffffffffffffffffffffffffffffffffffffff166108fc8334610fb19190612bf4565b9081150290604051600060405180830381858888f19350505050505b8360010160009054906101000a900473ffffffffffffffffffffffffffffffffffffffff1673ffffffffffffffffffffffffffffffffffffffff166342842e0e303387600201546040518463ffffffff1660e01b815260040161103293929190612699565b600060405180830381600087803b15801561104c57600080fd5b505af1158015611060573d6000803e3d6000fd5b50505050848460010160009054906101000a900473ffffffffffffffffffffffffffffffffffffffff1673ffffffffffffffffffffffffffffffffffffffff167f37a6d1163573be2522695f96cbee3037bf297187c0378e8903ac1ae0192f699f86600201548760000160019054906101000a900473ffffffffffffffffffffffffffffffffffffffff1633876040516110fd9493929190612985565b60405180910390a35050505050565b60008060009054906101000a900473ffffffffffffffffffffffffffffffffffffffff16905090565b600060036000838152602001908152602001600020905060008160060154905060008260070154905060008360080160009054906101000a900473ffffffffffffffffffffffffffffffffffffffff16905060028460000160009054906101000a900460ff1660ff16146111de576040517f08c379a00000000000000000000000000000000000000000000000000000000081526004016111d590612706565b60405180910390fd5b6000831415611222576040517f08c379a000000000000000000000000000000000000000000000000000000000815260040161121990612886565b60405180910390fd5b82431115611265576040517f08c379a000000000000000000000000000000000000000000000000000000000815260040161125c90612906565b60405180910390fd5b3373ffffffffffffffffffffffffffffffffffffffff168460000160019054906101000a900473ffffffffffffffffffffffffffffffffffffffff1673ffffffffffffffffffffffffffffffffffffffff1614156112f8576040517f08c379a00000000000000000000000000000000000000000000000000000000081526004016112ef90612806565b60405180910390fd5b6000821461135f5760148261130d9190612b69565b826113189190612b13565b34101561135a576040517f08c379a000000000000000000000000000000000000000000000000000000000815260040161135190612766565b60405180910390fd5b6113b3565b836003015434101580156113735750600034115b6113b2576040517f08c379a00000000000000000000000000000000000000000000000000000000081526004016113a990612766565b60405180910390fd5b5b6014836113c09190612bf4565b4311156113dd576014836113d49190612b13565b84600601819055505b338460080160006101000a81548173ffffffffffffffffffffffffffffffffffffffff021916908373ffffffffffffffffffffffffffffffffffffffff16021790555034846007018190555060008214611468578073ffffffffffffffffffffffffffffffffffffffff166108fc839081150290604051600060405180830381858888f19350505050505b848460010160009054906101000a900473ffffffffffffffffffffffffffffffffffffffff1673ffffffffffffffffffffffffffffffffffffffff167f7f99059564a74b5d2e3fbf994dec403ab0af5688c9a4e86ca2a933688eaf223b866002015433346040516114db939291906129ca565b60405180910390a35050505050565b6114f2611f78565b73ffffffffffffffffffffffffffffffffffffffff1661151061110c565b73ffffffffffffffffffffffffffffffffffffffff1614611566576040517f08c379a000000000000000000000000000000000000000000000000000000000815260040161155d90612826565b60405180910390fd5b6127108161ffff1611156115af576040517f08c379a00000000000000000000000000000000000000000000000000000000081526004016115a690612846565b60405180910390fd5b80600460146101000a81548161ffff021916908361ffff16021790555050565b600060036000838152602001908152602001600020905060008160000160019054906101000a900473ffffffffffffffffffffffffffffffffffffffff16905060008260080160009054906101000a900473ffffffffffffffffffffffffffffffffffffffff169050600015158360080160149054906101000a900460ff16151514611690576040517f08c379a0000000000000000000000000000000000000000000000000000000008152600401611687906128e6565b60405180910390fd5b3373ffffffffffffffffffffffffffffffffffffffff168273ffffffffffffffffffffffffffffffffffffffff1614806116f557503373ffffffffffffffffffffffffffffffffffffffff168173ffffffffffffffffffffffffffffffffffffffff16145b611734576040517f08c379a000000000000000000000000000000000000000000000000000000000815260040161172b906128c6565b60405180910390fd5b60028360000160009054906101000a900460ff1660ff161461178b576040517f08c379a000000000000000000000000000000000000000000000000000000000815260040161178290612866565b60405180910390fd5b826006015443116117d1576040517f08c379a00000000000000000000000000000000000000000000000000000000081526004016117c8906127a6565b60405180910390fd5b60008360010160009054906101000a900473ffffffffffffffffffffffffffffffffffffffff1690506000846002015490506000856007015490506000612710600460149054906101000a900461ffff1661ffff16836118319190612b9a565b61183b9190612b69565b905060018760080160146101000a81548160ff0219169083151502179055508573ffffffffffffffffffffffffffffffffffffffff166108fc82846118809190612bf4565b9081150290604051600060405180830381858888f1935050505050600460009054906101000a900473ffffffffffffffffffffffffffffffffffffffff1673ffffffffffffffffffffffffffffffffffffffff166108fc829081150290604051600060405180830381858888f19350505050508373ffffffffffffffffffffffffffffffffffffffff166342842e0e3087866040518463ffffffff1660e01b815260040161193093929190612699565b600060405180830381600087803b15801561194a57600080fd5b505af115801561195e573d6000803e3d6000fd5b50505050878473ffffffffffffffffffffffffffffffffffffffff167f37a6d1163573be2522695f96cbee3037bf297187c0378e8903ac1ae0192f699f858989876040516119af9493929190612985565b60405180910390a35050505050505050565b6119c9611f78565b73ffffffffffffffffffffffffffffffffffffffff166119e761110c565b73ffffffffffffffffffffffffffffffffffffffff1614611a3d576040517f08c379a0000000000000000000000000000000000000000000000000000000008152600401611a3490612826565b60405180910390fd5b600073ffffffffffffffffffffffffffffffffffffffff168173ffffffffffffffffffffffffffffffffffffffff161415611aad576040517f08c379a0000000000000000000000000000000000000000000000000000000008152600401611aa490612746565b60405180910390fd5b8073ffffffffffffffffffffffffffffffffffffffff1660008054906101000a900473ffffffffffffffffffffffffffffffffffffffff1673ffffffffffffffffffffffffffffffffffffffff167f8be0079c531659141344cd1fd0a4f28419497f9722a3daafe3b4186f6b6457e060405160405180910390a3806000806101000a81548173ffffffffffffffffffffffffffffffffffffffff021916908373ffffffffffffffffffffffffffffffffffffffff16021790555050565b611b7a6002858585600086611b80565b50505050565b438111611bc2576040517f08c379a0000000000000000000000000000000000000000000000000000000008152600401611bb990612726565b60405180910390fd5b6000611bcf868633611f80565b90506040518061016001604052808860ff1681526020013373ffffffffffffffffffffffffffffffffffffffff1681526020018773ffffffffffffffffffffffffffffffffffffffff16815260200186815260200185815260200184815260200143815260200183815260200160008152602001600073ffffffffffffffffffffffffffffffffffffffff168152602001600015158152506003600083815260200190815260200160002060008201518160000160006101000a81548160ff021916908360ff16021790555060208201518160000160016101000a81548173ffffffffffffffffffffffffffffffffffffffff021916908373ffffffffffffffffffffffffffffffffffffffff16021790555060408201518160010160006101000a81548173ffffffffffffffffffffffffffffffffffffffff021916908373ffffffffffffffffffffffffffffffffffffffff160217905550606082015181600201556080820151816003015560a0820151816004015560c0820151816005015560e0820151816006015561010082015181600701556101208201518160080160006101000a81548173ffffffffffffffffffffffffffffffffffffffff021916908373ffffffffffffffffffffffffffffffffffffffff1602179055506101408201518160080160146101000a81548160ff021916908315150217905550905050600160008773ffffffffffffffffffffffffffffffffffffffff1673ffffffffffffffffffffffffffffffffffffffff1681526020019081526020016000206000868152602001908152602001600020819080600181540180825580915050600190039060005260206000200160009091909190915055600260003373ffffffffffffffffffffffffffffffffffffffff1673ffffffffffffffffffffffffffffffffffffffff1681526020019081526020016000208190806001815401808255809150506001900390600052602060002001600090919091909150558573ffffffffffffffffffffffffffffffffffffffff166342842e0e3330886040518463ffffffff1660e01b8152600401611eec93929190612699565b600060405180830381600087803b158015611f0657600080fd5b505af1158015611f1a573d6000803e3d6000fd5b50505050808673ffffffffffffffffffffffffffffffffffffffff167f165b17602125a20b222f9736f06d776e39507d7dc60ddef32ccc23ea2f1b50e58733604051611f6792919061295c565b60405180910390a350505050505050565b600033905090565b600043848484604051602001611f999493929190612630565b6040516020818303038152906040528051906020012090509392505050565b6000611fcb611fc684612ad1565b612aac565b905082815260208101848484011115611fe357600080fd5b611fee848285612cf7565b509392505050565b6000813590506120058161313b565b92915050565b60008135905061201a81613152565b92915050565b600082601f83011261203157600080fd5b8135612041848260208601611fb8565b91505092915050565b60008135905061205981613169565b92915050565b60008135905061206e81613180565b92915050565b60008135905061208381613197565b92915050565b60006020828403121561209b57600080fd5b60006120a984828501611ff6565b91505092915050565b600080600080608085870312156120c857600080fd5b60006120d687828801611ff6565b94505060206120e787828801611ff6565b93505060406120f887828801612074565b925050606085013567ffffffffffffffff81111561211557600080fd5b61212187828801612020565b91505092959194509250565b6000806040838503121561214057600080fd5b600061214e85828601611ff6565b925050602061215f85828601612074565b9150509250929050565b60006020828403121561217b57600080fd5b60006121898482850161200b565b91505092915050565b600080604083850312156121a557600080fd5b60006121b38582860161204a565b92505060206121c485828601612074565b9150509250929050565b6000806000606084860312156121e357600080fd5b60006121f18682870161204a565b935050602061220286828701612074565b925050604061221386828701612074565b9150509250925092565b6000806000806080858703121561223357600080fd5b60006122418782880161204a565b945050602061225287828801612074565b935050604061226387828801612074565b925050606061227487828801612074565b91505092959194509250565b600080600080600060a0868803121561229857600080fd5b60006122a68882890161204a565b95505060206122b788828901612074565b94505060406122c888828901612074565b93505060606122d988828901612074565b92505060806122ea88828901612074565b9150509295509295909350565b60006020828403121561230957600080fd5b60006123178482850161205f565b91505092915050565b61232981612c28565b82525050565b61234061233b82612c28565b612d37565b82525050565b61234f81612c3a565b82525050565b61235e81612c46565b82525050565b61236d81612c50565b82525050565b61237c81612cd3565b82525050565b61239361238e82612cd3565b612d37565b82525050565b60006123a6601883612b02565b91506123b182612e10565b602082019050919050565b60006123c9601f83612b02565b91506123d482612e39565b602082019050919050565b60006123ec602683612b02565b91506123f782612e62565b604082019050919050565b600061240f600d83612b02565b915061241a82612eb1565b602082019050919050565b6000612432600b83612b02565b915061243d82612eda565b602082019050919050565b6000612455600783612b02565b915061246082612f03565b602082019050919050565b6000612478600d83612b02565b915061248382612f2c565b602082019050919050565b600061249b601683612b02565b91506124a682612f55565b602082019050919050565b60006124be601983612b02565b91506124c982612f7e565b602082019050919050565b60006124e1602083612b02565b91506124ec82612fa7565b602082019050919050565b6000612504601d83612b02565b915061250f82612fd0565b602082019050919050565b6000612527602483612b02565b915061253282612ff9565b604082019050919050565b600061254a600e83612b02565b915061255582613048565b602082019050919050565b600061256d602a83612b02565b915061257882613071565b604082019050919050565b6000612590600d83612b02565b915061259b826130c0565b602082019050919050565b60006125b3600c83612b02565b91506125be826130e9565b602082019050919050565b60006125d6600983612b02565b91506125e182613112565b602082019050919050565b6125f581612c8e565b82525050565b61260481612cbc565b82525050565b61261b61261682612cbc565b612d5b565b82525050565b61262a81612cc6565b82525050565b600061263c828761260a565b60208201915061264c8286612382565b60148201915061265c828561260a565b60208201915061266c828461232f565b60148201915081905095945050505050565b60006020820190506126936000830184612320565b92915050565b60006060820190506126ae6000830186612320565b6126bb6020830185612320565b6126c860408301846125fb565b949350505050565b60006020820190506126e56000830184612355565b92915050565b60006020820190506127006000830184612364565b92915050565b6000602082019050818103600083015261271f81612399565b9050919050565b6000602082019050818103600083015261273f816123bc565b9050919050565b6000602082019050818103600083015261275f816123df565b9050919050565b6000602082019050818103600083015261277f81612402565b9050919050565b6000602082019050818103600083015261279f81612425565b9050919050565b600060208201905081810360008301526127bf81612448565b9050919050565b600060208201905081810360008301526127df8161246b565b9050919050565b600060208201905081810360008301526127ff8161248e565b9050919050565b6000602082019050818103600083015261281f816124b1565b9050919050565b6000602082019050818103600083015261283f816124d4565b9050919050565b6000602082019050818103600083015261285f816124f7565b9050919050565b6000602082019050818103600083015261287f8161251a565b9050919050565b6000602082019050818103600083015261289f8161253d565b9050919050565b600060208201905081810360008301526128bf81612560565b9050919050565b600060208201905081810360008301526128df81612583565b9050919050565b600060208201905081810360008301526128ff816125a6565b9050919050565b6000602082019050818103600083015261291f816125c9565b9050919050565b600060208201905061293b60008301846125ec565b92915050565b600060208201905061295660008301846125fb565b92915050565b600060408201905061297160008301856125fb565b61297e6020830184612320565b9392505050565b600060808201905061299a60008301876125fb565b6129a76020830186612320565b6129b46040830185612320565b6129c160608301846125fb565b95945050505050565b60006060820190506129df60008301866125fb565b6129ec6020830185612320565b6129f960408301846125fb565b949350505050565b600061016082019050612a17600083018e612621565b612a24602083018d612320565b612a31604083018c612373565b612a3e606083018b6125fb565b612a4b608083018a6125fb565b612a5860a08301896125fb565b612a6560c08301886125fb565b612a7260e08301876125fb565b612a806101008301866125fb565b612a8e610120830185612320565b612a9c610140830184612346565b9c9b505050505050505050505050565b6000612ab6612ac7565b9050612ac28282612d06565b919050565b6000604051905090565b600067ffffffffffffffff821115612aec57612aeb612dc3565b5b612af582612df2565b9050602081019050919050565b600082825260208201905092915050565b6000612b1e82612cbc565b9150612b2983612cbc565b9250827fffffffffffffffffffffffffffffffffffffffffffffffffffffffffffffffff03821115612b5e57612b5d612d65565b5b828201905092915050565b6000612b7482612cbc565b9150612b7f83612cbc565b925082612b8f57612b8e612d94565b5b828204905092915050565b6000612ba582612cbc565b9150612bb083612cbc565b9250817fffffffffffffffffffffffffffffffffffffffffffffffffffffffffffffffff0483118215151615612be957612be8612d65565b5b828202905092915050565b6000612bff82612cbc565b9150612c0a83612cbc565b925082821015612c1d57612c1c612d65565b5b828203905092915050565b6000612c3382612c9c565b9050919050565b60008115159050919050565b6000819050919050565b60007fffffffff0000000000000000000000000000000000000000000000000000000082169050919050565b6000612c8782612c28565b9050919050565b600061ffff82169050919050565b600073ffffffffffffffffffffffffffffffffffffffff82169050919050565b6000819050919050565b600060ff82169050919050565b6000612cde82612ce5565b9050919050565b6000612cf082612c9c565b9050919050565b82818337600083830152505050565b612d0f82612df2565b810181811067ffffffffffffffff82111715612d2e57612d2d612dc3565b5b80604052505050565b6000612d4282612d49565b9050919050565b6000612d5482612e03565b9050919050565b6000819050919050565b7f4e487b7100000000000000000000000000000000000000000000000000000000600052601160045260246000fd5b7f4e487b7100000000000000000000000000000000000000000000000000000000600052601260045260246000fd5b7f4e487b7100000000000000000000000000000000000000000000000000000000600052604160045260246000fd5b6000601f19601f8301169050919050565b60008160601b9050919050565b7f6f6e6c7920666f7220456e676c6973682041756374696f6e0000000000000000600082015250565b7f4475726174696f6e206d757374206265206d6f7265207468616e207a65726f00600082015250565b7f4f776e61626c653a206e6577206f776e657220697320746865207a65726f206160008201527f6464726573730000000000000000000000000000000000000000000000000000602082015250565b7f6c6f772070726963652062696400000000000000000000000000000000000000600082015250565b7f7072696365206572726f72000000000000000000000000000000000000000000600082015250565b7f4e6f742079657400000000000000000000000000000000000000000000000000600082015250565b7f42696464696e6720657869737400000000000000000000000000000000000000600082015250565b7f49742773206120456e676c6973682041756374696f6e00000000000000000000600082015250565b7f43616e206e6f742062696420746f20796f7572206f7264657200000000000000600082015250565b7f4f776e61626c653a2063616c6c6572206973206e6f7420746865206f776e6572600082015250565b7f696e7075742076616c7565206973206d6f7265207468616e2031303025000000600082015250565b7f546869732066756e6374696f6e20697320666f7220456e676c6973682041756360008201527f74696f6e00000000000000000000000000000000000000000000000000000000602082015250565b7f43616e63656c6564206f72646572000000000000000000000000000000000000600082015250565b7f456e642070726963652073686f756c64206265206c6f776572207468616e207360008201527f7461727420707269636500000000000000000000000000000000000000000000602082015250565b7f4163636573732064656e69656400000000000000000000000000000000000000600082015250565b7f416c726561647920736f6c640000000000000000000000000000000000000000600082015250565b7f49742773206f7665720000000000000000000000000000000000000000000000600082015250565b61314481612c28565b811461314f57600080fd5b50565b61315b81612c46565b811461316657600080fd5b50565b61317281612c7c565b811461317d57600080fd5b50565b61318981612c8e565b811461319457600080fd5b50565b6131a081612cbc565b81146131ab57600080fd5b5056fea2646970667358221220a689b9144a81996051be398dde70008f1acbb801c8ed8afc8bc66d3ded068c8964736f6c63430008030033",
  "linkReferences": {},
  "deployedLinkReferences": {}
}