{
  "_format": "hh-sol-artifact-1",
  "contractName": "NFTEX",
  "sourceName": "contracts/NFTEX.sol",
  "abi": [
    {
      "inputs": [
        {
          "internalType": "uint16",
          "name": "_feePercent",
          "type": "uint16"
        }
      ],
      "stateMutability": "nonpayable",
      "type": "constructor"
    },
    {
      "anonymous": false,
      "inputs": [
        {
          "indexed": true,
          "internalType": "contract IERC721",
          "name": "token",
          "type": "address"
        },
        {
          "indexed": false,
          "internalType": "uint256",
          "name": "id",
          "type": "uint256"
        },
        {
          "indexed": true,
          "internalType": "bytes32",
          "name": "hash",
          "type": "bytes32"
        },
        {
          "indexed": false,
          "internalType": "address",
          "name": "bidder",
          "type": "address"
        },
        {
          "indexed": false,
          "internalType": "uint256",
          "name": "bidPrice",
          "type": "uint256"
        }
      ],
      "name": "Bid",
      "type": "event"
    },
    {
      "anonymous": false,
      "inputs": [
        {
          "indexed": true,
          "internalType": "contract IERC721",
          "name": "token",
          "type": "address"
        },
        {
          "indexed": false,
          "internalType": "uint256",
          "name": "id",
          "type": "uint256"
        },
        {
          "indexed": true,
          "internalType": "bytes32",
          "name": "hash",
          "type": "bytes32"
        },
        {
          "indexed": false,
          "internalType": "address",
          "name": "seller",
          "type": "address"
        }
      ],
      "name": "CancelOrder",
      "type": "event"
    },
    {
      "anonymous": false,
      "inputs": [
        {
          "indexed": true,
          "internalType": "contract IERC721",
          "name": "token",
          "type": "address"
        },
        {
          "indexed": false,
          "internalType": "uint256",
          "name": "id",
          "type": "uint256"
        },
        {
          "indexed": true,
          "internalType": "bytes32",
          "name": "hash",
          "type": "bytes32"
        },
        {
          "indexed": false,
          "internalType": "address",
          "name": "seller",
          "type": "address"
        },
        {
          "indexed": false,
          "internalType": "address",
          "name": "taker",
          "type": "address"
        },
        {
          "indexed": false,
          "internalType": "uint256",
          "name": "price",
          "type": "uint256"
        }
      ],
      "name": "Claim",
      "type": "event"
    },
    {
      "anonymous": false,
      "inputs": [
        {
          "indexed": true,
          "internalType": "contract IERC721",
          "name": "token",
          "type": "address"
        },
        {
          "indexed": false,
          "internalType": "uint256",
          "name": "id",
          "type": "uint256"
        },
        {
          "indexed": true,
          "internalType": "bytes32",
          "name": "hash",
          "type": "bytes32"
        },
        {
          "indexed": false,
          "internalType": "address",
          "name": "seller",
          "type": "address"
        }
      ],
      "name": "MakeOrder",
      "type": "event"
    },
    {
      "anonymous": false,
      "inputs": [
        {
          "indexed": true,
          "internalType": "address",
          "name": "previousOwner",
          "type": "address"
        },
        {
          "indexed": true,
          "internalType": "address",
          "name": "newOwner",
          "type": "address"
        }
      ],
      "name": "OwnershipTransferred",
      "type": "event"
    },
    {
      "inputs": [
        {
          "internalType": "bytes32",
          "name": "_order",
          "type": "bytes32"
        }
      ],
      "name": "bid",
      "outputs": [],
      "stateMutability": "payable",
      "type": "function"
    },
    {
      "inputs": [
        {
          "internalType": "bytes32",
          "name": "_order",
          "type": "bytes32"
        }
      ],
      "name": "buyItNow",
      "outputs": [],
      "stateMutability": "payable",
      "type": "function"
    },
    {
      "inputs": [
        {
          "internalType": "bytes32",
          "name": "c__0x5f28b99d",
          "type": "bytes32"
        }
      ],
      "name": "c_0x5f28b99d",
      "outputs": [],
      "stateMutability": "pure",
      "type": "function"
    },
    {
      "inputs": [
        {
          "internalType": "bytes32",
          "name": "_order",
          "type": "bytes32"
        }
      ],
      "name": "cancelOrder",
      "outputs": [],
      "stateMutability": "nonpayable",
      "type": "function"
    },
    {
      "inputs": [
        {
          "internalType": "bytes32",
          "name": "_order",
          "type": "bytes32"
        }
      ],
      "name": "claim",
      "outputs": [],
      "stateMutability": "nonpayable",
      "type": "function"
    },
    {
      "inputs": [
        {
          "internalType": "contract IERC721",
          "name": "_token",
          "type": "address"
        },
        {
          "internalType": "uint256",
          "name": "_id",
          "type": "uint256"
        },
        {
          "internalType": "uint256",
          "name": "_startPrice",
          "type": "uint256"
        },
        {
          "internalType": "uint256",
          "name": "_endPrice",
          "type": "uint256"
        },
        {
          "internalType": "uint256",
          "name": "_endBlock",
          "type": "uint256"
        }
      ],
      "name": "dutchAuction",
      "outputs": [],
      "stateMutability": "nonpayable",
      "type": "function"
    },
    {
      "inputs": [
        {
          "internalType": "contract IERC721",
          "name": "_token",
          "type": "address"
        },
        {
          "internalType": "uint256",
          "name": "_id",
          "type": "uint256"
        },
        {
          "internalType": "uint256",
          "name": "_startPrice",
          "type": "uint256"
        },
        {
          "internalType": "uint256",
          "name": "_endBlock",
          "type": "uint256"
        }
      ],
      "name": "englishAuction",
      "outputs": [],
      "stateMutability": "nonpayable",
      "type": "function"
    },
    {
      "inputs": [],
      "name": "feeAddress",
      "outputs": [
        {
          "internalType": "address",
          "name": "",
          "type": "address"
        }
      ],
      "stateMutability": "view",
      "type": "function"
    },
    {
      "inputs": [],
      "name": "feePercent",
      "outputs": [
        {
          "internalType": "uint16",
          "name": "",
          "type": "uint16"
        }
      ],
      "stateMutability": "view",
      "type": "function"
    },
    {
      "inputs": [
        {
          "internalType": "contract IERC721",
          "name": "_token",
          "type": "address"
        },
        {
          "internalType": "uint256",
          "name": "_id",
          "type": "uint256"
        },
        {
          "internalType": "uint256",
          "name": "_price",
          "type": "uint256"
        },
        {
          "internalType": "uint256",
          "name": "_endBlock",
          "type": "uint256"
        }
      ],
      "name": "fixedPrice",
      "outputs": [],
      "stateMutability": "nonpayable",
      "type": "function"
    },
    {
      "inputs": [
        {
          "internalType": "bytes32",
          "name": "_order",
          "type": "bytes32"
        }
      ],
      "name": "getCurrentPrice",
      "outputs": [
        {
          "internalType": "uint256",
          "name": "",
          "type": "uint256"
        }
      ],
      "stateMutability": "view",
      "type": "function"
    },
    {
      "inputs": [
        {
          "internalType": "address",
          "name": "",
          "type": "address"
        },
        {
          "internalType": "address",
          "name": "",
          "type": "address"
        },
        {
          "internalType": "uint256",
          "name": "",
          "type": "uint256"
        },
        {
          "internalType": "bytes",
          "name": "",
          "type": "bytes"
        }
      ],
      "name": "onERC721Received",
      "outputs": [
        {
          "internalType": "bytes4",
          "name": "",
          "type": "bytes4"
        }
      ],
      "stateMutability": "nonpayable",
      "type": "function"
    },
    {
      "inputs": [
        {
          "internalType": "address",
          "name": "",
          "type": "address"
        },
        {
          "internalType": "uint256",
          "name": "",
          "type": "uint256"
        }
      ],
      "name": "orderIdBySeller",
      "outputs": [
        {
          "internalType": "bytes32",
          "name": "",
          "type": "bytes32"
        }
      ],
      "stateMutability": "view",
      "type": "function"
    },
    {
      "inputs": [
        {
          "internalType": "contract IERC721",
          "name": "",
          "type": "address"
        },
        {
          "internalType": "uint256",
          "name": "",
          "type": "uint256"
        },
        {
          "internalType": "uint256",
          "name": "",
          "type": "uint256"
        }
      ],
      "name": "orderIdByToken",
      "outputs": [
        {
          "internalType": "bytes32",
          "name": "",
          "type": "bytes32"
        }
      ],
      "stateMutability": "view",
      "type": "function"
    },
    {
      "inputs": [
        {
          "internalType": "bytes32",
          "name": "",
          "type": "bytes32"
        }
      ],
      "name": "orderInfo",
      "outputs": [
        {
          "internalType": "uint8",
          "name": "orderType",
          "type": "uint8"
        },
        {
          "internalType": "address",
          "name": "seller",
          "type": "address"
        },
        {
          "internalType": "contract IERC721",
          "name": "token",
          "type": "address"
        },
        {
          "internalType": "uint256",
          "name": "tokenId",
          "type": "uint256"
        },
        {
          "internalType": "uint256",
          "name": "startPrice",
          "type": "uint256"
        },
        {
          "internalType": "uint256",
          "name": "endPrice",
          "type": "uint256"
        },
        {
          "internalType": "uint256",
          "name": "startBlock",
          "type": "uint256"
        },
        {
          "internalType": "uint256",
          "name": "endBlock",
          "type": "uint256"
        },
        {
          "internalType": "uint256",
          "name": "lastBidPrice",
          "type": "uint256"
        },
        {
          "internalType": "address",
          "name": "lastBidder",
          "type": "address"
        },
        {
          "internalType": "bool",
          "name": "isSold",
          "type": "bool"
        }
      ],
      "stateMutability": "view",
      "type": "function"
    },
    {
      "inputs": [],
      "name": "owner",
      "outputs": [
        {
          "internalType": "address",
          "name": "",
          "type": "address"
        }
      ],
      "stateMutability": "view",
      "type": "function"
    },
    {
      "inputs": [],
      "name": "renounceOwnership",
      "outputs": [],
      "stateMutability": "nonpayable",
      "type": "function"
    },
    {
      "inputs": [
        {
          "internalType": "address",
          "name": "_seller",
          "type": "address"
        }
      ],
      "name": "sellerOrderLength",
      "outputs": [
        {
          "internalType": "uint256",
          "name": "",
          "type": "uint256"
        }
      ],
      "stateMutability": "view",
      "type": "function"
    },
    {
      "inputs": [
        {
          "internalType": "address",
          "name": "_feeAddress",
          "type": "address"
        }
      ],
      "name": "setFeeAddress",
      "outputs": [],
      "stateMutability": "nonpayable",
      "type": "function"
    },
    {
      "inputs": [
        {
          "internalType": "contract IERC721",
          "name": "_token",
          "type": "address"
        },
        {
          "internalType": "uint256",
          "name": "_id",
          "type": "uint256"
        }
      ],
      "name": "tokenOrderLength",
      "outputs": [
        {
          "internalType": "uint256",
          "name": "",
          "type": "uint256"
        }
      ],
      "stateMutability": "view",
      "type": "function"
    },
    {
      "inputs": [
        {
          "internalType": "address",
          "name": "newOwner",
          "type": "address"
        }
      ],
      "name": "transferOwnership",
      "outputs": [],
      "stateMutability": "nonpayable",
      "type": "function"
    },
    {
      "inputs": [
        {
          "internalType": "uint16",
          "name": "_percent",
          "type": "uint16"
        }
      ],
      "name": "updateFeePercent",
      "outputs": [],
      "stateMutability": "nonpayable",
      "type": "function"
    }
  ],
  "bytecode": "0x60806040523480156200001157600080fd5b506040516200600c3803806200600c83398181016040528101906200003791906200038e565b6000620000496200036c60201b60201c565b9050806000806101000a81548173ffffffffffffffffffffffffffffffffffffffff021916908373ffffffffffffffffffffffffffffffffffffffff1602179055508073ffffffffffffffffffffffffffffffffffffffff16600073ffffffffffffffffffffffffffffffffffffffff167f8be0079c531659141344cd1fd0a4f28419497f9722a3daafe3b4186f6b6457e060405160405180910390a3506200011b7f93a418504fa61dee80ebc73d1f40a8fca4ad59366aed19fe749c27093fdb08b960001b6200037460201b60201c565b6200014f7f272867c633a0ad4b18390556ad337e6ae99b127eda520277e55ee1602b814b3160001b6200037460201b60201c565b620001837f88389c2a0027e53e218d590b0d85fac0a6978660a01830e1b029463735bd168e60001b6200037460201b60201c565b620001b77fc82b31054a1b145497339521d234db7c60d14302de0617927b880de3aa5d18e860001b6200037460201b60201c565b6127108161ffff16111562000203576040517f08c379a0000000000000000000000000000000000000000000000000000000008152600401620001fa90620003e1565b60405180910390fd5b620002377f4a786a9509d18b2ede8878706102fe9158decd0032665600c23361bebbebf53660001b6200037460201b60201c565b6200026b7f392dad5a7ce1a98305a3c035bbbc90eeac7602bc1cedff9ff4a5e5ffc0dda79f60001b6200037460201b60201c565b6200029f7f4853ef0ed1e8379c6b27d883ccc11e73ecbf34af3e7d1c0b0c93b60c0b9c14bb60001b6200037460201b60201c565b33600460006101000a81548173ffffffffffffffffffffffffffffffffffffffff021916908373ffffffffffffffffffffffffffffffffffffffff160217905550620003147fe45d725450ffe027467f0a11bf0bdb633ee8dd6da50b3dc86a666e3b04a5dee760001b6200037460201b60201c565b620003487fbcbc9e3b24bc00865857e9323794e11913f380b3c038d3ad087cf0d6faa5139160001b6200037460201b60201c565b80600460146101000a81548161ffff021916908361ffff1602179055505062000465565b600033905090565b50565b60008151905062000388816200044b565b92915050565b600060208284031215620003a157600080fd5b6000620003b18482850162000377565b91505092915050565b6000620003c9601d8362000403565b9150620003d68262000422565b602082019050919050565b60006020820190508181036000830152620003fc81620003ba565b9050919050565b600082825260208201905092915050565b600061ffff82169050919050565b7f696e7075742076616c7565206973206d6f7265207468616e2031303025000000600082015250565b620004568162000414565b81146200046257600080fd5b50565b615b9780620004756000396000f3fe6080604052600436106101355760003560e01c80637fd6f15c116100ab5780638da5cb5b1161006f5780638da5cb5b14610445578063957bb1e014610470578063a04a86bd1461048c578063bd66528a146104b5578063f2fde38b146104de578063f4dae74c1461050757610135565b80637fd6f15c1461036f5780638035eb5c1461039a5780638705fcd4146103c35780638aae982a146103ec5780638ba39adb1461042957610135565b806319daa108116100fd57806319daa10814610243578063238e203f14610280578063275e086c146102c75780634127535814610304578063715018a61461032f5780637489ec231461034657610135565b806303cf91831461013a57806308745c9814610163578063093dff7d146101a0578063150b7a02146101c9578063161e444e14610206575b600080fd5b34801561014657600080fd5b50610161600480360381019061015c9190614b1c565b610530565b005b34801561016f57600080fd5b5061018a60048036038101906101859190614ae0565b610533565b6040516101979190615083565b60405180910390f35b3480156101ac57600080fd5b506101c760048036038101906101c29190614c33565b610564565b005b3480156101d557600080fd5b506101f060048036038101906101eb9190614a65565b6106f0565b6040516101fd919061509e565b60405180910390f35b34801561021257600080fd5b5061022d60048036038101906102289190614b1c565b610704565b60405161023a91906152f4565b60405180910390f35b34801561024f57600080fd5b5061026a60048036038101906102659190614b45565b610c67565b60405161027791906152f4565b60405180910390f35b34801561028c57600080fd5b506102a760048036038101906102a29190614b1c565b610d49565b6040516102be9b9a999897969594939291906153b4565b60405180910390f35b3480156102d357600080fd5b506102ee60048036038101906102e99190614b81565b610e1d565b6040516102fb9190615083565b60405180910390f35b34801561031057600080fd5b50610319610e5b565b6040516103269190615031565b60405180910390f35b34801561033b57600080fd5b50610344610e81565b005b34801561035257600080fd5b5061036d60048036038101906103689190614b1c565b610fbb565b005b34801561037b57600080fd5b50610384611651565b60405161039191906152d9565b60405180910390f35b3480156103a657600080fd5b506103c160048036038101906103bc9190614bd0565b611665565b005b3480156103cf57600080fd5b506103ea60048036038101906103e59190614a3c565b6116ff565b005b3480156103f857600080fd5b50610413600480360381019061040e9190614a3c565b611843565b60405161042091906152f4565b60405180910390f35b610443600480360381019061043e9190614b1c565b611913565b005b34801561045157600080fd5b5061045a61250d565b6040516104679190615031565b60405180910390f35b61048a60048036038101906104859190614b1c565b612536565b005b34801561049857600080fd5b506104b360048036038101906104ae9190614caa565b613269565b005b3480156104c157600080fd5b506104dc60048036038101906104d79190614b1c565b613482565b005b3480156104ea57600080fd5b5061050560048036038101906105009190614a3c565b613f80565b005b34801561051357600080fd5b5061052e60048036038101906105299190614bd0565b614129565b005b50565b6002602052816000526040600020818154811061054f57600080fd5b90600052602060002001600091509150505481565b6105907f9260c6493aba2df3ab29769f999dc45ff8860606fbf40c5cc2922e9fd81e4d3160001b610530565b6105bc7f12351844ff0711c08391ec37eb42abbcfba4601f8a7f19033444e0640afdf8d760001b610530565b6105e87f95dcda451a2de6c3a52a4b70b38088ef12ebd4f7347743d492a52f314f39b9ed60001b610530565b6106147f5daacf31ca33e33eee19da9eb772c0c5efcf67dba14fd99a66ac1d16bb973cec60001b610530565b818311610656576040517f08c379a000000000000000000000000000000000000000000000000000000000815260040161064d90615259565b60405180910390fd5b6106827fe166ee7e374d9821c727ed2659bff347023c7d55f02164bdf8693976952076e260001b610530565b6106ae7fd7f47ab380a344d3d0e9e9289ab4e36ccc5a0d7176018d14bff6efa89e284ab460001b610530565b6106da7f1d76bd0871ef3496e8dd06812c89a8c8a09aa45fc7d3d6d193f61e74999379e260001b610530565b6106e9600186868686866141c3565b5050505050565b600063150b7a0260e01b9050949350505050565b60006107327fa12862c2039761b4ac30ccec4ad110fb33e2c03ce32345474bb78ccac4ab498d60001b610530565b61075e7f1e1d3ddbc6b035c154ced006c51c230b7a213d89e0ee3a6683c81d879ee3625a60001b610530565b61078a7f357403a8ed8c8d6483625654a181e7d721e9ad6e02ab0034c1f1083185c50aa060001b610530565b60006003600084815260200190815260200160002090506107cd7f9722b9d425f1364af6f6ead238ebab524aeb439c7d8b5b13bc2789ea1703c5ad60001b610530565b6107f97fd4c5497bba348dbad664d8bc66e8c125f05d2263b780ee40e7056884f7ec809060001b610530565b60008160000160009054906101000a900460ff16905061083b7f559ce82060121a4ac497ddf82e6f582852fc39a05d9608b342853c767d16c42a60001b610530565b6108677f59c74aa5ee128563285177b58aa3f3877a2e01734a9697c53d475380a89fe97b60001b610530565b60008160ff1614156109055761089f7f152d2c017bd331df9effd36ab288cfada5bf16633b86fecfdcc541744e6d3e5660001b610530565b6108cb7feb141a068e306ff555850047e0c1acece4a80eb6965f9c6ce9b167be2de359aa60001b610530565b6108f77fd469360b5ac29b1efaab089bb368695c266fe72002f60500f49f1f2f804e633760001b610530565b816003015492505050610c62565b6109317ffe2a4d43ea070abba71a1e034a0e232dd2125ba8701cebc4aa791ae5928ccec460001b610530565b61095d7fef72b90244bcb4aa23f573bbf62871041b2b1805dd428683851f2c7254ea9f9160001b610530565b60028160ff161415610a6c576109957f9b7dec0f1199d5515b69741967266dbc37e1e915b96a06818af8a4b7b6b3f9b960001b610530565b6109c17f25c1786d3ca71639becba8480d05f7fd41750ce4c17e72e416b8ba86c43c4f0260001b610530565b6109ed7f7c472cb0069e42e8b753972f6dda05224b6476f833aa9a7350bfb233e50ffb5260001b610530565b600082600701549050610a227f7833a990c02bb7d1d57f60b0ef35ed6ce509362ce2803a9f3e56ab7721c332e860001b610530565b610a4e7f50e5ba415648448274b11d5f1dfe55d359b9a61f4c725fdb0885b5d0c35bef6760001b610530565b60008114610a5c5780610a62565b82600301545b9350505050610c62565b610a987f4de127071d4660122accfc9f57b0103bdb218ba15685547e15bb1f82b1273d6360001b610530565b610ac47f0b68ab7309c6234fc7d6b462d9c5aeb6a2408a3a9eaab48a8b543616760e559a60001b610530565b610af07f0b262dc9f98fc416610d0297696b8fb9f2c87822ccdc4b5350edf045e184771360001b610530565b600082600301549050610b257fcb89697558c2928b90fd9d7aad354223200b65ee4126a82cd8db840afb53a01b60001b610530565b610b517f1c4e51ec3613f89a9bfbb2218151fe4b9ce566d28019fdcf7791872636bc45d260001b610530565b600083600501549050610b867f792b77462583c79bc8f2101926a170f5a1d5fcfc0eaffe2a76353b2e13aecdd460001b610530565b610bb27fcaccf68a4bb8da1d4656c410dcd39da4638283508c5bec4a0c1a99e6d0d0122d60001b610530565b6000818560060154610bc491906155a7565b856004015484610bd491906155a7565b610bde919061551c565b9050610c0c7fd8c0bfd953afdff86212f8ec6b65775bcd21df6ef0b15812474713265b413fbb60001b610530565b610c387f5980bb20ffc398b27e7abd1d20491c1c0707c16e2708604241fd1aa1d828277e60001b610530565b808243610c4591906155a7565b610c4f919061554d565b83610c5a91906155a7565b955050505050505b919050565b6000610c957f64fc7af00d62f4a78558daed522a81715562b75e2779ee3b0d6530c2cb778eb260001b610530565b610cc17f80a05f2fd14ef53e18d3deb78e7bd57ff8c96fe7ebefca6250e6dd462195768660001b610530565b610ced7f5a1e8f02b5b5f7ca6f26ebf93a66adc89dd0a6b8e5699b8e60db7345608409dd60001b610530565b600160008473ffffffffffffffffffffffffffffffffffffffff1673ffffffffffffffffffffffffffffffffffffffff168152602001908152602001600020600083815260200190815260200160002080549050905092915050565b60036020528060005260406000206000915090508060000160009054906101000a900460ff16908060000160019054906101000a900473ffffffffffffffffffffffffffffffffffffffff16908060010160009054906101000a900473ffffffffffffffffffffffffffffffffffffffff16908060020154908060030154908060040154908060050154908060060154908060070154908060080160009054906101000a900473ffffffffffffffffffffffffffffffffffffffff16908060080160149054906101000a900460ff1690508b565b60016020528260005260406000206020528160005260406000208181548110610e4557600080fd5b9060005260206000200160009250925050505481565b600460009054906101000a900473ffffffffffffffffffffffffffffffffffffffff1681565b610e896148a7565b73ffffffffffffffffffffffffffffffffffffffff16610ea761250d565b73ffffffffffffffffffffffffffffffffffffffff1614610efd576040517f08c379a0000000000000000000000000000000000000000000000000000000008152600401610ef4906151d9565b60405180910390fd5b600073ffffffffffffffffffffffffffffffffffffffff1660008054906101000a900473ffffffffffffffffffffffffffffffffffffffff1673ffffffffffffffffffffffffffffffffffffffff167f8be0079c531659141344cd1fd0a4f28419497f9722a3daafe3b4186f6b6457e060405160405180910390a360008060006101000a81548173ffffffffffffffffffffffffffffffffffffffff021916908373ffffffffffffffffffffffffffffffffffffffff160217905550565b610fe77f706135191500756ac4fa06fd5714aaf61ce599fc808236b8ceeb878669e7545c60001b610530565b6110137f93e9044624bde37ccb316e561a225ad145eb110ff85a4934583fb23b1bcd57ce60001b610530565b61103f7fdc39036a9732385b72830fe9aa9bb88d31ef637e23aca9571258f07b2baeb0fa60001b610530565b60006003600083815260200190815260200160002090506110827f168075f46ed2ecb238dedd41007824dc9ba0663cb8a0e9bb3f794d44d070467260001b610530565b6110ae7fdb23e63b007bdd26bdf6b453d0f3f208a1c788cd244cb6a7afb0f499176bc76a60001b610530565b6110da7fdf44009439076d605ccd293ff9da0ac04d50eba88138675f9fe9457e1bc6ef3460001b610530565b3373ffffffffffffffffffffffffffffffffffffffff168160000160019054906101000a900473ffffffffffffffffffffffffffffffffffffffff1673ffffffffffffffffffffffffffffffffffffffff161461116c576040517f08c379a000000000000000000000000000000000000000000000000000000000815260040161116390615279565b60405180910390fd5b6111987ff6b985d6962702f3048cb4ffff7ce9ac092358450a22a891d50c880c92594d6260001b610530565b6111c47fcd17a1f806e6c93ac9b68c8ba8905fe0a1ab1c5e5a5a84ff41d0a4fc599d79b060001b610530565b6111f07f2ac159902a52bdf37d5972f0ad1541618ca9ad42557a6c5d6293f4f84d49845d60001b610530565b61121c7f4acec343529b26dcf3500dcd3154434e2455ab1752bd513c00493610a68364ac60001b610530565b6000816007015414611263576040517f08c379a000000000000000000000000000000000000000000000000000000000815260040161125a90615179565b60405180910390fd5b61128f7f6817ee9e681cc0a7f345c264e473c7a70e99f3074315feadc460aff41d3772e760001b610530565b6112bb7fd40f56b146118b3efd3ac4159d5f2fe9c004a5b473088e6a147487710168b5b860001b610530565b6112e77ff34a48629112237c52a0222e453c244a33e72d34cbd6700ac3de60e763fc8e7c60001b610530565b6113137fa4b5544e95b3839eea85164d3acf6b6de7c7fdf9788da4d770c75dfae519e9b360001b610530565b600015158160080160149054906101000a900460ff1615151461136b576040517f08c379a000000000000000000000000000000000000000000000000000000000815260040161136290615299565b60405180910390fd5b6113977f38c9168f4bbf9cbbb8d26f812dda6885b0083e5ba8656832d117227ac002b2c260001b610530565b6113c37f0c8f7992070f3fe38734f1fe415539dad1c4c03d46a14142c86b981bee4e8bad60001b610530565b6113ef7fc1b7807bd6737d5664b21c4002c1a690bc36ad9b9bd79ab83c3f7f921f70bb6860001b610530565b60008160010160009054906101000a900473ffffffffffffffffffffffffffffffffffffffff1690506114447ff5394329e62a59d22f57084afa973e28503a191be1416c14bf6c795bfc12fd1860001b610530565b6114707f1d23a1587992bd23f682fac7cbeee443930e7a5ea4e5c1e6c08a5c6fbe52f9e060001b610530565b6000826002015490506114a57f1b1c4f8e0f7237c6b3ddc0c11d964b24248202429109bf8b9122076200543a0760001b610530565b6114d17f2e372375b869e496ea0e7871cbc5580fd293a7ea5151c58f4f9b67eff0e1ad2960001b610530565b600083600601819055506115077fd1edab0b3668df3785eff2041127090f8c3bfbda56f726c380e80c8b97234c9f60001b610530565b6115337f42d1790a9b43552bb79e3c4b030cf8a2bc4902571593caa94b5f17a4f5a8a30d60001b610530565b8173ffffffffffffffffffffffffffffffffffffffff166342842e0e3033846040518463ffffffff1660e01b81526004016115709392919061504c565b600060405180830381600087803b15801561158a57600080fd5b505af115801561159e573d6000803e3d6000fd5b505050506115ce7fcbfa3b443a4c2e457ecea579edf2c89bd454bfd14d1be070794db0d1b0407f6360001b610530565b6115fa7fbb3e729ad32611923e1f86501d043497b588003253ae384f6923d6c342a7a6f160001b610530565b838273ffffffffffffffffffffffffffffffffffffffff167f856ac238bc6f4bb0c966003f34f148bf0ef3b60f266e451474de23ff78196c8b833360405161164392919061530f565b60405180910390a350505050565b600460149054906101000a900461ffff1681565b6116917fbe681c92a28df6916a9c50240e72d5722f0e5c0d267f764eb8882d6bbcae285f60001b610530565b6116bd7f68d30603c88b2d7bdbdf1ced39a03676ad4e5406ea9be4335f2fa501ff19e20b60001b610530565b6116e97f5076247de3935d49dcea7ce9a67630a540beb6bf65d4aab15132b1df816a79ab60001b610530565b6116f960008585856000866141c3565b50505050565b6117076148a7565b73ffffffffffffffffffffffffffffffffffffffff1661172561250d565b73ffffffffffffffffffffffffffffffffffffffff161461177b576040517f08c379a0000000000000000000000000000000000000000000000000000000008152600401611772906151d9565b60405180910390fd5b6117a77f36f2fb38ec117dbab1bffbe462ae0fbee1d058f343874a72c2851bfe0ef39cde60001b610530565b6117d37fe891b09f5de28fa9d69936562011ca44e9278e55fdf5a90b5c6a1a44270905d760001b610530565b6117ff7fd348426fc944fd6b8717784693056ccfb16434d62dfab9de0865895185f34ff460001b610530565b80600460006101000a81548173ffffffffffffffffffffffffffffffffffffffff021916908373ffffffffffffffffffffffffffffffffffffffff16021790555050565b60006118717f7e8d587e121aa00f02f805f1ed800f2b006d6ceb606217a8952b5b2d3b2bf34760001b610530565b61189d7fa3b7088e11145de031bf5c478ce3d0ec33b11fd4d11701576b89c3b446b1ca3c60001b610530565b6118c97fee99db643416eef5e822893e41a534df9d1664d55d76092ef564062c418983f660001b610530565b600260008373ffffffffffffffffffffffffffffffffffffffff1673ffffffffffffffffffffffffffffffffffffffff168152602001908152602001600020805490509050919050565b61193f7f2da19faae9cfde9c27ff05dd5d28af88bb6adf12d55ddd975346b60928c8a85360001b610530565b61196b7f72e71e9f27fa4cc5e5faac5a2d4c2c7571aaf4960650870d6521dd1bce2a5ad460001b610530565b6119977f80094d9842a2d22a734c428e1bb436102437f2ae50042879c1903855cb7759bf60001b610530565b60006003600083815260200190815260200160002090506119da7f0f432a59116c4caeed0723781a8094e19072d442cde242899902cb9b05af62ad60001b610530565b611a067fd594c124c6966cb494ca077959eaf883470eac14342f293cf47da34bb5400e5860001b610530565b600081600601549050611a3b7f14fc299ce20bc2a979788974f3ecdfd888e91e77e5a36161ffe9d9fa9d1709e660001b610530565b611a677f98cbf67b956561ee31eb2bbc4ce2b5e5ba57bf6d53777c1ad597da92259c817d60001b610530565b611a937f0cdb11e38266418fa08ec78fc873ac38b6e954bf9c82833f7b4a5b39b3144ef860001b610530565b6000811415611ad7576040517f08c379a0000000000000000000000000000000000000000000000000000000008152600401611ace90615239565b60405180910390fd5b611b037f55eab132511975ddebe5a65bf6386dd2ea7b1b510bee1abec9a61a9bcbadd7ea60001b610530565b611b2f7fa18753d11a33003690b248ba80574a88dddeaf20a44f1fa7376b28d9171ff3aa60001b610530565b611b5b7fd347fda4f7c4be934ad8e52bd46a4ea5f28d8fd8cc863d3e1a12543880c8051b60001b610530565b611b877f2136f6781f743335ea52108c682880c4aec9753a19f0f57efe9d1ac9499783ad60001b610530565b438111611bc9576040517f08c379a0000000000000000000000000000000000000000000000000000000008152600401611bc0906152b9565b60405180910390fd5b611bf57f878a8a7f8beac5f23f96c733deb0277ec85c1e37ac645dfb5b3cd1f06757552660001b610530565b611c217f88f8314fd8111ab434fb1234d78ff115b903da86738001412c01c9143e92564b60001b610530565b611c4d7f851029d18d5750f7eeff57901728c807c48855983b369e9db5dbee3214890a1260001b610530565b611c797f0ef6c59424f8f05b2156ed1c902ccaa10df57e26f4562b2de054ffd87962828360001b610530565b60028260000160009054906101000a900460ff1660ff1610611cd0576040517f08c379a0000000000000000000000000000000000000000000000000000000008152600401611cc790615199565b60405180910390fd5b611cfc7f1f77328900ad2516c026125703b222050e770b13a65102fad4d078903f8bae2660001b610530565b611d287f4e063b3cb4f19b67ccc7a478da173dd439f1ced96d4392b2341b3a5e68aa3da360001b610530565b611d547f70e75e50cb6110f3d5f7921e288d2c91f292998d220299bc09f4693c3833521d60001b610530565b611d807faa7c4bc156747d6d1784c2d28bb82d3082423d0337cdd774417a6152ebbac1a260001b610530565b600015158260080160149054906101000a900460ff16151514611dd8576040517f08c379a0000000000000000000000000000000000000000000000000000000008152600401611dcf90615299565b60405180910390fd5b611e047f08b3b25dd679b537a3f2d2a30f397e1b32becc35c97a114ea65ddfeda69117e060001b610530565b611e307fe3ec335b1d040578dbcb52c189a64a55ecd0c040aa7f70e61e2290ac107ae62960001b610530565b611e5c7fbf7701321024bcdcff6d61aa433990c7d31b6b60647d713b36fd1bf5c2c98efe60001b610530565b6000611e6784610704565b9050611e957f3f566708094efed4c3d18241b02e5997f5521e561d8c3527a2dab4d1c4a0ade560001b610530565b611ec17f5e525b464b7da16e6754bbd98ac413cbcbe636a6c0ce7a0d66f2c4e3a0c9b89560001b610530565b611eed7f236ad9d0004ee33f61b60b7249b298a585f57d4c898f0e77ebd09de94d080e4a60001b610530565b80341015611f30576040517f08c379a0000000000000000000000000000000000000000000000000000000008152600401611f2790615139565b60405180910390fd5b611f5c7ff9750bcb581e7bb3b087542f01fc7f9aaf695fcc764b130e8d0be391fa65879260001b610530565b611f887f8a95b5b50d939a18a9875955739b68f125d6bba99d3d16ac03b87df29ad4d34d60001b610530565b611fb47f7f2652a86be9ea79b7c86faf97476336ee960386bde9be175d091f4926eeed4860001b610530565b60018360080160146101000a81548160ff021916908315150217905550611ffd7fb94f5a0a8991f99aae0a9b710c509a7af7a4187af71b8ff9e4fef875127f771a60001b610530565b6120297f65a2f9c095fc8d9c2ee9469219b262e294052d4f1abe9e0889cc86aaadebd41d60001b610530565b6000612710600460149054906101000a900461ffff1661ffff168361204e919061554d565b612058919061551c565b90506120867f432cf6e5b69da8c7f08f7e69a08be50dc4257d830484d2fa0aa427b28e05fffd60001b610530565b6120b27ff008d7ca49bf99fd5ceb4e6775bca06f7d6df6e250d67aa6c51331d20a2d658b60001b610530565b8360000160019054906101000a900473ffffffffffffffffffffffffffffffffffffffff1673ffffffffffffffffffffffffffffffffffffffff166108fc82846120fc91906155a7565b9081150290604051600060405180830381858888f19350505050506121437fa32605c35193db85cfdbfa467357f1e7bfef427988c8b174b5c74b564a76f4a760001b610530565b61216f7fdd3dfa17b1df077b28f1cc97921ac484c24f5a0827deb8f33a974e73e26e893c60001b610530565b600460009054906101000a900473ffffffffffffffffffffffffffffffffffffffff1673ffffffffffffffffffffffffffffffffffffffff166108fc829081150290604051600060405180830381858888f19350505050506121f37f9b2e34d45a05e2014c398b0a3077385848762cf7df59a217953e8ce1951cf1a960001b610530565b61221f7f37ac6833238dce29fec7134329c5411c3d2dd8ff121f31a0d09aea65ff0997c160001b610530565b813411156122f1576122537ff756a6be86d5b6c036a4a08570d796e5906aa773dfc37171ff05ce4ba50b8d6560001b610530565b61227f7f10f468e40a2ac49476db16cba6c5e42746e2f460fca2f08b9f817ced3e22aabe60001b610530565b6122ab7fbadaf6fad0231284a8e778a8c218d60d520b9809bea1b7adcf5943ab02a3226a60001b610530565b3373ffffffffffffffffffffffffffffffffffffffff166108fc83346122d191906155a7565b9081150290604051600060405180830381858888f193505050505061231e565b61231d7fb1237e1230add014d1b9f755497f0d4de2a1fadc119e4fcb82fb850e649c713d60001b610530565b5b61234a7fb716ee86e5bc9f9a7ef8503041742717983a4f1f0db58f59284197efdbb95c4160001b610530565b6123767f453bb2748d3fc2d54d2705e9c2c5ec3f38dc4edfaecf16cd663858dd1ce0f5dd60001b610530565b8360010160009054906101000a900473ffffffffffffffffffffffffffffffffffffffff1673ffffffffffffffffffffffffffffffffffffffff166342842e0e303387600201546040518463ffffffff1660e01b81526004016123db9392919061504c565b600060405180830381600087803b1580156123f557600080fd5b505af1158015612409573d6000803e3d6000fd5b505050506124397f8055ff3685ffdb5c015764d9862b7a2484acb26bd54e77499da4675ea5efa1a760001b610530565b6124657fd93494f703c0211565e103477cdc5183241005b6cbee3fc6304636c8f936d5cb60001b610530565b848460010160009054906101000a900473ffffffffffffffffffffffffffffffffffffffff1673ffffffffffffffffffffffffffffffffffffffff167f37a6d1163573be2522695f96cbee3037bf297187c0378e8903ac1ae0192f699f86600201548760000160019054906101000a900473ffffffffffffffffffffffffffffffffffffffff1633876040516124fe9493929190615338565b60405180910390a35050505050565b60008060009054906101000a900473ffffffffffffffffffffffffffffffffffffffff16905090565b6125627f1c0728f6c12602d19c165d6c399aa8dc7990008bbbff2970e8522a6bfaa04df760001b610530565b61258e7f868e3cecd78d6f5b762b2f4cbc6f1a0429921347997b8ab15b107142ea1db95a60001b610530565b6125ba7f1e0a052c4c6f53cdb166ac896efe739a55067737e9d96f9d770d1d78b6df3b1e60001b610530565b60006003600083815260200190815260200160002090506125fd7f295b39bf34e2ca3d165c39201a41090a015182246610249ec6ce75f21e42f59160001b610530565b6126297fd2a6ad638523e5af04259c66540b1dc21b306dc8be9c806c8361cd75f2f9145f60001b610530565b60008160060154905061265e7fb14ae825690dc91a96cd3898caba39d076ab3db1b7990c55fd82ec91c999b7f160001b610530565b61268a7f5b58e2dec8ea1567aed9924ad936039d7e479bc03e1959827f07c5f0357cf53f60001b610530565b6000826007015490506126bf7f4a2515325523e212e4682754bb3861195a096ccda621bed5fc573357089fc8a660001b610530565b6126eb7f7c2006f79d82dfe890ab12a848dc8974df2a796d7b964e84888c99d19e2b0cd960001b610530565b60008360080160009054906101000a900473ffffffffffffffffffffffffffffffffffffffff1690506127407f20900d0c3b55e5dc8d86a0d5c411bc7518075832b8b94cb97a7bad5a7d74ecbb60001b610530565b61276c7f4de7b88e7ab8bd9ef29b135c131a180fd6615e490ec9cc456a92d7c57caf92a060001b610530565b6127987fad7bfbe8f4e43a33b6abecb04e404f9c63daa7f454687c1b28c9162a06e6f90b60001b610530565b60028460000160009054906101000a900460ff1660ff16146127ef576040517f08c379a00000000000000000000000000000000000000000000000000000000081526004016127e6906150b9565b60405180910390fd5b61281b7f2e8a85703d7b739845f2bbb18324844ce0ddf0db5550ce0c4f9afd791707c65760001b610530565b6128477fb31e5dfbafbc99968bb6df1d3ae8b7e2a0a7dff713d279506a6b48e9679eb24b60001b610530565b6128737fc3c514b97a98c516f8ea019e1d675dad6b104b913ab4a60c292079e86d90a91f60001b610530565b61289f7fe65e1252057149036ccf4f81d8064fc00d5297aa44d449842032d06d051a536d60001b610530565b60008314156128e3576040517f08c379a00000000000000000000000000000000000000000000000000000000081526004016128da90615239565b60405180910390fd5b61290f7f89dcf3a3c5b15d38403c8809f02c91e24d17d2c2bc77794cb7a8b869775a8fd360001b610530565b61293b7fdae5d3128907273d86ef7ac2e60d6a0ecdb0b1d1e86c4550c345cc3ae87bca6c60001b610530565b6129677fd377852f6cb7081668e11c67174d144a1af2e5674e9be0b91dc7d5ac1444e0ed60001b610530565b6129937f74f54b0187c6ce70b23a93096ca358ec04b6284d0f8dd1ff17162f8b139b5e8660001b610530565b824311156129d6576040517f08c379a00000000000000000000000000000000000000000000000000000000081526004016129cd906152b9565b60405180910390fd5b612a027fb29b2fe1128f633eecb6e2f62835100dd1875de74e005c281d7989354573524160001b610530565b612a2e7fdb5d789299649f382396072d26d0c46442e0404765e15e5a61f8207e1de889c360001b610530565b612a5a7f6a91a124bb31a58c5c12490abe5a2d5b83687f467d677ad59f9ae061df670a3a60001b610530565b612a867f27f7a0b9b61f8df00978fa9911ddeec0535a0dc9042ec59ed03638392b024d9d60001b610530565b3373ffffffffffffffffffffffffffffffffffffffff168460000160019054906101000a900473ffffffffffffffffffffffffffffffffffffffff1673ffffffffffffffffffffffffffffffffffffffff161415612b19576040517f08c379a0000000000000000000000000000000000000000000000000000000008152600401612b10906151b9565b60405180910390fd5b612b457f34a98c7d8dde4b3886dfdd3a06207fb9c3d2abc8a72adad3de4a91429498dc1660001b610530565b612b717f44142e0cfab4f7daa9fbbd1660b57d2a1724922707fae58634010c71ad6d1dd960001b610530565b612b9d7f40d8ce0079c74240704a70c034d36f4795d6ec548f01832bc0b42c902c31d8ec60001b610530565b60008214612ce057612bd17f04e31fc99db4e48c3adc22f30bbd1fc2854c35f3389ee522796a1a8423d544ec60001b610530565b612bfd7fa5570e57b2eb89cafaa898a5091f781e904e4e321fd3d544144227cc02cfe7a960001b610530565b612c297fc97755dccfce2c88b0a9603d1d6c645586ccda0fffeebeedbe0d4c8c2a510c9c60001b610530565b612c557fab7f479ba15d2719099ae5239b5ef9dd65497e6048b04c56e731b378cc62834260001b610530565b601482612c62919061551c565b82612c6d91906154c6565b341015612caf576040517f08c379a0000000000000000000000000000000000000000000000000000000008152600401612ca690615119565b60405180910390fd5b612cdb7fca2dd8877c3516bcadbfccfdadd67605d8bcce044e4e58d2997adc042c54db6e60001b610530565b612e10565b612d0c7f4bb697e83dac5e97b87bd272238748996f827383f2faeb185f0449847d28fb4660001b610530565b612d387f0f8fce6006c9c0c1b249e571d43bfce43a5d14853f6ec038870e1018d95ecb9260001b610530565b612d647fcdc94c264aeec73404383fe4e4e15bbc0c6b10ab022521b3e3bff9db1b04f6bf60001b610530565b612d907f55384fa86a5a87cf8466e4129e639591e06bab4acecd142d2bd815145d08a0c960001b610530565b83600301543410158015612da45750600034115b612de3576040517f08c379a0000000000000000000000000000000000000000000000000000000008152600401612dda90615119565b60405180910390fd5b612e0f7f7e17c4c399f96d01b2157207badb374310f692231c62ea7031ed1ea4942745f560001b610530565b5b612e3c7ffb80a453b8d0e5462b8a35b83a542d682e5e739a7ed0031e7ef74b51d3e1d46d60001b610530565b612e687f04a3829a14550d90e3cd5faf89c5f312ac446eaa817f3b27d5afbbcf74935cf960001b610530565b601483612e7591906155a7565b431115612f1a57612ea87fd84edfa5ffd3916d5f0a8a9b78bdf5f0a210d2079574e14e2359fcad4e78076160001b610530565b612ed47fd3fc8f60fbca1753c4a90d9707f458117e625abeb4f216e370c7b7c100019b3d60001b610530565b612f007f8d858ad3fcdf58732879dff51c0ab3ec4532894c0c93cc398380a9bb8a17391660001b610530565b601483612f0d91906154c6565b8460060181905550612f47565b612f467f4402b2678d9a084034333d86f63d1c48f4efd8267e3a657f60d33c38a26865c860001b610530565b5b612f737f432c12e9b826fb27cb4285b3a68b0d801c7b9127cd32b195138b5f0026615ac260001b610530565b612f9f7fb101ed8a19d62e325b86837d033e3d7e7d9c6d9ac784e7f8f864cd4f0ff2983e60001b610530565b338460080160006101000a81548173ffffffffffffffffffffffffffffffffffffffff021916908373ffffffffffffffffffffffffffffffffffffffff16021790555061300e7f1229d88fb35e353d4671c8b590b8073b743632905c74be07caf31c0689f0ae3f60001b610530565b61303a7f6dec39ea739628778e198e95e242dd2882b9fa0edfa82ce0d9fc8c88df50b9da60001b610530565b34846007018190555061306f7f78cffe1960c780ac3b26cd8ae1fb6bc4e48a844406109a01640595158a78280160001b610530565b61309b7f94ed46770dcdaa8f6dc5eada086373512b9da22bef835c157391be0a573ba90360001b610530565b60008214613162576130cf7f1ea095e1ed43b30c6691a8978d3d3f3daa2794262658e27fcb85195b9b93f34f60001b610530565b6130fb7f70dbce9795b8f341edf8fa06af032fa3222f1300234265ef2c5f791bf6fb8ed960001b610530565b6131277fa70e5fd238bfdd53ecd9a95dab7f0312e427cd7087164a2dfa0bb24d79dd393b60001b610530565b8073ffffffffffffffffffffffffffffffffffffffff166108fc839081150290604051600060405180830381858888f193505050505061318f565b61318e7ff48f6533b45a0bc686b2ee3d723b93b46afbbf1bacdf9850d7e69ce20d3fdf6e60001b610530565b5b6131bb7f22288be8b9d61ced7b0f1d89d84949b9541323cab656f64290d78f6ff9a6da1760001b610530565b6131e77fd6ca32cc5f879fd547500baf006c2116c0214af99cf69e8a746a217a0a760b1160001b610530565b848460010160009054906101000a900473ffffffffffffffffffffffffffffffffffffffff1673ffffffffffffffffffffffffffffffffffffffff167f7f99059564a74b5d2e3fbf994dec403ab0af5688c9a4e86ca2a933688eaf223b8660020154333460405161325a9392919061537d565b60405180910390a35050505050565b6132716148a7565b73ffffffffffffffffffffffffffffffffffffffff1661328f61250d565b73ffffffffffffffffffffffffffffffffffffffff16146132e5576040517f08c379a00000000000000000000000000000000000000000000000000000000081526004016132dc906151d9565b60405180910390fd5b6133117f742dddd2713548a0faca92c28bf216087d1068c8efcd6e94211c3d0a0332606460001b610530565b61333d7f1659d0318a2f94ae8fb5177dff800bd114b4cc5bae9df39ea6cd12e2153d4d5460001b610530565b6133697f57f3b53e00e14c1f5f09bf4aa76dfa791ef1af43a10dea6a3c197e1d3d709f4a60001b610530565b6133957f9a754fa89469751bb46f9879fbfdc766f7d36ce5022dff24cc649790700fe32360001b610530565b6127108161ffff1611156133de576040517f08c379a00000000000000000000000000000000000000000000000000000000081526004016133d5906151f9565b60405180910390fd5b61340a7fd6585bf8ef82932d35941fa1b0e10f290e2d8f79af0d8e4b933503e493830c3960001b610530565b6134367f128981378cbd2a16c299fe1c83fdd009b8b39077c25095c5e91a26e8c66717bd60001b610530565b6134627f52fbb500cbe567da5344b58195e2be54df41d84d2974dbe04e2ddfa299b1328660001b610530565b80600460146101000a81548161ffff021916908361ffff16021790555050565b6134ae7f7e93c15c22a38b8bf98e6e23001c6d4e9b55ad46c26cdcae61ad6085b2ffcd5260001b610530565b6134da7ff4545f622b1aa8c5c3e9a6b7e77b669a74ac74f152dcb3abe1023e3589ea0e8d60001b610530565b6135067f28c6633e97fde7eb942a68508aaafaf0661dc6e6aba107761f0f7122c9e4fd3360001b610530565b60006003600083815260200190815260200160002090506135497ffa637a9b41afe590daf9bfefc30fa4b3cc383564bdaf31ddfdc430a66cf6c34a60001b610530565b6135757fbe49329c7c27933b61553b97573d010e2b5847fe72711068aef926e5706ef1d060001b610530565b60008160000160019054906101000a900473ffffffffffffffffffffffffffffffffffffffff1690506135ca7fb07168cc029527650f2082659631e2143366c367bbed71d8fbb0fa4609679db460001b610530565b6135f67f449e0cdf5e5b11c9c063659090dc9fa974e7eaa9be8c5bcab15658aee9ec54aa60001b610530565b60008260080160009054906101000a900473ffffffffffffffffffffffffffffffffffffffff16905061364b7f66de7ddfe030bb17e26319c4b10b469165e2d2e625365aaed3ac75bf5727babb60001b610530565b6136777f49c3776b5d1b0cc701121e1ec0f2e08ed6a39e174260571072c2fdd545556ee860001b610530565b6136a37fc3b13bdbfa15ef86e9a3478562f8b14dd3ba664840a39dd54ce9f8955d0703d760001b610530565b600015158360080160149054906101000a900460ff161515146136fb576040517f08c379a00000000000000000000000000000000000000000000000000000000081526004016136f290615299565b60405180910390fd5b6137277fb5fb523385494cd3f41454f5416509e14e5dbc051ae6129a41dc0e3cd1ab83da60001b610530565b6137537fdaecdc10ed68e63e065458e4e7919c45cee7a284b66b2094289bb9b2fedde9fe60001b610530565b61377f7f92f1f60db4dcd4e9576f26b8064259f2f5000e4f21aa370f7820b553a5317f5660001b610530565b6137ab7f41ac1cf5a70af8efafa7dcba46efeea45d1d6b398397b184c8e34c0a2630b79460001b610530565b3373ffffffffffffffffffffffffffffffffffffffff168273ffffffffffffffffffffffffffffffffffffffff16148061381057503373ffffffffffffffffffffffffffffffffffffffff168173ffffffffffffffffffffffffffffffffffffffff16145b61384f576040517f08c379a000000000000000000000000000000000000000000000000000000000815260040161384690615279565b60405180910390fd5b61387b7fd3e38c88b6d0bf3c120c5bf3c7666be4511667884ab5a589dddf0567fe8556dc60001b610530565b6138a77f86f8b14029719ad6f276c34bf0ca43bce875cbc2fd7535e8bc162e5e91aee21e60001b610530565b6138d37fce05836540b2ae336b28f581d8e9504b60388bfa73bbf6184f2276cf8951f2da60001b610530565b6138ff7f2f879524841e90b2fe5c5fc45a31226e4cc70477a6559efbbfd2fd70875c657f60001b610530565b60028360000160009054906101000a900460ff1660ff1614613956576040517f08c379a000000000000000000000000000000000000000000000000000000000815260040161394d90615219565b60405180910390fd5b6139827f7b1dbd92c6ea66dc618b367f2eb6215aae41f54b8dfc40515ddd9c586e7b57ca60001b610530565b6139ae7f5b1986bd43b481b084d5e8cc152dd55ab9f18fc98ce50f9b1fc4536ce2fbb9c560001b610530565b6139da7fa46507485704299845a024776126de8b554280be318846906a4eabaf6072f92d60001b610530565b613a067f62a33f9392284d246f4134ff96188c4ec9401137d386956329738588b140762f60001b610530565b82600601544311613a4c576040517f08c379a0000000000000000000000000000000000000000000000000000000008152600401613a4390615159565b60405180910390fd5b613a787f093d88559e1b282de70d023abb42c8fa3e502d4ad80e04af0861b116f9a4565f60001b610530565b613aa47f44ae342470619a19164143590ec5bca58fe636cd634f00ecc50be5832bdc1ffe60001b610530565b613ad07f502e1062af2b9f9a25af507f39115c9ae126e1eb9adca8a4dd50176064b924f560001b610530565b60008360010160009054906101000a900473ffffffffffffffffffffffffffffffffffffffff169050613b257fe4a0eb23ddd01d9e94d418cbf66375f2944499dbf66de7d2baa2957ae06747aa60001b610530565b613b517f97a68689704ee9674e050a24b06ec3c966e65b1f771437ad056704ce7650c45e60001b610530565b600084600201549050613b867fcfbdd1460a3295edcb8fa79532d27de406f5af2b08306d2c35712d60637ff2b360001b610530565b613bb27f17bdad65dfba5504db0233235217c8d178b7d5a94f445ece6e3cbed5a618af2360001b610530565b600085600701549050613be77f82b4aa67a622a95ab847e3888d2d6b48b20d4b231405b1a08248ab523b1291d760001b610530565b613c137f7b5b73f67cd552806e7d3c28c493d7812eeeca018124519362ba58c4ac9c19ff60001b610530565b6000612710600460149054906101000a900461ffff1661ffff1683613c38919061554d565b613c42919061551c565b9050613c707f3bfb228b6419234dc03dee09e6e87449486191d38e83d02cca50df13c9d506cc60001b610530565b613c9c7f91c257f3ff3d5cffd8195a3124f972596988fcf2a16b2e65eeb54015a99acaf660001b610530565b60018760080160146101000a81548160ff021916908315150217905550613ce57ff1208171707a28b7bca8b41a7ba330d66814d34a01c926dda3a6c9d371aba1f460001b610530565b613d117fa6dc29bbf5e8070799ee88ca41b6edad06e289fd3c10ec0d5a574b9ecc15afc460001b610530565b8573ffffffffffffffffffffffffffffffffffffffff166108fc8284613d3791906155a7565b9081150290604051600060405180830381858888f1935050505050613d7e7f56d3a5f28225f1b40e9e0752fdc4db8f8677abd63576c7ea79b25e2aa1a31e7760001b610530565b613daa7f2059ee799b43f367a70435bc74fe787ee1fc9e94318856d6a3810fe7811565ba60001b610530565b600460009054906101000a900473ffffffffffffffffffffffffffffffffffffffff1673ffffffffffffffffffffffffffffffffffffffff166108fc829081150290604051600060405180830381858888f1935050505050613e2e7f8b18fa7bf96cc1ae7b18abee8121a500a0418d4973c0eb455bc435131eb5659c60001b610530565b613e5a7f36729837dcdc12fd39f4299e7e7cb0e4cbb8fb97f6b9f627c91e04375751efe960001b610530565b8373ffffffffffffffffffffffffffffffffffffffff166342842e0e3087866040518463ffffffff1660e01b8152600401613e979392919061504c565b600060405180830381600087803b158015613eb157600080fd5b505af1158015613ec5573d6000803e3d6000fd5b50505050613ef57f171ec852646ea8762fe9f81d24024de309fd692c3fafdb9528233a9aa3ac9f9e60001b610530565b613f217f4313f8086085bc3b46fb4e32043824e3583bbb939195cbcb020133f6184457ee60001b610530565b878473ffffffffffffffffffffffffffffffffffffffff167f37a6d1163573be2522695f96cbee3037bf297187c0378e8903ac1ae0192f699f85898987604051613f6e9493929190615338565b60405180910390a35050505050505050565b613f886148a7565b73ffffffffffffffffffffffffffffffffffffffff16613fa661250d565b73ffffffffffffffffffffffffffffffffffffffff1614613ffc576040517f08c379a0000000000000000000000000000000000000000000000000000000008152600401613ff3906151d9565b60405180910390fd5b600073ffffffffffffffffffffffffffffffffffffffff168173ffffffffffffffffffffffffffffffffffffffff16141561406c576040517f08c379a0000000000000000000000000000000000000000000000000000000008152600401614063906150f9565b60405180910390fd5b8073ffffffffffffffffffffffffffffffffffffffff1660008054906101000a900473ffffffffffffffffffffffffffffffffffffffff1673ffffffffffffffffffffffffffffffffffffffff167f8be0079c531659141344cd1fd0a4f28419497f9722a3daafe3b4186f6b6457e060405160405180910390a3806000806101000a81548173ffffffffffffffffffffffffffffffffffffffff021916908373ffffffffffffffffffffffffffffffffffffffff16021790555050565b6141557f957299c03f00bf9a697c38c8331a51982ff0d43669e03d99bcb10a04e08d87c560001b610530565b6141817fd86e0f1ffa2c8ff87b5742436e1360ed6d7fd7229aa68799947cc32db12a861b60001b610530565b6141ad7fce3c3b5f7ee4c04ce56d3b83b7c2d574c6bd30ae3a304e4ec417608cf63ca0ae60001b610530565b6141bd60028585856000866141c3565b50505050565b6141ef7fde9f8d0f44e4142c643d63d062297a7be22a7a846225226b1489644ebfcd77d560001b610530565b61421b7f7229fe1cde61256c4eb1a3ec96910debf4f64b80076ed5fe0e0bc46745e2a1c260001b610530565b6142477fa149ca5ff6eba9822df399b95fb6303581c18569c16c604a511d56dc2984b32d60001b610530565b6142737f3790a9b9c8ec1aa2597240b8b21743a11d6e60e9f34f756de7fd4f37bdefd99f60001b610530565b4381116142b5576040517f08c379a00000000000000000000000000000000000000000000000000000000081526004016142ac906150d9565b60405180910390fd5b6142e17fa321e50c4f527cbe87f49671ce81dfbc5f78a92445ed8817ee5329d17e006a7660001b610530565b61430d7fe1036b1eb7ed501db05b46eefb2780dde1b5cc9832857c456796772209ff7c3a60001b610530565b6143397f05cf9448ec72f49c6c9d1bfec0cbc5eeb97cda54df2b1af181f1d5720b1d227860001b610530565b60006143468686336148af565b90506143747f75c37b6154e9d7bb39a1b0816b1f07c0148d03e3cfc5237cefb17c37fc7128b260001b610530565b6143a07f6f7e7aa380339f0766a93a733e3f159ddbfafd898b35147fd08ab253dbbb06ca60001b610530565b6040518061016001604052808860ff1681526020013373ffffffffffffffffffffffffffffffffffffffff1681526020018773ffffffffffffffffffffffffffffffffffffffff16815260200186815260200185815260200184815260200143815260200183815260200160008152602001600073ffffffffffffffffffffffffffffffffffffffff168152602001600015158152506003600083815260200190815260200160002060008201518160000160006101000a81548160ff021916908360ff16021790555060208201518160000160016101000a81548173ffffffffffffffffffffffffffffffffffffffff021916908373ffffffffffffffffffffffffffffffffffffffff16021790555060408201518160010160006101000a81548173ffffffffffffffffffffffffffffffffffffffff021916908373ffffffffffffffffffffffffffffffffffffffff160217905550606082015181600201556080820151816003015560a0820151816004015560c0820151816005015560e0820151816006015561010082015181600701556101208201518160080160006101000a81548173ffffffffffffffffffffffffffffffffffffffff021916908373ffffffffffffffffffffffffffffffffffffffff1602179055506101408201518160080160146101000a81548160ff0219169083151502179055509050506145cd7f3c39e5ffc28ad4e7ed4a950b9ea8295185bc822aaa2db0a2e49e2d586afeb17260001b610530565b6145f97f1b8e2511aed89551e822d8850b555b55ff67ec40420c5a06f3b70c7e73e0f94d60001b610530565b600160008773ffffffffffffffffffffffffffffffffffffffff1673ffffffffffffffffffffffffffffffffffffffff168152602001908152602001600020600086815260200190815260200160002081908060018154018082558091505060019003906000526020600020016000909190919091505561469c7f2407fa6c8aebd88253e3df3cc1522adb4e8bc6376196a68ef4cf52fc2dd8849360001b610530565b6146c87fcebe358265fa54f0ff38d9336ac8a0191d4f2878aa68c3451822fc67f99ca42d60001b610530565b600260003373ffffffffffffffffffffffffffffffffffffffff1673ffffffffffffffffffffffffffffffffffffffff16815260200190815260200160002081908060018154018082558091505060019003906000526020600020016000909190919091505561475a7f77909be72eb68c9054ebae2de5b25d087d23e0717cfe72aae3e50b169265422b60001b610530565b6147867f193521c8e58e7cedaa8a403837544bdfd11c415fbdc79d9fe39f03a4c03517c260001b610530565b8573ffffffffffffffffffffffffffffffffffffffff166342842e0e3330886040518463ffffffff1660e01b81526004016147c39392919061504c565b600060405180830381600087803b1580156147dd57600080fd5b505af11580156147f1573d6000803e3d6000fd5b505050506148217f3abb53cb4a1be1db148d426a9f23a29045b282414dda4d366d807087f8f36d7760001b610530565b61484d7f2213906ce58a857fbc35509ac76acdcac30f5de393abc9a41f2760bfe7364dbe60001b610530565b808673ffffffffffffffffffffffffffffffffffffffff167f165b17602125a20b222f9736f06d776e39507d7dc60ddef32ccc23ea2f1b50e5873360405161489692919061530f565b60405180910390a350505050505050565b600033905090565b60006148dd7fb6a2243c3ca669d85a3b79fb0fb48f01d37a9a30439d3d2fc4e50622c8561b1460001b610530565b6149097f7edaeaf2dabf9ae0d2d6ece2b86b8c32af09ff90879add34396509f9da6360be60001b610530565b6149357f44ac45a4175cff213c584afc6e8339157326fa31751c68a74bf855aad7c0e04e60001b610530565b4384848460405160200161494c9493929190614fe3565b6040516020818303038152906040528051906020012090509392505050565b600061497e61497984615484565b61545f565b90508281526020810184848401111561499657600080fd5b6149a18482856156aa565b509392505050565b6000813590506149b881615aee565b92915050565b6000813590506149cd81615b05565b92915050565b600082601f8301126149e457600080fd5b81356149f484826020860161496b565b91505092915050565b600081359050614a0c81615b1c565b92915050565b600081359050614a2181615b33565b92915050565b600081359050614a3681615b4a565b92915050565b600060208284031215614a4e57600080fd5b6000614a5c848285016149a9565b91505092915050565b60008060008060808587031215614a7b57600080fd5b6000614a89878288016149a9565b9450506020614a9a878288016149a9565b9350506040614aab87828801614a27565b925050606085013567ffffffffffffffff811115614ac857600080fd5b614ad4878288016149d3565b91505092959194509250565b60008060408385031215614af357600080fd5b6000614b01858286016149a9565b9250506020614b1285828601614a27565b9150509250929050565b600060208284031215614b2e57600080fd5b6000614b3c848285016149be565b91505092915050565b60008060408385031215614b5857600080fd5b6000614b66858286016149fd565b9250506020614b7785828601614a27565b9150509250929050565b600080600060608486031215614b9657600080fd5b6000614ba4868287016149fd565b9350506020614bb586828701614a27565b9250506040614bc686828701614a27565b9150509250925092565b60008060008060808587031215614be657600080fd5b6000614bf4878288016149fd565b9450506020614c0587828801614a27565b9350506040614c1687828801614a27565b9250506060614c2787828801614a27565b91505092959194509250565b600080600080600060a08688031215614c4b57600080fd5b6000614c59888289016149fd565b9550506020614c6a88828901614a27565b9450506040614c7b88828901614a27565b9350506060614c8c88828901614a27565b9250506080614c9d88828901614a27565b9150509295509295909350565b600060208284031215614cbc57600080fd5b6000614cca84828501614a12565b91505092915050565b614cdc816155db565b82525050565b614cf3614cee826155db565b6156ea565b82525050565b614d02816155ed565b82525050565b614d11816155f9565b82525050565b614d2081615603565b82525050565b614d2f81615686565b82525050565b614d46614d4182615686565b6156ea565b82525050565b6000614d596018836154b5565b9150614d64826157c3565b602082019050919050565b6000614d7c601f836154b5565b9150614d87826157ec565b602082019050919050565b6000614d9f6026836154b5565b9150614daa82615815565b604082019050919050565b6000614dc2600d836154b5565b9150614dcd82615864565b602082019050919050565b6000614de5600b836154b5565b9150614df08261588d565b602082019050919050565b6000614e086007836154b5565b9150614e13826158b6565b602082019050919050565b6000614e2b600d836154b5565b9150614e36826158df565b602082019050919050565b6000614e4e6016836154b5565b9150614e5982615908565b602082019050919050565b6000614e716019836154b5565b9150614e7c82615931565b602082019050919050565b6000614e946020836154b5565b9150614e9f8261595a565b602082019050919050565b6000614eb7601d836154b5565b9150614ec282615983565b602082019050919050565b6000614eda6024836154b5565b9150614ee5826159ac565b604082019050919050565b6000614efd600e836154b5565b9150614f08826159fb565b602082019050919050565b6000614f20602a836154b5565b9150614f2b82615a24565b604082019050919050565b6000614f43600d836154b5565b9150614f4e82615a73565b602082019050919050565b6000614f66600c836154b5565b9150614f7182615a9c565b602082019050919050565b6000614f896009836154b5565b9150614f9482615ac5565b602082019050919050565b614fa881615641565b82525050565b614fb78161566f565b82525050565b614fce614fc98261566f565b61570e565b82525050565b614fdd81615679565b82525050565b6000614fef8287614fbd565b602082019150614fff8286614d35565b60148201915061500f8285614fbd565b60208201915061501f8284614ce2565b60148201915081905095945050505050565b60006020820190506150466000830184614cd3565b92915050565b60006060820190506150616000830186614cd3565b61506e6020830185614cd3565b61507b6040830184614fae565b949350505050565b60006020820190506150986000830184614d08565b92915050565b60006020820190506150b36000830184614d17565b92915050565b600060208201905081810360008301526150d281614d4c565b9050919050565b600060208201905081810360008301526150f281614d6f565b9050919050565b6000602082019050818103600083015261511281614d92565b9050919050565b6000602082019050818103600083015261513281614db5565b9050919050565b6000602082019050818103600083015261515281614dd8565b9050919050565b6000602082019050818103600083015261517281614dfb565b9050919050565b6000602082019050818103600083015261519281614e1e565b9050919050565b600060208201905081810360008301526151b281614e41565b9050919050565b600060208201905081810360008301526151d281614e64565b9050919050565b600060208201905081810360008301526151f281614e87565b9050919050565b6000602082019050818103600083015261521281614eaa565b9050919050565b6000602082019050818103600083015261523281614ecd565b9050919050565b6000602082019050818103600083015261525281614ef0565b9050919050565b6000602082019050818103600083015261527281614f13565b9050919050565b6000602082019050818103600083015261529281614f36565b9050919050565b600060208201905081810360008301526152b281614f59565b9050919050565b600060208201905081810360008301526152d281614f7c565b9050919050565b60006020820190506152ee6000830184614f9f565b92915050565b60006020820190506153096000830184614fae565b92915050565b60006040820190506153246000830185614fae565b6153316020830184614cd3565b9392505050565b600060808201905061534d6000830187614fae565b61535a6020830186614cd3565b6153676040830185614cd3565b6153746060830184614fae565b95945050505050565b60006060820190506153926000830186614fae565b61539f6020830185614cd3565b6153ac6040830184614fae565b949350505050565b6000610160820190506153ca600083018e614fd4565b6153d7602083018d614cd3565b6153e4604083018c614d26565b6153f1606083018b614fae565b6153fe608083018a614fae565b61540b60a0830189614fae565b61541860c0830188614fae565b61542560e0830187614fae565b615433610100830186614fae565b615441610120830185614cd3565b61544f610140830184614cf9565b9c9b505050505050505050505050565b600061546961547a565b905061547582826156b9565b919050565b6000604051905090565b600067ffffffffffffffff82111561549f5761549e615776565b5b6154a8826157a5565b9050602081019050919050565b600082825260208201905092915050565b60006154d18261566f565b91506154dc8361566f565b9250827fffffffffffffffffffffffffffffffffffffffffffffffffffffffffffffffff0382111561551157615510615718565b5b828201905092915050565b60006155278261566f565b91506155328361566f565b92508261554257615541615747565b5b828204905092915050565b60006155588261566f565b91506155638361566f565b9250817fffffffffffffffffffffffffffffffffffffffffffffffffffffffffffffffff048311821515161561559c5761559b615718565b5b828202905092915050565b60006155b28261566f565b91506155bd8361566f565b9250828210156155d0576155cf615718565b5b828203905092915050565b60006155e68261564f565b9050919050565b60008115159050919050565b6000819050919050565b60007fffffffff0000000000000000000000000000000000000000000000000000000082169050919050565b600061563a826155db565b9050919050565b600061ffff82169050919050565b600073ffffffffffffffffffffffffffffffffffffffff82169050919050565b6000819050919050565b600060ff82169050919050565b600061569182615698565b9050919050565b60006156a38261564f565b9050919050565b82818337600083830152505050565b6156c2826157a5565b810181811067ffffffffffffffff821117156156e1576156e0615776565b5b80604052505050565b60006156f5826156fc565b9050919050565b6000615707826157b6565b9050919050565b6000819050919050565b7f4e487b7100000000000000000000000000000000000000000000000000000000600052601160045260246000fd5b7f4e487b7100000000000000000000000000000000000000000000000000000000600052601260045260246000fd5b7f4e487b7100000000000000000000000000000000000000000000000000000000600052604160045260246000fd5b6000601f19601f8301169050919050565b60008160601b9050919050565b7f6f6e6c7920666f7220456e676c6973682041756374696f6e0000000000000000600082015250565b7f4475726174696f6e206d757374206265206d6f7265207468616e207a65726f00600082015250565b7f4f776e61626c653a206e6577206f776e657220697320746865207a65726f206160008201527f6464726573730000000000000000000000000000000000000000000000000000602082015250565b7f6c6f772070726963652062696400000000000000000000000000000000000000600082015250565b7f7072696365206572726f72000000000000000000000000000000000000000000600082015250565b7f4e6f742079657400000000000000000000000000000000000000000000000000600082015250565b7f42696464696e6720657869737400000000000000000000000000000000000000600082015250565b7f49742773206120456e676c6973682041756374696f6e00000000000000000000600082015250565b7f43616e206e6f742062696420746f20796f7572206f7264657200000000000000600082015250565b7f4f776e61626c653a2063616c6c6572206973206e6f7420746865206f776e6572600082015250565b7f696e7075742076616c7565206973206d6f7265207468616e2031303025000000600082015250565b7f546869732066756e6374696f6e20697320666f7220456e676c6973682041756360008201527f74696f6e00000000000000000000000000000000000000000000000000000000602082015250565b7f43616e63656c6564206f72646572000000000000000000000000000000000000600082015250565b7f456e642070726963652073686f756c64206265206c6f776572207468616e207360008201527f7461727420707269636500000000000000000000000000000000000000000000602082015250565b7f4163636573732064656e69656400000000000000000000000000000000000000600082015250565b7f416c726561647920736f6c640000000000000000000000000000000000000000600082015250565b7f49742773206f7665720000000000000000000000000000000000000000000000600082015250565b615af7816155db565b8114615b0257600080fd5b50565b615b0e816155f9565b8114615b1957600080fd5b50565b615b258161562f565b8114615b3057600080fd5b50565b615b3c81615641565b8114615b4757600080fd5b50565b615b538161566f565b8114615b5e57600080fd5b5056fea26469706673582212205f5cce18b4a99214d5e7ec022e5aac90264a6040b3cbbdbc7a11805635a820ca64736f6c63430008030033",
  "linkReferences": {},
  "deployedLinkReferences": {}
}