{
  "_format": "hh-sol-artifact-1",
  "contractName": "NFTEX",
  "sourceName": "contracts/NFTEX.sol",
  "abi": [
    {
      "inputs": [
        {
          "internalType": "uint16",
          "name": "_feePercent",
          "type": "uint16"
        }
      ],
      "stateMutability": "nonpayable",
      "type": "constructor"
    },
    {
      "anonymous": false,
      "inputs": [
        {
          "indexed": true,
          "internalType": "contract IERC721",
          "name": "token",
          "type": "address"
        },
        {
          "indexed": false,
          "internalType": "uint256",
          "name": "id",
          "type": "uint256"
        },
        {
          "indexed": true,
          "internalType": "bytes32",
          "name": "hash",
          "type": "bytes32"
        },
        {
          "indexed": false,
          "internalType": "address",
          "name": "bidder",
          "type": "address"
        },
        {
          "indexed": false,
          "internalType": "uint256",
          "name": "bidPrice",
          "type": "uint256"
        }
      ],
      "name": "Bid",
      "type": "event"
    },
    {
      "anonymous": false,
      "inputs": [
        {
          "indexed": true,
          "internalType": "contract IERC721",
          "name": "token",
          "type": "address"
        },
        {
          "indexed": false,
          "internalType": "uint256",
          "name": "id",
          "type": "uint256"
        },
        {
          "indexed": true,
          "internalType": "bytes32",
          "name": "hash",
          "type": "bytes32"
        },
        {
          "indexed": false,
          "internalType": "address",
          "name": "seller",
          "type": "address"
        }
      ],
      "name": "CancelOrder",
      "type": "event"
    },
    {
      "anonymous": false,
      "inputs": [
        {
          "indexed": true,
          "internalType": "contract IERC721",
          "name": "token",
          "type": "address"
        },
        {
          "indexed": false,
          "internalType": "uint256",
          "name": "id",
          "type": "uint256"
        },
        {
          "indexed": true,
          "internalType": "bytes32",
          "name": "hash",
          "type": "bytes32"
        },
        {
          "indexed": false,
          "internalType": "address",
          "name": "seller",
          "type": "address"
        },
        {
          "indexed": false,
          "internalType": "address",
          "name": "taker",
          "type": "address"
        },
        {
          "indexed": false,
          "internalType": "uint256",
          "name": "price",
          "type": "uint256"
        }
      ],
      "name": "Claim",
      "type": "event"
    },
    {
      "anonymous": false,
      "inputs": [
        {
          "indexed": true,
          "internalType": "contract IERC721",
          "name": "token",
          "type": "address"
        },
        {
          "indexed": false,
          "internalType": "uint256",
          "name": "id",
          "type": "uint256"
        },
        {
          "indexed": true,
          "internalType": "bytes32",
          "name": "hash",
          "type": "bytes32"
        },
        {
          "indexed": false,
          "internalType": "address",
          "name": "seller",
          "type": "address"
        }
      ],
      "name": "MakeOrder",
      "type": "event"
    },
    {
      "anonymous": false,
      "inputs": [
        {
          "indexed": true,
          "internalType": "address",
          "name": "previousOwner",
          "type": "address"
        },
        {
          "indexed": true,
          "internalType": "address",
          "name": "newOwner",
          "type": "address"
        }
      ],
      "name": "OwnershipTransferred",
      "type": "event"
    },
    {
      "inputs": [
        {
          "internalType": "contract IERC721",
          "name": "_token",
          "type": "address"
        },
        {
          "internalType": "uint256",
          "name": "_id",
          "type": "uint256"
        },
        {
          "internalType": "address",
          "name": "_seller",
          "type": "address"
        }
      ],
      "name": "_hash",
      "outputs": [
        {
          "internalType": "bytes32",
          "name": "",
          "type": "bytes32"
        }
      ],
      "stateMutability": "view",
      "type": "function"
    },
    {
      "inputs": [
        {
          "internalType": "bytes32",
          "name": "_order",
          "type": "bytes32"
        }
      ],
      "name": "bid",
      "outputs": [],
      "stateMutability": "payable",
      "type": "function"
    },
    {
      "inputs": [
        {
          "internalType": "bytes32",
          "name": "_order",
          "type": "bytes32"
        }
      ],
      "name": "buyItNow",
      "outputs": [],
      "stateMutability": "payable",
      "type": "function"
    },
    {
      "inputs": [
        {
          "internalType": "bytes32",
          "name": "_order",
          "type": "bytes32"
        }
      ],
      "name": "cancelOrder",
      "outputs": [],
      "stateMutability": "nonpayable",
      "type": "function"
    },
    {
      "inputs": [
        {
          "internalType": "bytes32",
          "name": "_order",
          "type": "bytes32"
        }
      ],
      "name": "claim",
      "outputs": [],
      "stateMutability": "nonpayable",
      "type": "function"
    },
    {
      "inputs": [
        {
          "internalType": "contract IERC721",
          "name": "_token",
          "type": "address"
        },
        {
          "internalType": "uint256",
          "name": "_id",
          "type": "uint256"
        },
        {
          "internalType": "uint256",
          "name": "_startPrice",
          "type": "uint256"
        },
        {
          "internalType": "uint256",
          "name": "_endPrice",
          "type": "uint256"
        },
        {
          "internalType": "uint256",
          "name": "_endBlock",
          "type": "uint256"
        }
      ],
      "name": "dutchAuction",
      "outputs": [],
      "stateMutability": "nonpayable",
      "type": "function"
    },
    {
      "inputs": [
        {
          "internalType": "contract IERC721",
          "name": "_token",
          "type": "address"
        },
        {
          "internalType": "uint256",
          "name": "_id",
          "type": "uint256"
        },
        {
          "internalType": "uint256",
          "name": "_startPrice",
          "type": "uint256"
        },
        {
          "internalType": "uint256",
          "name": "_endBlock",
          "type": "uint256"
        }
      ],
      "name": "englishAuction",
      "outputs": [],
      "stateMutability": "nonpayable",
      "type": "function"
    },
    {
      "inputs": [],
      "name": "feeAddress",
      "outputs": [
        {
          "internalType": "address",
          "name": "",
          "type": "address"
        }
      ],
      "stateMutability": "view",
      "type": "function"
    },
    {
      "inputs": [],
      "name": "feePercent",
      "outputs": [
        {
          "internalType": "uint16",
          "name": "",
          "type": "uint16"
        }
      ],
      "stateMutability": "view",
      "type": "function"
    },
    {
      "inputs": [
        {
          "internalType": "contract IERC721",
          "name": "_token",
          "type": "address"
        },
        {
          "internalType": "uint256",
          "name": "_id",
          "type": "uint256"
        },
        {
          "internalType": "uint256",
          "name": "_price",
          "type": "uint256"
        },
        {
          "internalType": "uint256",
          "name": "_endBlock",
          "type": "uint256"
        }
      ],
      "name": "fixedPrice",
      "outputs": [],
      "stateMutability": "nonpayable",
      "type": "function"
    },
    {
      "inputs": [
        {
          "internalType": "bytes32",
          "name": "_order",
          "type": "bytes32"
        }
      ],
      "name": "getCurrentPrice",
      "outputs": [
        {
          "internalType": "uint256",
          "name": "",
          "type": "uint256"
        }
      ],
      "stateMutability": "view",
      "type": "function"
    },
    {
      "inputs": [
        {
          "internalType": "address",
          "name": "",
          "type": "address"
        },
        {
          "internalType": "address",
          "name": "",
          "type": "address"
        },
        {
          "internalType": "uint256",
          "name": "",
          "type": "uint256"
        },
        {
          "internalType": "bytes",
          "name": "",
          "type": "bytes"
        }
      ],
      "name": "onERC721Received",
      "outputs": [
        {
          "internalType": "bytes4",
          "name": "",
          "type": "bytes4"
        }
      ],
      "stateMutability": "nonpayable",
      "type": "function"
    },
    {
      "inputs": [
        {
          "internalType": "address",
          "name": "",
          "type": "address"
        },
        {
          "internalType": "uint256",
          "name": "",
          "type": "uint256"
        }
      ],
      "name": "orderIdBySeller",
      "outputs": [
        {
          "internalType": "bytes32",
          "name": "",
          "type": "bytes32"
        }
      ],
      "stateMutability": "view",
      "type": "function"
    },
    {
      "inputs": [
        {
          "internalType": "contract IERC721",
          "name": "",
          "type": "address"
        },
        {
          "internalType": "uint256",
          "name": "",
          "type": "uint256"
        },
        {
          "internalType": "uint256",
          "name": "",
          "type": "uint256"
        }
      ],
      "name": "orderIdByToken",
      "outputs": [
        {
          "internalType": "bytes32",
          "name": "",
          "type": "bytes32"
        }
      ],
      "stateMutability": "view",
      "type": "function"
    },
    {
      "inputs": [
        {
          "internalType": "bytes32",
          "name": "",
          "type": "bytes32"
        }
      ],
      "name": "orderInfo",
      "outputs": [
        {
          "internalType": "uint8",
          "name": "orderType",
          "type": "uint8"
        },
        {
          "internalType": "address",
          "name": "seller",
          "type": "address"
        },
        {
          "internalType": "contract IERC721",
          "name": "token",
          "type": "address"
        },
        {
          "internalType": "uint256",
          "name": "tokenId",
          "type": "uint256"
        },
        {
          "internalType": "uint256",
          "name": "startPrice",
          "type": "uint256"
        },
        {
          "internalType": "uint256",
          "name": "endPrice",
          "type": "uint256"
        },
        {
          "internalType": "uint256",
          "name": "startBlock",
          "type": "uint256"
        },
        {
          "internalType": "uint256",
          "name": "endBlock",
          "type": "uint256"
        },
        {
          "internalType": "uint256",
          "name": "lastBidPrice",
          "type": "uint256"
        },
        {
          "internalType": "address",
          "name": "lastBidder",
          "type": "address"
        },
        {
          "internalType": "bool",
          "name": "isSold",
          "type": "bool"
        }
      ],
      "stateMutability": "view",
      "type": "function"
    },
    {
      "inputs": [],
      "name": "owner",
      "outputs": [
        {
          "internalType": "address",
          "name": "",
          "type": "address"
        }
      ],
      "stateMutability": "view",
      "type": "function"
    },
    {
      "inputs": [],
      "name": "renounceOwnership",
      "outputs": [],
      "stateMutability": "nonpayable",
      "type": "function"
    },
    {
      "inputs": [
        {
          "internalType": "address",
          "name": "_seller",
          "type": "address"
        }
      ],
      "name": "sellerOrderLength",
      "outputs": [
        {
          "internalType": "uint256",
          "name": "",
          "type": "uint256"
        }
      ],
      "stateMutability": "view",
      "type": "function"
    },
    {
      "inputs": [
        {
          "internalType": "address",
          "name": "_feeAddress",
          "type": "address"
        }
      ],
      "name": "setFeeAddress",
      "outputs": [],
      "stateMutability": "nonpayable",
      "type": "function"
    },
    {
      "inputs": [
        {
          "internalType": "contract IERC721",
          "name": "_token",
          "type": "address"
        },
        {
          "internalType": "uint256",
          "name": "_id",
          "type": "uint256"
        }
      ],
      "name": "tokenOrderLength",
      "outputs": [
        {
          "internalType": "uint256",
          "name": "",
          "type": "uint256"
        }
      ],
      "stateMutability": "view",
      "type": "function"
    },
    {
      "inputs": [
        {
          "internalType": "address",
          "name": "newOwner",
          "type": "address"
        }
      ],
      "name": "transferOwnership",
      "outputs": [],
      "stateMutability": "nonpayable",
      "type": "function"
    },
    {
      "inputs": [
        {
          "internalType": "uint16",
          "name": "_percent",
          "type": "uint16"
        }
      ],
      "name": "updateFeePercent",
      "outputs": [],
      "stateMutability": "nonpayable",
      "type": "function"
    }
  ],
  "bytecode": "0x60806040523480156200001157600080fd5b5060405162003367380380620033678339818101604052810190620000379190620001b7565b6000620000496200019860201b60201c565b9050806000806101000a81548173ffffffffffffffffffffffffffffffffffffffff021916908373ffffffffffffffffffffffffffffffffffffffff1602179055508073ffffffffffffffffffffffffffffffffffffffff16600073ffffffffffffffffffffffffffffffffffffffff167f8be0079c531659141344cd1fd0a4f28419497f9722a3daafe3b4186f6b6457e060405160405180910390a3506127108161ffff16111562000133576040517f08c379a00000000000000000000000000000000000000000000000000000000081526004016200012a9062000225565b60405180910390fd5b33600460006101000a81548173ffffffffffffffffffffffffffffffffffffffff021916908373ffffffffffffffffffffffffffffffffffffffff16021790555080600460146101000a81548161ffff021916908361ffff1602179055505062000280565b600033905090565b600081519050620001b18162000266565b92915050565b600060208284031215620001ca57600080fd5b6000620001da84828501620001a0565b91505092915050565b6000620001f2601d8362000247565b91507f696e7075742076616c7565206973206d6f7265207468616e20313030250000006000830152602082019050919050565b600060208201905081810360008301526200024081620001e3565b9050919050565b600082825260208201905092915050565b600061ffff82169050919050565b620002718162000258565b81146200027d57600080fd5b50565b6130d780620002906000396000f3fe6080604052600436106101355760003560e01c80638035eb5c116100ab578063957bb1e01161006f578063957bb1e014610447578063a04a86bd14610463578063bd66528a1461048c578063f2fde38b146104b5578063f4dae74c146104de578063f9ab2e581461050757610135565b80638035eb5c146103715780638705fcd41461039a5780638aae982a146103c35780638ba39adb146104005780638da5cb5b1461041c57610135565b8063238e203f116100fd578063238e203f14610257578063275e086c1461029e57806341275358146102db578063715018a6146103065780637489ec231461031d5780637fd6f15c1461034657610135565b806308745c981461013a578063093dff7d14610177578063150b7a02146101a0578063161e444e146101dd57806319daa1081461021a575b600080fd5b34801561014657600080fd5b50610161600480360381019061015c9190612134565b610544565b60405161016e9190612945565b60405180910390f35b34801561018357600080fd5b5061019e600480360381019061019991906122d6565b610575565b005b3480156101ac57600080fd5b506101c760048036038101906101c291906120b9565b6105cd565b6040516101d49190612960565b60405180910390f35b3480156101e957600080fd5b5061020460048036038101906101ff9190612170565b6105e1565b6040516102119190612b96565b60405180910390f35b34801561022657600080fd5b50610241600480360381019061023c9190612199565b6106cb565b60405161024e9190612b96565b60405180910390f35b34801561026357600080fd5b5061027e60048036038101906102799190612170565b610729565b6040516102959b9a99989796959493929190612c56565b60405180910390f35b3480156102aa57600080fd5b506102c560048036038101906102c09190612224565b6107fd565b6040516102d29190612945565b60405180910390f35b3480156102e757600080fd5b506102f061083b565b6040516102fd91906128f3565b60405180910390f35b34801561031257600080fd5b5061031b610861565b005b34801561032957600080fd5b50610344600480360381019061033f9190612170565b61099b565b005b34801561035257600080fd5b5061035b610be5565b6040516103689190612b7b565b60405180910390f35b34801561037d57600080fd5b5061039860048036038101906103939190612273565b610bf9565b005b3480156103a657600080fd5b506103c160048036038101906103bc9190612090565b610c0f565b005b3480156103cf57600080fd5b506103ea60048036038101906103e59190612090565b610ccf565b6040516103f79190612b96565b60405180910390f35b61041a60048036038101906104159190612170565b610d1b565b005b34801561042857600080fd5b5061043161113d565b60405161043e91906128f3565b60405180910390f35b610461600480360381019061045c9190612170565b611166565b005b34801561046f57600080fd5b5061048a6004803603810190610485919061234d565b6114cd565b005b34801561049857600080fd5b506104b360048036038101906104ae9190612170565b6115b2565b005b3480156104c157600080fd5b506104dc60048036038101906104d79190612090565b6119c8565b005b3480156104ea57600080fd5b5061050560048036038101906105009190612273565b611b71565b005b34801561051357600080fd5b5061052e600480360381019061052991906121d5565b611b87565b60405161053b9190612945565b60405180910390f35b6002602052816000526040600020818154811061056057600080fd5b90600052602060002001600091509150505481565b8183116105b7576040517f08c379a00000000000000000000000000000000000000000000000000000000081526004016105ae90612afb565b60405180910390fd5b6105c660018686868686611bbf565b5050505050565b600063150b7a0260e01b9050949350505050565b60008060036000848152602001908152602001600020905060008160000160009054906101000a900460ff16905060008160ff161415610629578160030154925050506106c6565b60028160ff16141561065c576000826007015490506000811461064c5780610652565b82600301545b93505050506106c6565b60008260030154905060008360050154905060008185600601546106809190612e54565b8560040154846106909190612e54565b61069a9190612dc9565b90508082436106a99190612e54565b6106b39190612dfa565b836106be9190612e54565b955050505050505b919050565b6000600160008473ffffffffffffffffffffffffffffffffffffffff1673ffffffffffffffffffffffffffffffffffffffff168152602001908152602001600020600083815260200190815260200160002080549050905092915050565b60036020528060005260406000206000915090508060000160009054906101000a900460ff16908060000160019054906101000a900473ffffffffffffffffffffffffffffffffffffffff16908060010160009054906101000a900473ffffffffffffffffffffffffffffffffffffffff16908060020154908060030154908060040154908060050154908060060154908060070154908060080160009054906101000a900473ffffffffffffffffffffffffffffffffffffffff16908060080160149054906101000a900460ff1690508b565b6001602052826000526040600020602052816000526040600020818154811061082557600080fd5b9060005260206000200160009250925050505481565b600460009054906101000a900473ffffffffffffffffffffffffffffffffffffffff1681565b610869611fb7565b73ffffffffffffffffffffffffffffffffffffffff1661088761113d565b73ffffffffffffffffffffffffffffffffffffffff16146108dd576040517f08c379a00000000000000000000000000000000000000000000000000000000081526004016108d490612a9b565b60405180910390fd5b600073ffffffffffffffffffffffffffffffffffffffff1660008054906101000a900473ffffffffffffffffffffffffffffffffffffffff1673ffffffffffffffffffffffffffffffffffffffff167f8be0079c531659141344cd1fd0a4f28419497f9722a3daafe3b4186f6b6457e060405160405180910390a360008060006101000a81548173ffffffffffffffffffffffffffffffffffffffff021916908373ffffffffffffffffffffffffffffffffffffffff160217905550565b60006003600083815260200190815260200160002090503373ffffffffffffffffffffffffffffffffffffffff168160000160019054906101000a900473ffffffffffffffffffffffffffffffffffffffff1673ffffffffffffffffffffffffffffffffffffffff1614610a44576040517f08c379a0000000000000000000000000000000000000000000000000000000008152600401610a3b90612b1b565b60405180910390fd5b6000816007015414610a8b576040517f08c379a0000000000000000000000000000000000000000000000000000000008152600401610a8290612a3b565b60405180910390fd5b600015158160080160149054906101000a900460ff16151514610ae3576040517f08c379a0000000000000000000000000000000000000000000000000000000008152600401610ada90612b3b565b60405180910390fd5b60008160010160009054906101000a900473ffffffffffffffffffffffffffffffffffffffff169050600082600201549050600083600601819055508173ffffffffffffffffffffffffffffffffffffffff166342842e0e3033846040518463ffffffff1660e01b8152600401610b5c9392919061290e565b600060405180830381600087803b158015610b7657600080fd5b505af1158015610b8a573d6000803e3d6000fd5b50505050838273ffffffffffffffffffffffffffffffffffffffff167f856ac238bc6f4bb0c966003f34f148bf0ef3b60f266e451474de23ff78196c8b8333604051610bd7929190612bb1565b60405180910390a350505050565b600460149054906101000a900461ffff1681565b610c096000858585600086611bbf565b50505050565b610c17611fb7565b73ffffffffffffffffffffffffffffffffffffffff16610c3561113d565b73ffffffffffffffffffffffffffffffffffffffff1614610c8b576040517f08c379a0000000000000000000000000000000000000000000000000000000008152600401610c8290612a9b565b60405180910390fd5b80600460006101000a81548173ffffffffffffffffffffffffffffffffffffffff021916908373ffffffffffffffffffffffffffffffffffffffff16021790555050565b6000600260008373ffffffffffffffffffffffffffffffffffffffff1673ffffffffffffffffffffffffffffffffffffffff168152602001908152602001600020805490509050919050565b600060036000838152602001908152602001600020905043816006015411610d78576040517f08c379a0000000000000000000000000000000000000000000000000000000008152600401610d6f90612b5b565b60405180910390fd5b60028160000160009054906101000a900460ff1660ff1610610dcf576040517f08c379a0000000000000000000000000000000000000000000000000000000008152600401610dc690612a5b565b60405180910390fd5b600015158160080160149054906101000a900460ff16151514610e27576040517f08c379a0000000000000000000000000000000000000000000000000000000008152600401610e1e90612b3b565b60405180910390fd5b6000610e32836105e1565b905080341015610e77576040517f08c379a0000000000000000000000000000000000000000000000000000000008152600401610e6e906129fb565b60405180910390fd5b6000612710600460149054906101000a900461ffff1661ffff1683610e9c9190612dfa565b610ea69190612dc9565b90508260000160019054906101000a900473ffffffffffffffffffffffffffffffffffffffff1673ffffffffffffffffffffffffffffffffffffffff166108fc8284610ef29190612e54565b9081150290604051600060405180830381858888f19350505050158015610f1d573d6000803e3d6000fd5b50600460009054906101000a900473ffffffffffffffffffffffffffffffffffffffff1673ffffffffffffffffffffffffffffffffffffffff166108fc829081150290604051600060405180830381858888f19350505050158015610f86573d6000803e3d6000fd5b5081341115610fe2573373ffffffffffffffffffffffffffffffffffffffff166108fc8334610fb59190612e54565b9081150290604051600060405180830381858888f19350505050158015610fe0573d6000803e3d6000fd5b505b60018360080160146101000a81548160ff0219169083151502179055508260010160009054906101000a900473ffffffffffffffffffffffffffffffffffffffff1673ffffffffffffffffffffffffffffffffffffffff166342842e0e303386600201546040518463ffffffff1660e01b81526004016110649392919061290e565b600060405180830381600087803b15801561107e57600080fd5b505af1158015611092573d6000803e3d6000fd5b50505050838360010160009054906101000a900473ffffffffffffffffffffffffffffffffffffffff1673ffffffffffffffffffffffffffffffffffffffff167f37a6d1163573be2522695f96cbee3037bf297187c0378e8903ac1ae0192f699f85600201548660000160019054906101000a900473ffffffffffffffffffffffffffffffffffffffff16338760405161112f9493929190612bda565b60405180910390a350505050565b60008060009054906101000a900473ffffffffffffffffffffffffffffffffffffffff16905090565b600060036000838152602001908152602001600020905060008160060154905060008260070154905060028360000160009054906101000a900460ff1660ff16146111e6576040517f08c379a00000000000000000000000000000000000000000000000000000000081526004016111dd9061297b565b60405180910390fd5b81431115611229576040517f08c379a000000000000000000000000000000000000000000000000000000000815260040161122090612b5b565b60405180910390fd5b3373ffffffffffffffffffffffffffffffffffffffff168360000160019054906101000a900473ffffffffffffffffffffffffffffffffffffffff1673ffffffffffffffffffffffffffffffffffffffff1614156112bc576040517f08c379a00000000000000000000000000000000000000000000000000000000081526004016112b390612a7b565b60405180910390fd5b60008114611323576014816112d19190612dc9565b816112dc9190612d73565b34101561131e576040517f08c379a0000000000000000000000000000000000000000000000000000000008152600401611315906129db565b60405180910390fd5b61136b565b826003015434101561136a576040517f08c379a0000000000000000000000000000000000000000000000000000000008152600401611361906129db565b60405180910390fd5b5b6014826113789190612e54565b4311156113955760148261138c9190612d73565b83600601819055505b8260080160009054906101000a900473ffffffffffffffffffffffffffffffffffffffff1673ffffffffffffffffffffffffffffffffffffffff166108fc829081150290604051600060405180830381858888f193505050501580156113ff573d6000803e3d6000fd5b50338360080160006101000a81548173ffffffffffffffffffffffffffffffffffffffff021916908373ffffffffffffffffffffffffffffffffffffffff160217905550348360070181905550838360010160009054906101000a900473ffffffffffffffffffffffffffffffffffffffff1673ffffffffffffffffffffffffffffffffffffffff167f7f99059564a74b5d2e3fbf994dec403ab0af5688c9a4e86ca2a933688eaf223b856002015433346040516114bf93929190612c1f565b60405180910390a350505050565b6114d5611fb7565b73ffffffffffffffffffffffffffffffffffffffff166114f361113d565b73ffffffffffffffffffffffffffffffffffffffff1614611549576040517f08c379a000000000000000000000000000000000000000000000000000000000815260040161154090612a9b565b60405180910390fd5b6127108161ffff161115611592576040517f08c379a000000000000000000000000000000000000000000000000000000000815260040161158990612abb565b60405180910390fd5b80600460146101000a81548161ffff021916908361ffff16021790555050565b600060036000838152602001908152602001600020905060008160000160019054906101000a900473ffffffffffffffffffffffffffffffffffffffff16905060008260080160009054906101000a900473ffffffffffffffffffffffffffffffffffffffff169050600015158360080160149054906101000a900460ff16151514611673576040517f08c379a000000000000000000000000000000000000000000000000000000000815260040161166a90612b3b565b60405180910390fd5b3373ffffffffffffffffffffffffffffffffffffffff168273ffffffffffffffffffffffffffffffffffffffff1614806116d857503373ffffffffffffffffffffffffffffffffffffffff168173ffffffffffffffffffffffffffffffffffffffff16145b611717576040517f08c379a000000000000000000000000000000000000000000000000000000000815260040161170e90612b1b565b60405180910390fd5b60028360000160009054906101000a900460ff1660ff161461176e576040517f08c379a000000000000000000000000000000000000000000000000000000000815260040161176590612adb565b60405180910390fd5b826006015443116117b4576040517f08c379a00000000000000000000000000000000000000000000000000000000081526004016117ab90612a1b565b60405180910390fd5b60008360010160009054906101000a900473ffffffffffffffffffffffffffffffffffffffff1690506000846007015490506000612710600460149054906101000a900461ffff1661ffff168361180b9190612dfa565b6118159190612dc9565b905060018660080160146101000a81548160ff0219169083151502179055508473ffffffffffffffffffffffffffffffffffffffff166108fc82886007015461185e9190612e54565b9081150290604051600060405180830381858888f19350505050158015611889573d6000803e3d6000fd5b50600460009054906101000a900473ffffffffffffffffffffffffffffffffffffffff1673ffffffffffffffffffffffffffffffffffffffff166108fc829081150290604051600060405180830381858888f193505050501580156118f2573d6000803e3d6000fd5b508273ffffffffffffffffffffffffffffffffffffffff166342842e0e308689600201546040518463ffffffff1660e01b81526004016119349392919061290e565b600060405180830381600087803b15801561194e57600080fd5b505af1158015611962573d6000803e3d6000fd5b50505050868373ffffffffffffffffffffffffffffffffffffffff167f37a6d1163573be2522695f96cbee3037bf297187c0378e8903ac1ae0192f699f88600201548888876040516119b79493929190612bda565b60405180910390a350505050505050565b6119d0611fb7565b73ffffffffffffffffffffffffffffffffffffffff166119ee61113d565b73ffffffffffffffffffffffffffffffffffffffff1614611a44576040517f08c379a0000000000000000000000000000000000000000000000000000000008152600401611a3b90612a9b565b60405180910390fd5b600073ffffffffffffffffffffffffffffffffffffffff168173ffffffffffffffffffffffffffffffffffffffff161415611ab4576040517f08c379a0000000000000000000000000000000000000000000000000000000008152600401611aab906129bb565b60405180910390fd5b8073ffffffffffffffffffffffffffffffffffffffff1660008054906101000a900473ffffffffffffffffffffffffffffffffffffffff1673ffffffffffffffffffffffffffffffffffffffff167f8be0079c531659141344cd1fd0a4f28419497f9722a3daafe3b4186f6b6457e060405160405180910390a3806000806101000a81548173ffffffffffffffffffffffffffffffffffffffff021916908373ffffffffffffffffffffffffffffffffffffffff16021790555050565b611b816002858585600086611bbf565b50505050565b600043848484604051602001611ba094939291906128a5565b6040516020818303038152906040528051906020012090509392505050565b438111611c01576040517f08c379a0000000000000000000000000000000000000000000000000000000008152600401611bf89061299b565b60405180910390fd5b6000611c0e868633611b87565b90506040518061016001604052808860ff1681526020013373ffffffffffffffffffffffffffffffffffffffff1681526020018773ffffffffffffffffffffffffffffffffffffffff16815260200186815260200185815260200184815260200143815260200183815260200160008152602001600073ffffffffffffffffffffffffffffffffffffffff168152602001600015158152506003600083815260200190815260200160002060008201518160000160006101000a81548160ff021916908360ff16021790555060208201518160000160016101000a81548173ffffffffffffffffffffffffffffffffffffffff021916908373ffffffffffffffffffffffffffffffffffffffff16021790555060408201518160010160006101000a81548173ffffffffffffffffffffffffffffffffffffffff021916908373ffffffffffffffffffffffffffffffffffffffff160217905550606082015181600201556080820151816003015560a0820151816004015560c0820151816005015560e0820151816006015561010082015181600701556101208201518160080160006101000a81548173ffffffffffffffffffffffffffffffffffffffff021916908373ffffffffffffffffffffffffffffffffffffffff1602179055506101408201518160080160146101000a81548160ff021916908315150217905550905050600160008773ffffffffffffffffffffffffffffffffffffffff1673ffffffffffffffffffffffffffffffffffffffff1681526020019081526020016000206000868152602001908152602001600020819080600181540180825580915050600190039060005260206000200160009091909190915055600260003373ffffffffffffffffffffffffffffffffffffffff1673ffffffffffffffffffffffffffffffffffffffff1681526020019081526020016000208190806001815401808255809150506001900390600052602060002001600090919091909150558573ffffffffffffffffffffffffffffffffffffffff166342842e0e3330886040518463ffffffff1660e01b8152600401611f2b9392919061290e565b600060405180830381600087803b158015611f4557600080fd5b505af1158015611f59573d6000803e3d6000fd5b50505050808673ffffffffffffffffffffffffffffffffffffffff167f165b17602125a20b222f9736f06d776e39507d7dc60ddef32ccc23ea2f1b50e58733604051611fa6929190612bb1565b60405180910390a350505050505050565b600033905090565b6000611fd2611fcd84612d32565b612d01565b905082815260208101848484011115611fea57600080fd5b611ff5848285612f57565b509392505050565b60008135905061200c8161302e565b92915050565b60008135905061202181613045565b92915050565b600082601f83011261203857600080fd5b8135612048848260208601611fbf565b91505092915050565b6000813590506120608161305c565b92915050565b60008135905061207581613073565b92915050565b60008135905061208a8161308a565b92915050565b6000602082840312156120a257600080fd5b60006120b084828501611ffd565b91505092915050565b600080600080608085870312156120cf57600080fd5b60006120dd87828801611ffd565b94505060206120ee87828801611ffd565b93505060406120ff8782880161207b565b925050606085013567ffffffffffffffff81111561211c57600080fd5b61212887828801612027565b91505092959194509250565b6000806040838503121561214757600080fd5b600061215585828601611ffd565b92505060206121668582860161207b565b9150509250929050565b60006020828403121561218257600080fd5b600061219084828501612012565b91505092915050565b600080604083850312156121ac57600080fd5b60006121ba85828601612051565b92505060206121cb8582860161207b565b9150509250929050565b6000806000606084860312156121ea57600080fd5b60006121f886828701612051565b93505060206122098682870161207b565b925050604061221a86828701611ffd565b9150509250925092565b60008060006060848603121561223957600080fd5b600061224786828701612051565b93505060206122588682870161207b565b92505060406122698682870161207b565b9150509250925092565b6000806000806080858703121561228957600080fd5b600061229787828801612051565b94505060206122a88782880161207b565b93505060406122b98782880161207b565b92505060606122ca8782880161207b565b91505092959194509250565b600080600080600060a086880312156122ee57600080fd5b60006122fc88828901612051565b955050602061230d8882890161207b565b945050604061231e8882890161207b565b935050606061232f8882890161207b565b92505060806123408882890161207b565b9150509295509295909350565b60006020828403121561235f57600080fd5b600061236d84828501612066565b91505092915050565b61237f81612e88565b82525050565b61239661239182612e88565b612f66565b82525050565b6123a581612e9a565b82525050565b6123b481612ea6565b82525050565b6123c381612eb0565b82525050565b6123d281612f33565b82525050565b6123e96123e482612f33565b612f66565b82525050565b60006123fc601883612d62565b91507f6f6e6c7920666f7220456e676c6973682041756374696f6e00000000000000006000830152602082019050919050565b600061243c601f83612d62565b91507f4475726174696f6e206d757374206265206d6f7265207468616e207a65726f006000830152602082019050919050565b600061247c602683612d62565b91507f4f776e61626c653a206e6577206f776e657220697320746865207a65726f206160008301527f64647265737300000000000000000000000000000000000000000000000000006020830152604082019050919050565b60006124e2600d83612d62565b91507f6c6f7720707269636520626964000000000000000000000000000000000000006000830152602082019050919050565b6000612522600b83612d62565b91507f7072696365206572726f720000000000000000000000000000000000000000006000830152602082019050919050565b6000612562600783612d62565b91507f4e6f7420796574000000000000000000000000000000000000000000000000006000830152602082019050919050565b60006125a2600d83612d62565b91507f42696464696e67206578697374000000000000000000000000000000000000006000830152602082019050919050565b60006125e2601683612d62565b91507f49742773206120456e676c6973682041756374696f6e000000000000000000006000830152602082019050919050565b6000612622601983612d62565b91507f43616e206e6f742062696420746f20796f7572206f72646572000000000000006000830152602082019050919050565b6000612662602083612d62565b91507f4f776e61626c653a2063616c6c6572206973206e6f7420746865206f776e65726000830152602082019050919050565b60006126a2601d83612d62565b91507f696e7075742076616c7565206973206d6f7265207468616e20313030250000006000830152602082019050919050565b60006126e2602483612d62565b91507f546869732066756e6374696f6e20697320666f7220456e676c6973682041756360008301527f74696f6e000000000000000000000000000000000000000000000000000000006020830152604082019050919050565b6000612748602a83612d62565b91507f456e642070726963652073686f756c64206265206c6f776572207468616e207360008301527f74617274207072696365000000000000000000000000000000000000000000006020830152604082019050919050565b60006127ae600d83612d62565b91507f4163636573732064656e696564000000000000000000000000000000000000006000830152602082019050919050565b60006127ee600c83612d62565b91507f416c726561647920736f6c6400000000000000000000000000000000000000006000830152602082019050919050565b600061282e600983612d62565b91507f49742773206f76657200000000000000000000000000000000000000000000006000830152602082019050919050565b61286a81612eee565b82525050565b61287981612f1c565b82525050565b61289061288b82612f1c565b612f8a565b82525050565b61289f81612f26565b82525050565b60006128b1828761287f565b6020820191506128c182866123d8565b6014820191506128d1828561287f565b6020820191506128e18284612385565b60148201915081905095945050505050565b60006020820190506129086000830184612376565b92915050565b60006060820190506129236000830186612376565b6129306020830185612376565b61293d6040830184612870565b949350505050565b600060208201905061295a60008301846123ab565b92915050565b600060208201905061297560008301846123ba565b92915050565b60006020820190508181036000830152612994816123ef565b9050919050565b600060208201905081810360008301526129b48161242f565b9050919050565b600060208201905081810360008301526129d48161246f565b9050919050565b600060208201905081810360008301526129f4816124d5565b9050919050565b60006020820190508181036000830152612a1481612515565b9050919050565b60006020820190508181036000830152612a3481612555565b9050919050565b60006020820190508181036000830152612a5481612595565b9050919050565b60006020820190508181036000830152612a74816125d5565b9050919050565b60006020820190508181036000830152612a9481612615565b9050919050565b60006020820190508181036000830152612ab481612655565b9050919050565b60006020820190508181036000830152612ad481612695565b9050919050565b60006020820190508181036000830152612af4816126d5565b9050919050565b60006020820190508181036000830152612b148161273b565b9050919050565b60006020820190508181036000830152612b34816127a1565b9050919050565b60006020820190508181036000830152612b54816127e1565b9050919050565b60006020820190508181036000830152612b7481612821565b9050919050565b6000602082019050612b906000830184612861565b92915050565b6000602082019050612bab6000830184612870565b92915050565b6000604082019050612bc66000830185612870565b612bd36020830184612376565b9392505050565b6000608082019050612bef6000830187612870565b612bfc6020830186612376565b612c096040830185612376565b612c166060830184612870565b95945050505050565b6000606082019050612c346000830186612870565b612c416020830185612376565b612c4e6040830184612870565b949350505050565b600061016082019050612c6c600083018e612896565b612c79602083018d612376565b612c86604083018c6123c9565b612c93606083018b612870565b612ca0608083018a612870565b612cad60a0830189612870565b612cba60c0830188612870565b612cc760e0830187612870565b612cd5610100830186612870565b612ce3610120830185612376565b612cf161014083018461239c565b9c9b505050505050505050505050565b6000604051905081810181811067ffffffffffffffff82111715612d2857612d27612ff2565b5b8060405250919050565b600067ffffffffffffffff821115612d4d57612d4c612ff2565b5b601f19601f8301169050602081019050919050565b600082825260208201905092915050565b6000612d7e82612f1c565b9150612d8983612f1c565b9250827fffffffffffffffffffffffffffffffffffffffffffffffffffffffffffffffff03821115612dbe57612dbd612f94565b5b828201905092915050565b6000612dd482612f1c565b9150612ddf83612f1c565b925082612def57612dee612fc3565b5b828204905092915050565b6000612e0582612f1c565b9150612e1083612f1c565b9250817fffffffffffffffffffffffffffffffffffffffffffffffffffffffffffffffff0483118215151615612e4957612e48612f94565b5b828202905092915050565b6000612e5f82612f1c565b9150612e6a83612f1c565b925082821015612e7d57612e7c612f94565b5b828203905092915050565b6000612e9382612efc565b9050919050565b60008115159050919050565b6000819050919050565b60007fffffffff0000000000000000000000000000000000000000000000000000000082169050919050565b6000612ee782612e88565b9050919050565b600061ffff82169050919050565b600073ffffffffffffffffffffffffffffffffffffffff82169050919050565b6000819050919050565b600060ff82169050919050565b6000612f3e82612f45565b9050919050565b6000612f5082612efc565b9050919050565b82818337600083830152505050565b6000612f7182612f78565b9050919050565b6000612f8382613021565b9050919050565b6000819050919050565b7f4e487b7100000000000000000000000000000000000000000000000000000000600052601160045260246000fd5b7f4e487b7100000000000000000000000000000000000000000000000000000000600052601260045260246000fd5b7f4e487b7100000000000000000000000000000000000000000000000000000000600052604160045260246000fd5b60008160601b9050919050565b61303781612e88565b811461304257600080fd5b50565b61304e81612ea6565b811461305957600080fd5b50565b61306581612edc565b811461307057600080fd5b50565b61307c81612eee565b811461308757600080fd5b50565b61309381612f1c565b811461309e57600080fd5b5056fea264697066735822122080553ef82d4a81dc63d104c246d638433362455e3aa32b40efd8d3b61a1eef7564736f6c63430008000033",
  "linkReferences": {},
  "deployedLinkReferences": {}
}