{
  "_format": "hh-sol-artifact-1",
  "contractName": "TransferTest1",
  "sourceName": "contracts/Test/ContractAccount1.sol",
  "abi": [
    {
      "inputs": [
        {
          "internalType": "address",
          "name": "_ex",
          "type": "address"
        }
      ],
      "stateMutability": "nonpayable",
      "type": "constructor"
    },
    {
      "inputs": [
        {
          "internalType": "bytes32",
          "name": "_order",
          "type": "bytes32"
        }
      ],
      "name": "bid",
      "outputs": [],
      "stateMutability": "payable",
      "type": "function"
    },
    {
      "inputs": [],
      "name": "ex",
      "outputs": [
        {
          "internalType": "contract NFTEX",
          "name": "",
          "type": "address"
        }
      ],
      "stateMutability": "view",
      "type": "function"
    },
    {
      "stateMutability": "payable",
      "type": "receive"
    }
  ],
  "bytecode": "0x608060405234801561001057600080fd5b5060405161049a38038061049a8339818101604052810190610032919061008d565b806000806101000a81548173ffffffffffffffffffffffffffffffffffffffff021916908373ffffffffffffffffffffffffffffffffffffffff160217905550506100ff565b600081519050610087816100e8565b92915050565b60006020828403121561009f57600080fd5b60006100ad84828501610078565b91505092915050565b60006100c1826100c8565b9050919050565b600073ffffffffffffffffffffffffffffffffffffffff82169050919050565b6100f1816100b6565b81146100fc57600080fd5b50565b61038c8061010e6000396000f3fe60806040526004361061002d5760003560e01c8063957bb1e014610039578063e1c345491461005557610034565b3661003457005b600080fd5b610053600480360381019061004e91906101e3565b610080565b005b34801561006157600080fd5b5061006a6101aa565b604051610077919061028d565b60405180910390f35b60008060009054906101000a900473ffffffffffffffffffffffffffffffffffffffff1673ffffffffffffffffffffffffffffffffffffffff1634836040516024016100cc9190610272565b6040516020818303038152906040527f957bb1e0000000000000000000000000000000000000000000000000000000007bffffffffffffffffffffffffffffffffffffffffffffffffffffffff19166020820180517bffffffffffffffffffffffffffffffffffffffffffffffffffffffff8381831617835250505050604051610156919061025b565b60006040518083038185875af1925050503d8060008114610193576040519150601f19603f3d011682016040523d82523d6000602084013e610198565b606091505b50509050806101a657600080fd5b5050565b60008054906101000a900473ffffffffffffffffffffffffffffffffffffffff1681565b6000813590506101dd8161033f565b92915050565b6000602082840312156101f557600080fd5b6000610203848285016101ce565b91505092915050565b610215816102be565b82525050565b6000610226826102a8565b61023081856102b3565b935061024081856020860161030c565b80840191505092915050565b610255816102e8565b82525050565b6000610267828461021b565b915081905092915050565b6000602082019050610287600083018461020c565b92915050565b60006020820190506102a2600083018461024c565b92915050565b600081519050919050565b600081905092915050565b6000819050919050565b600073ffffffffffffffffffffffffffffffffffffffff82169050919050565b60006102f3826102fa565b9050919050565b6000610305826102c8565b9050919050565b60005b8381101561032a57808201518184015260208101905061030f565b83811115610339576000848401525b50505050565b610348816102be565b811461035357600080fd5b5056fea26469706673582212208902c56d32c9de0b353ff30d3a6def8cb42cdc541e8fcd7c066ce02787568fc664736f6c63430008030033",
  "linkReferences": {},
  "deployedLinkReferences": {}
}