{
  "_format": "hh-sol-artifact-1",
  "contractName": "TransferTest1",
  "sourceName": "contracts/Test/ContractAccount1.sol",
  "abi": [
    {
      "inputs": [
        {
          "internalType": "address",
          "name": "_ex",
          "type": "address"
        }
      ],
      "stateMutability": "nonpayable",
      "type": "constructor"
    },
    {
      "inputs": [
        {
          "internalType": "bytes32",
          "name": "_order",
          "type": "bytes32"
        }
      ],
      "name": "bid",
      "outputs": [],
      "stateMutability": "payable",
      "type": "function"
    },
    {
      "inputs": [
        {
          "internalType": "bytes32",
          "name": "c__0x100e3560",
          "type": "bytes32"
        }
      ],
      "name": "c_0x100e3560",
      "outputs": [],
      "stateMutability": "pure",
      "type": "function"
    },
    {
      "inputs": [],
      "name": "ex",
      "outputs": [
        {
          "internalType": "contract NFTEX",
          "name": "",
          "type": "address"
        }
      ],
      "stateMutability": "view",
      "type": "function"
    },
    {
      "stateMutability": "payable",
      "type": "receive"
    }
  ],
  "bytecode": "0x608060405234801561001057600080fd5b5060405161069e38038061069e83398181016040528101906100329190610126565b6100647ff65c41c1984176a571ca524b736430b0a024f88f093de34dbe3e19235606aab360001b61010e60201b60201c565b6100967ff93aa61777a0ea31712e47d0e0c634450d644bb8589ae37a462e11c3464dd1d260001b61010e60201b60201c565b6100c87f56d3954a4b8a10475953217af773f9b255b26743bf99f89bf52afb79f91eaa5c60001b61010e60201b60201c565b806000806101000a81548173ffffffffffffffffffffffffffffffffffffffff021916908373ffffffffffffffffffffffffffffffffffffffff16021790555050610198565b50565b60008151905061012081610181565b92915050565b60006020828403121561013857600080fd5b600061014684828501610111565b91505092915050565b600061015a82610161565b9050919050565b600073ffffffffffffffffffffffffffffffffffffffff82169050919050565b61018a8161014f565b811461019557600080fd5b50565b6104f7806101a76000396000f3fe6080604052600436106100385760003560e01c8063957bb1e014610044578063e1c3454914610060578063fe8898af1461008b5761003f565b3661003f57005b600080fd5b61005e6004803603810190610059919061034e565b6100b4565b005b34801561006c57600080fd5b50610075610312565b60405161008291906103f8565b60405180910390f35b34801561009757600080fd5b506100b260048036038101906100ad919061034e565b610336565b005b6100e07f21771c4d62c92e3e66b7dbd72385eeb68f53b6032a68467ef9d0efa0db38157a60001b610336565b61010c7f5a32ad5cab1513e8923349d5b510fdbfcc1ac8b4f010b6cbbda84351e8aff92d60001b610336565b6101387f0657fdc0a36124729c1f849be34652cd6710f6470d1fe1c7e31826f04776d31f60001b610336565b60008060009054906101000a900473ffffffffffffffffffffffffffffffffffffffff1673ffffffffffffffffffffffffffffffffffffffff16348360405160240161018491906103dd565b6040516020818303038152906040527f957bb1e0000000000000000000000000000000000000000000000000000000007bffffffffffffffffffffffffffffffffffffffffffffffffffffffff19166020820180517bffffffffffffffffffffffffffffffffffffffffffffffffffffffff838183161783525050505060405161020e91906103c6565b60006040518083038185875af1925050503d806000811461024b576040519150601f19603f3d011682016040523d82523d6000602084013e610250565b606091505b505090506102807f11b96da738119d6ee233e240c5615337619b45504ca74bc31dfeab2188647f0e60001b610336565b6102ac7ffe25eb396e7805e5e1a018f4e915baee4df0406f3ec8f9196fae7fafb14664a260001b610336565b6102d87f8c5ae96d221890d8bae459d4b142f174a1cf20d644089c7d63d2a963c421768060001b610336565b806102e257600080fd5b61030e7f2f06b94a24b30f11ecee94cd6592f233277b3246e71d9277be11a7c4a1e2907c60001b610336565b5050565b60008054906101000a900473ffffffffffffffffffffffffffffffffffffffff1681565b50565b600081359050610348816104aa565b92915050565b60006020828403121561036057600080fd5b600061036e84828501610339565b91505092915050565b61038081610429565b82525050565b600061039182610413565b61039b818561041e565b93506103ab818560208601610477565b80840191505092915050565b6103c081610453565b82525050565b60006103d28284610386565b915081905092915050565b60006020820190506103f26000830184610377565b92915050565b600060208201905061040d60008301846103b7565b92915050565b600081519050919050565b600081905092915050565b6000819050919050565b600073ffffffffffffffffffffffffffffffffffffffff82169050919050565b600061045e82610465565b9050919050565b600061047082610433565b9050919050565b60005b8381101561049557808201518184015260208101905061047a565b838111156104a4576000848401525b50505050565b6104b381610429565b81146104be57600080fd5b5056fea26469706673582212209a29680738790d56094be7225c92d7eecc1289b0d1876f606152e7cdc8955f9364736f6c63430008030033",
  "linkReferences": {},
  "deployedLinkReferences": {}
}