{
  "_format": "hh-sol-artifact-1",
  "contractName": "Token",
  "sourceName": "contracts/Test/Token.sol",
  "abi": [
    {
      "anonymous": false,
      "inputs": [
        {
          "indexed": true,
          "internalType": "address",
          "name": "owner",
          "type": "address"
        },
        {
          "indexed": true,
          "internalType": "address",
          "name": "approved",
          "type": "address"
        },
        {
          "indexed": true,
          "internalType": "uint256",
          "name": "tokenId",
          "type": "uint256"
        }
      ],
      "name": "Approval",
      "type": "event"
    },
    {
      "anonymous": false,
      "inputs": [
        {
          "indexed": true,
          "internalType": "address",
          "name": "owner",
          "type": "address"
        },
        {
          "indexed": true,
          "internalType": "address",
          "name": "operator",
          "type": "address"
        },
        {
          "indexed": false,
          "internalType": "bool",
          "name": "approved",
          "type": "bool"
        }
      ],
      "name": "ApprovalForAll",
      "type": "event"
    },
    {
      "anonymous": false,
      "inputs": [
        {
          "indexed": true,
          "internalType": "address",
          "name": "from",
          "type": "address"
        },
        {
          "indexed": true,
          "internalType": "address",
          "name": "to",
          "type": "address"
        },
        {
          "indexed": true,
          "internalType": "uint256",
          "name": "tokenId",
          "type": "uint256"
        }
      ],
      "name": "Transfer",
      "type": "event"
    },
    {
      "inputs": [
        {
          "internalType": "address",
          "name": "to",
          "type": "address"
        },
        {
          "internalType": "uint256",
          "name": "tokenId",
          "type": "uint256"
        }
      ],
      "name": "approve",
      "outputs": [],
      "stateMutability": "nonpayable",
      "type": "function"
    },
    {
      "inputs": [
        {
          "internalType": "address",
          "name": "owner",
          "type": "address"
        }
      ],
      "name": "balanceOf",
      "outputs": [
        {
          "internalType": "uint256",
          "name": "",
          "type": "uint256"
        }
      ],
      "stateMutability": "view",
      "type": "function"
    },
    {
      "inputs": [
        {
          "internalType": "bytes32",
          "name": "c__0x85b4c947",
          "type": "bytes32"
        }
      ],
      "name": "c_0x85b4c947",
      "outputs": [],
      "stateMutability": "pure",
      "type": "function"
    },
    {
      "inputs": [
        {
          "internalType": "uint256",
          "name": "tokenId",
          "type": "uint256"
        }
      ],
      "name": "getApproved",
      "outputs": [
        {
          "internalType": "address",
          "name": "",
          "type": "address"
        }
      ],
      "stateMutability": "view",
      "type": "function"
    },
    {
      "inputs": [
        {
          "internalType": "address",
          "name": "owner",
          "type": "address"
        },
        {
          "internalType": "address",
          "name": "operator",
          "type": "address"
        }
      ],
      "name": "isApprovedForAll",
      "outputs": [
        {
          "internalType": "bool",
          "name": "",
          "type": "bool"
        }
      ],
      "stateMutability": "view",
      "type": "function"
    },
    {
      "inputs": [
        {
          "internalType": "address",
          "name": "owner",
          "type": "address"
        },
        {
          "internalType": "uint256",
          "name": "id",
          "type": "uint256"
        }
      ],
      "name": "mint",
      "outputs": [],
      "stateMutability": "nonpayable",
      "type": "function"
    },
    {
      "inputs": [],
      "name": "name",
      "outputs": [
        {
          "internalType": "string",
          "name": "",
          "type": "string"
        }
      ],
      "stateMutability": "view",
      "type": "function"
    },
    {
      "inputs": [
        {
          "internalType": "uint256",
          "name": "tokenId",
          "type": "uint256"
        }
      ],
      "name": "ownerOf",
      "outputs": [
        {
          "internalType": "address",
          "name": "",
          "type": "address"
        }
      ],
      "stateMutability": "view",
      "type": "function"
    },
    {
      "inputs": [
        {
          "internalType": "address",
          "name": "from",
          "type": "address"
        },
        {
          "internalType": "address",
          "name": "to",
          "type": "address"
        },
        {
          "internalType": "uint256",
          "name": "tokenId",
          "type": "uint256"
        }
      ],
      "name": "safeTransferFrom",
      "outputs": [],
      "stateMutability": "nonpayable",
      "type": "function"
    },
    {
      "inputs": [
        {
          "internalType": "address",
          "name": "from",
          "type": "address"
        },
        {
          "internalType": "address",
          "name": "to",
          "type": "address"
        },
        {
          "internalType": "uint256",
          "name": "tokenId",
          "type": "uint256"
        },
        {
          "internalType": "bytes",
          "name": "_data",
          "type": "bytes"
        }
      ],
      "name": "safeTransferFrom",
      "outputs": [],
      "stateMutability": "nonpayable",
      "type": "function"
    },
    {
      "inputs": [
        {
          "internalType": "address",
          "name": "operator",
          "type": "address"
        },
        {
          "internalType": "bool",
          "name": "approved",
          "type": "bool"
        }
      ],
      "name": "setApprovalForAll",
      "outputs": [],
      "stateMutability": "nonpayable",
      "type": "function"
    },
    {
      "inputs": [
        {
          "internalType": "bytes4",
          "name": "interfaceId",
          "type": "bytes4"
        }
      ],
      "name": "supportsInterface",
      "outputs": [
        {
          "internalType": "bool",
          "name": "",
          "type": "bool"
        }
      ],
      "stateMutability": "view",
      "type": "function"
    },
    {
      "inputs": [],
      "name": "symbol",
      "outputs": [
        {
          "internalType": "string",
          "name": "",
          "type": "string"
        }
      ],
      "stateMutability": "view",
      "type": "function"
    },
    {
      "inputs": [
        {
          "internalType": "uint256",
          "name": "tokenId",
          "type": "uint256"
        }
      ],
      "name": "tokenURI",
      "outputs": [
        {
          "internalType": "string",
          "name": "",
          "type": "string"
        }
      ],
      "stateMutability": "view",
      "type": "function"
    },
    {
      "inputs": [
        {
          "internalType": "address",
          "name": "from",
          "type": "address"
        },
        {
          "internalType": "address",
          "name": "to",
          "type": "address"
        },
        {
          "internalType": "uint256",
          "name": "tokenId",
          "type": "uint256"
        }
      ],
      "name": "transferFrom",
      "outputs": [],
      "stateMutability": "nonpayable",
      "type": "function"
    }
  ],
  "bytecode": "0x60806040523480156200001157600080fd5b506040518060400160405280600981526020017f74657374546f6b656e00000000000000000000000000000000000000000000008152506040518060400160405280600481526020017f744e465400000000000000000000000000000000000000000000000000000000815250816000908051906020019062000096929190620000b8565b508060019080519060200190620000af929190620000b8565b505050620001cd565b828054620000c69062000168565b90600052602060002090601f016020900481019282620000ea576000855562000136565b82601f106200010557805160ff191683800117855562000136565b8280016001018555821562000136579182015b828111156200013557825182559160200191906001019062000118565b5b50905062000145919062000149565b5090565b5b80821115620001645760008160009055506001016200014a565b5090565b600060028204905060018216806200018157607f821691505b602082108114156200019857620001976200019e565b5b50919050565b7f4e487b7100000000000000000000000000000000000000000000000000000000600052602260045260246000fd5b61279d80620001dd6000396000f3fe608060405234801561001057600080fd5b50600436106100f55760003560e01c80636352211e11610097578063a22cb46511610066578063a22cb46514610282578063b88d4fde1461029e578063c87b56dd146102ba578063e985e9c5146102ea576100f5565b80636352211e146101e857806370a082311461021857806377d26ad31461024857806395d89b4114610264576100f5565b8063095ea7b3116100d3578063095ea7b31461017857806323b872dd1461019457806340c10f19146101b057806342842e0e146101cc576100f5565b806301ffc9a7146100fa57806306fdde031461012a578063081812fc14610148575b600080fd5b610114600480360381019061010f919061197e565b61031a565b6040516101219190611d3e565b60405180910390f35b6101326103fc565b60405161013f9190611d59565b60405180910390f35b610162600480360381019061015d91906119d0565b61048e565b60405161016f9190611cd7565b60405180910390f35b610192600480360381019061018d9190611919565b610513565b005b6101ae60048036038101906101a99190611813565b61062b565b005b6101ca60048036038101906101c59190611919565b61068b565b005b6101e660048036038101906101e19190611813565b61071d565b005b61020260048036038101906101fd91906119d0565b61073d565b60405161020f9190611cd7565b60405180910390f35b610232600480360381019061022d91906117ae565b6107ef565b60405161023f9190611f3b565b60405180910390f35b610262600480360381019061025d9190611955565b6108a7565b005b61026c6108aa565b6040516102799190611d59565b60405180910390f35b61029c600480360381019061029791906118dd565b61093c565b005b6102b860048036038101906102b39190611862565b610abd565b005b6102d460048036038101906102cf91906119d0565b610b1f565b6040516102e19190611d59565b60405180910390f35b61030460048036038101906102ff91906117d7565b610bc6565b6040516103119190611d3e565b60405180910390f35b60007f80ac58cd000000000000000000000000000000000000000000000000000000007bffffffffffffffffffffffffffffffffffffffffffffffffffffffff1916827bffffffffffffffffffffffffffffffffffffffffffffffffffffffff191614806103e557507f5b5e139f000000000000000000000000000000000000000000000000000000007bffffffffffffffffffffffffffffffffffffffffffffffffffffffff1916827bffffffffffffffffffffffffffffffffffffffffffffffffffffffff1916145b806103f557506103f482610c5a565b5b9050919050565b60606000805461040b9061216a565b80601f01602080910402602001604051908101604052809291908181526020018280546104379061216a565b80156104845780601f1061045957610100808354040283529160200191610484565b820191906000526020600020905b81548152906001019060200180831161046757829003601f168201915b5050505050905090565b600061049982610cc4565b6104d8576040517f08c379a00000000000000000000000000000000000000000000000000000000081526004016104cf90611e9b565b60405180910390fd5b6004600083815260200190815260200160002060009054906101000a900473ffffffffffffffffffffffffffffffffffffffff169050919050565b600061051e8261073d565b90508073ffffffffffffffffffffffffffffffffffffffff168373ffffffffffffffffffffffffffffffffffffffff16141561058f576040517f08c379a000000000000000000000000000000000000000000000000000000000815260040161058690611efb565b60405180910390fd5b8073ffffffffffffffffffffffffffffffffffffffff166105ae610d30565b73ffffffffffffffffffffffffffffffffffffffff1614806105dd57506105dc816105d7610d30565b610bc6565b5b61061c576040517f08c379a000000000000000000000000000000000000000000000000000000000815260040161061390611e1b565b60405180910390fd5b6106268383610d38565b505050565b61063c610636610d30565b82610df1565b61067b576040517f08c379a000000000000000000000000000000000000000000000000000000000815260040161067290611f1b565b60405180910390fd5b610686838383610ecf565b505050565b6106b77f2f9a1f667c03671a43bac7a1202e5d845b653f25764a3020522c56106c9167f760001b6108a7565b6106e37fdac01d0961461bdce32b4d307756e9b9e3c08540634b59a5533869fb3a01dc3c60001b6108a7565b61070f7fa4b828abab12520c8c49150bbb7c6a1d372549401c09dbf3f967a0059085ff6160001b6108a7565b610719828261112b565b5050565b61073883838360405180602001604052806000815250610abd565b505050565b6000806002600084815260200190815260200160002060009054906101000a900473ffffffffffffffffffffffffffffffffffffffff169050600073ffffffffffffffffffffffffffffffffffffffff168173ffffffffffffffffffffffffffffffffffffffff1614156107e6576040517f08c379a00000000000000000000000000000000000000000000000000000000081526004016107dd90611e5b565b60405180910390fd5b80915050919050565b60008073ffffffffffffffffffffffffffffffffffffffff168273ffffffffffffffffffffffffffffffffffffffff161415610860576040517f08c379a000000000000000000000000000000000000000000000000000000000815260040161085790611e3b565b60405180910390fd5b600360008373ffffffffffffffffffffffffffffffffffffffff1673ffffffffffffffffffffffffffffffffffffffff168152602001908152602001600020549050919050565b50565b6060600180546108b99061216a565b80601f01602080910402602001604051908101604052809291908181526020018280546108e59061216a565b80156109325780601f1061090757610100808354040283529160200191610932565b820191906000526020600020905b81548152906001019060200180831161091557829003601f168201915b5050505050905090565b610944610d30565b73ffffffffffffffffffffffffffffffffffffffff168273ffffffffffffffffffffffffffffffffffffffff1614156109b2576040517f08c379a00000000000000000000000000000000000000000000000000000000081526004016109a990611ddb565b60405180910390fd5b80600560006109bf610d30565b73ffffffffffffffffffffffffffffffffffffffff1673ffffffffffffffffffffffffffffffffffffffff16815260200190815260200160002060008473ffffffffffffffffffffffffffffffffffffffff1673ffffffffffffffffffffffffffffffffffffffff16815260200190815260200160002060006101000a81548160ff0219169083151502179055508173ffffffffffffffffffffffffffffffffffffffff16610a6c610d30565b73ffffffffffffffffffffffffffffffffffffffff167f17307eab39ab6107e8899845ad3d59bd9653f200f220920489ca2b5937696c3183604051610ab19190611d3e565b60405180910390a35050565b610ace610ac8610d30565b83610df1565b610b0d576040517f08c379a0000000000000000000000000000000000000000000000000000000008152600401610b0490611f1b565b60405180910390fd5b610b19848484846112f9565b50505050565b6060610b2a82610cc4565b610b69576040517f08c379a0000000000000000000000000000000000000000000000000000000008152600401610b6090611edb565b60405180910390fd5b6000610b73611355565b90506000815111610b935760405180602001604052806000815250610bbe565b80610b9d8461136c565b604051602001610bae929190611cb3565b6040516020818303038152906040525b915050919050565b6000600560008473ffffffffffffffffffffffffffffffffffffffff1673ffffffffffffffffffffffffffffffffffffffff16815260200190815260200160002060008373ffffffffffffffffffffffffffffffffffffffff1673ffffffffffffffffffffffffffffffffffffffff16815260200190815260200160002060009054906101000a900460ff16905092915050565b60007f01ffc9a7000000000000000000000000000000000000000000000000000000007bffffffffffffffffffffffffffffffffffffffffffffffffffffffff1916827bffffffffffffffffffffffffffffffffffffffffffffffffffffffff1916149050919050565b60008073ffffffffffffffffffffffffffffffffffffffff166002600084815260200190815260200160002060009054906101000a900473ffffffffffffffffffffffffffffffffffffffff1673ffffffffffffffffffffffffffffffffffffffff1614159050919050565b600033905090565b816004600083815260200190815260200160002060006101000a81548173ffffffffffffffffffffffffffffffffffffffff021916908373ffffffffffffffffffffffffffffffffffffffff160217905550808273ffffffffffffffffffffffffffffffffffffffff16610dab8361073d565b73ffffffffffffffffffffffffffffffffffffffff167f8c5be1e5ebec7d5bd14f71427d1e84f3dd0314c0f7b2291e5b200ac8c7c3b92560405160405180910390a45050565b6000610dfc82610cc4565b610e3b576040517f08c379a0000000000000000000000000000000000000000000000000000000008152600401610e3290611dfb565b60405180910390fd5b6000610e468361073d565b90508073ffffffffffffffffffffffffffffffffffffffff168473ffffffffffffffffffffffffffffffffffffffff161480610eb557508373ffffffffffffffffffffffffffffffffffffffff16610e9d8461048e565b73ffffffffffffffffffffffffffffffffffffffff16145b80610ec65750610ec58185610bc6565b5b91505092915050565b8273ffffffffffffffffffffffffffffffffffffffff16610eef8261073d565b73ffffffffffffffffffffffffffffffffffffffff1614610f45576040517f08c379a0000000000000000000000000000000000000000000000000000000008152600401610f3c90611ebb565b60405180910390fd5b600073ffffffffffffffffffffffffffffffffffffffff168273ffffffffffffffffffffffffffffffffffffffff161415610fb5576040517f08c379a0000000000000000000000000000000000000000000000000000000008152600401610fac90611dbb565b60405180910390fd5b610fc0838383611519565b610fcb600082610d38565b6001600360008573ffffffffffffffffffffffffffffffffffffffff1673ffffffffffffffffffffffffffffffffffffffff168152602001908152602001600020600082825461101b9190612076565b925050819055506001600360008473ffffffffffffffffffffffffffffffffffffffff1673ffffffffffffffffffffffffffffffffffffffff16815260200190815260200160002060008282546110729190611fef565b92505081905550816002600083815260200190815260200160002060006101000a81548173ffffffffffffffffffffffffffffffffffffffff021916908373ffffffffffffffffffffffffffffffffffffffff160217905550808273ffffffffffffffffffffffffffffffffffffffff168473ffffffffffffffffffffffffffffffffffffffff167fddf252ad1be2c89b69c2b068fc378daa952ba7f163c4a11628f55a4df523b3ef60405160405180910390a4505050565b600073ffffffffffffffffffffffffffffffffffffffff168273ffffffffffffffffffffffffffffffffffffffff16141561119b576040517f08c379a000000000000000000000000000000000000000000000000000000000815260040161119290611e7b565b60405180910390fd5b6111a481610cc4565b156111e4576040517f08c379a00000000000000000000000000000000000000000000000000000000081526004016111db90611d9b565b60405180910390fd5b6111f060008383611519565b6001600360008473ffffffffffffffffffffffffffffffffffffffff1673ffffffffffffffffffffffffffffffffffffffff16815260200190815260200160002060008282546112409190611fef565b92505081905550816002600083815260200190815260200160002060006101000a81548173ffffffffffffffffffffffffffffffffffffffff021916908373ffffffffffffffffffffffffffffffffffffffff160217905550808273ffffffffffffffffffffffffffffffffffffffff16600073ffffffffffffffffffffffffffffffffffffffff167fddf252ad1be2c89b69c2b068fc378daa952ba7f163c4a11628f55a4df523b3ef60405160405180910390a45050565b611304848484610ecf565b6113108484848461151e565b61134f576040517f08c379a000000000000000000000000000000000000000000000000000000000815260040161134690611d7b565b60405180910390fd5b50505050565b606060405180602001604052806000815250905090565b606060008214156113b4576040518060400160405280600181526020017f30000000000000000000000000000000000000000000000000000000000000008152509050611514565b600082905060005b600082146113e65780806113cf906121cd565b915050600a826113df9190612045565b91506113bc565b60008167ffffffffffffffff811115611428577f4e487b7100000000000000000000000000000000000000000000000000000000600052604160045260246000fd5b6040519080825280601f01601f19166020018201604052801561145a5781602001600182028036833780820191505090505b5090505b6000851461150d576001826114739190612076565b9150600a856114829190612216565b603061148e9190611fef565b60f81b8183815181106114ca577f4e487b7100000000000000000000000000000000000000000000000000000000600052603260045260246000fd5b60200101907effffffffffffffffffffffffffffffffffffffffffffffffffffffffffffff1916908160001a905350600a856115069190612045565b945061145e565b8093505050505b919050565b505050565b600061153f8473ffffffffffffffffffffffffffffffffffffffff166116b5565b156116a8578373ffffffffffffffffffffffffffffffffffffffff1663150b7a02611568610d30565b8786866040518563ffffffff1660e01b815260040161158a9493929190611cf2565b602060405180830381600087803b1580156115a457600080fd5b505af19250505080156115d557506040513d601f19601f820116820180604052508101906115d291906119a7565b60015b611658573d8060008114611605576040519150601f19603f3d011682016040523d82523d6000602084013e61160a565b606091505b50600081511415611650576040517f08c379a000000000000000000000000000000000000000000000000000000000815260040161164790611d7b565b60405180910390fd5b805181602001fd5b63150b7a0260e01b7bffffffffffffffffffffffffffffffffffffffffffffffffffffffff1916817bffffffffffffffffffffffffffffffffffffffffffffffffffffffff1916149150506116ad565b600190505b949350505050565b600080823b905060008111915050919050565b60006116db6116d684611f7b565b611f56565b9050828152602081018484840111156116f357600080fd5b6116fe848285612128565b509392505050565b600081359050611715816126f4565b92915050565b60008135905061172a8161270b565b92915050565b60008135905061173f81612722565b92915050565b60008135905061175481612739565b92915050565b60008151905061176981612739565b92915050565b600082601f83011261178057600080fd5b81356117908482602086016116c8565b91505092915050565b6000813590506117a881612750565b92915050565b6000602082840312156117c057600080fd5b60006117ce84828501611706565b91505092915050565b600080604083850312156117ea57600080fd5b60006117f885828601611706565b925050602061180985828601611706565b9150509250929050565b60008060006060848603121561182857600080fd5b600061183686828701611706565b935050602061184786828701611706565b925050604061185886828701611799565b9150509250925092565b6000806000806080858703121561187857600080fd5b600061188687828801611706565b945050602061189787828801611706565b93505060406118a887828801611799565b925050606085013567ffffffffffffffff8111156118c557600080fd5b6118d18782880161176f565b91505092959194509250565b600080604083850312156118f057600080fd5b60006118fe85828601611706565b925050602061190f8582860161171b565b9150509250929050565b6000806040838503121561192c57600080fd5b600061193a85828601611706565b925050602061194b85828601611799565b9150509250929050565b60006020828403121561196757600080fd5b600061197584828501611730565b91505092915050565b60006020828403121561199057600080fd5b600061199e84828501611745565b91505092915050565b6000602082840312156119b957600080fd5b60006119c78482850161175a565b91505092915050565b6000602082840312156119e257600080fd5b60006119f084828501611799565b91505092915050565b611a02816120aa565b82525050565b611a11816120bc565b82525050565b6000611a2282611fac565b611a2c8185611fc2565b9350611a3c818560208601612137565b611a4581612303565b840191505092915050565b6000611a5b82611fb7565b611a658185611fd3565b9350611a75818560208601612137565b611a7e81612303565b840191505092915050565b6000611a9482611fb7565b611a9e8185611fe4565b9350611aae818560208601612137565b80840191505092915050565b6000611ac7603283611fd3565b9150611ad282612314565b604082019050919050565b6000611aea601c83611fd3565b9150611af582612363565b602082019050919050565b6000611b0d602483611fd3565b9150611b188261238c565b604082019050919050565b6000611b30601983611fd3565b9150611b3b826123db565b602082019050919050565b6000611b53602c83611fd3565b9150611b5e82612404565b604082019050919050565b6000611b76603883611fd3565b9150611b8182612453565b604082019050919050565b6000611b99602a83611fd3565b9150611ba4826124a2565b604082019050919050565b6000611bbc602983611fd3565b9150611bc7826124f1565b604082019050919050565b6000611bdf602083611fd3565b9150611bea82612540565b602082019050919050565b6000611c02602c83611fd3565b9150611c0d82612569565b604082019050919050565b6000611c25602983611fd3565b9150611c30826125b8565b604082019050919050565b6000611c48602f83611fd3565b9150611c5382612607565b604082019050919050565b6000611c6b602183611fd3565b9150611c7682612656565b604082019050919050565b6000611c8e603183611fd3565b9150611c99826126a5565b604082019050919050565b611cad8161211e565b82525050565b6000611cbf8285611a89565b9150611ccb8284611a89565b91508190509392505050565b6000602082019050611cec60008301846119f9565b92915050565b6000608082019050611d0760008301876119f9565b611d1460208301866119f9565b611d216040830185611ca4565b8181036060830152611d338184611a17565b905095945050505050565b6000602082019050611d536000830184611a08565b92915050565b60006020820190508181036000830152611d738184611a50565b905092915050565b60006020820190508181036000830152611d9481611aba565b9050919050565b60006020820190508181036000830152611db481611add565b9050919050565b60006020820190508181036000830152611dd481611b00565b9050919050565b60006020820190508181036000830152611df481611b23565b9050919050565b60006020820190508181036000830152611e1481611b46565b9050919050565b60006020820190508181036000830152611e3481611b69565b9050919050565b60006020820190508181036000830152611e5481611b8c565b9050919050565b60006020820190508181036000830152611e7481611baf565b9050919050565b60006020820190508181036000830152611e9481611bd2565b9050919050565b60006020820190508181036000830152611eb481611bf5565b9050919050565b60006020820190508181036000830152611ed481611c18565b9050919050565b60006020820190508181036000830152611ef481611c3b565b9050919050565b60006020820190508181036000830152611f1481611c5e565b9050919050565b60006020820190508181036000830152611f3481611c81565b9050919050565b6000602082019050611f506000830184611ca4565b92915050565b6000611f60611f71565b9050611f6c828261219c565b919050565b6000604051905090565b600067ffffffffffffffff821115611f9657611f956122d4565b5b611f9f82612303565b9050602081019050919050565b600081519050919050565b600081519050919050565b600082825260208201905092915050565b600082825260208201905092915050565b600081905092915050565b6000611ffa8261211e565b91506120058361211e565b9250827fffffffffffffffffffffffffffffffffffffffffffffffffffffffffffffffff0382111561203a57612039612247565b5b828201905092915050565b60006120508261211e565b915061205b8361211e565b92508261206b5761206a612276565b5b828204905092915050565b60006120818261211e565b915061208c8361211e565b92508282101561209f5761209e612247565b5b828203905092915050565b60006120b5826120fe565b9050919050565b60008115159050919050565b6000819050919050565b60007fffffffff0000000000000000000000000000000000000000000000000000000082169050919050565b600073ffffffffffffffffffffffffffffffffffffffff82169050919050565b6000819050919050565b82818337600083830152505050565b60005b8381101561215557808201518184015260208101905061213a565b83811115612164576000848401525b50505050565b6000600282049050600182168061218257607f821691505b60208210811415612196576121956122a5565b5b50919050565b6121a582612303565b810181811067ffffffffffffffff821117156121c4576121c36122d4565b5b80604052505050565b60006121d88261211e565b91507fffffffffffffffffffffffffffffffffffffffffffffffffffffffffffffffff82141561220b5761220a612247565b5b600182019050919050565b60006122218261211e565b915061222c8361211e565b92508261223c5761223b612276565b5b828206905092915050565b7f4e487b7100000000000000000000000000000000000000000000000000000000600052601160045260246000fd5b7f4e487b7100000000000000000000000000000000000000000000000000000000600052601260045260246000fd5b7f4e487b7100000000000000000000000000000000000000000000000000000000600052602260045260246000fd5b7f4e487b7100000000000000000000000000000000000000000000000000000000600052604160045260246000fd5b6000601f19601f8301169050919050565b7f4552433732313a207472616e7366657220746f206e6f6e20455243373231526560008201527f63656976657220696d706c656d656e7465720000000000000000000000000000602082015250565b7f4552433732313a20746f6b656e20616c7265616479206d696e74656400000000600082015250565b7f4552433732313a207472616e7366657220746f20746865207a65726f2061646460008201527f7265737300000000000000000000000000000000000000000000000000000000602082015250565b7f4552433732313a20617070726f766520746f2063616c6c657200000000000000600082015250565b7f4552433732313a206f70657261746f7220717565727920666f72206e6f6e657860008201527f697374656e7420746f6b656e0000000000000000000000000000000000000000602082015250565b7f4552433732313a20617070726f76652063616c6c6572206973206e6f74206f7760008201527f6e6572206e6f7220617070726f76656420666f7220616c6c0000000000000000602082015250565b7f4552433732313a2062616c616e636520717565727920666f7220746865207a6560008201527f726f206164647265737300000000000000000000000000000000000000000000602082015250565b7f4552433732313a206f776e657220717565727920666f72206e6f6e657869737460008201527f656e7420746f6b656e0000000000000000000000000000000000000000000000602082015250565b7f4552433732313a206d696e7420746f20746865207a65726f2061646472657373600082015250565b7f4552433732313a20617070726f76656420717565727920666f72206e6f6e657860008201527f697374656e7420746f6b656e0000000000000000000000000000000000000000602082015250565b7f4552433732313a207472616e73666572206f6620746f6b656e2074686174206960008201527f73206e6f74206f776e0000000000000000000000000000000000000000000000602082015250565b7f4552433732314d657461646174613a2055524920717565727920666f72206e6f60008201527f6e6578697374656e7420746f6b656e0000000000000000000000000000000000602082015250565b7f4552433732313a20617070726f76616c20746f2063757272656e74206f776e6560008201527f7200000000000000000000000000000000000000000000000000000000000000602082015250565b7f4552433732313a207472616e736665722063616c6c6572206973206e6f74206f60008201527f776e6572206e6f7220617070726f766564000000000000000000000000000000602082015250565b6126fd816120aa565b811461270857600080fd5b50565b612714816120bc565b811461271f57600080fd5b50565b61272b816120c8565b811461273657600080fd5b50565b612742816120d2565b811461274d57600080fd5b50565b6127598161211e565b811461276457600080fd5b5056fea2646970667358221220ad986af5fe0d612a86d27cb7ffeab0bc420e53f99affae289b8313873a7428ab64736f6c63430008030033",
  "linkReferences": {},
  "deployedLinkReferences": {}
}